:020000040800F2
:100000000080012045420008450800084708000814
:10001000490800084B0800084D08000800000000CF
:100020000000000000000000000000004F08000871
:100030005108000800000000530800085508000897
:100040009542000895420008954200089542000834
:100050009542000895420008954200089542000824
:100060009542000895420008954200089542000814
:100070009542000895420008954200089542000804
:1000800095420008954200089542000895420008F4
:1000900095420008954200089542000895420008E4
:1000A00095420008954200089542000895420008D4
:1000B00095420008954200089542000895420008C4
:1000C00095420008954200089542000895420008B4
:1000D00095420008954200089542000895420008A4
:1000E0009542000895420008954200089542000894
:1000F0009542000895420008954200089542000884
:100100009542000895420008954200089542000873
:100110009542000895420008954200089542000863
:100120009542000895420008954200089542000853
:100130009542000895420008954200089542000843
:100140009542000895420008954200089542000833
:100150009542000895420008954200089542000823
:100160009542000895420008954200089542000813
:1001700095420008954200089542000800000000E2
:080180009542000895420008B9
:1001880053B94AB9002908BF00281CBF4FF0FF31F6
:100198004FF0FF3000F00CB8ADF1080C6DE904CE5B
:1001A80004F046FDDDF804E0DDE9022304B0704701
:1001B800704700BF0348044B834202D0034B03B18E
:1001C8001847704768000020680000200000000001
:1001D8000548064B1B1AD90F01EBA301491002D0A1
:1001E800034B03B1184770476800002068000020DF
:1001F8000000000010B5064C237843B9FFF7DAFF7A
:10020800044B13B10448AFF300800123237010BDE1
:100218006800002000000000584F000808B5054B92
:100228001BB105490548AFF30080BDE80840FFF75A
:10023800CFBF00BF000000006C000020584F00082E
:100248004FF06043D3F8803E13F0010F11D04FF008
:100258006043D3F8003E13F0010F01D1704700BF8F
:100268004FF060431B68002BF9D0C3B24FF06042D7
:100278001370704770B50C461646002504E014F854
:10028800010BFFF7DDFF0135B542F8DB304670BDE5
:1002980072B6FEE700B597B04422002105A804F025
:1002A80017F90023009301930293039304934FF4E7
:1002B800007002F059FAC0B91023059301230B937B
:1002C8000C9060220D920F9005A800F0C9FC70B93F
:1002D8000F23009301460190029003900490684612
:1002E80000F0CEFF28B917B000BDFFF7D1FFFFF728
:1002F800CFFFFFF7CDFF000008B500F0DFFBFFF7E9
:10030800C9FF00F025F800F0D7F800F001F900F077
:10031800A1F900F01DFA00F0B5FA0C4804F0D0F885
:10032800012240214FF0904002F055F94FF47A70C5
:1003380000F0E6FB002240214FF0904002F04BF91C
:100348004FF47A7000F0DCFBEAE700BF704F00085A
:100358002DE9F0438BB005AD00240594069407946D
:1003680008940994504BDA6C42F00402DA64DA6CAF
:1003780002F004020092009ADA6C42F08002DA6419
:10038800DA6C02F080020192019ADA6C42F0010202
:10039800DA64DA6C02F001020292029ADA6C42F034
:1003A8000202DA64DA6C02F002020392039ADA6C4F
:1003B80042F00802DA64DB6C03F008030493049B40
:1003C8003A4F22460821384602F005F922464221D2
:1003D8004FF0904002F0FFF84EF2F4030593032625
:1003E800069607942946384601F0E0FF05960696DA
:1003F800079429462E4801F0D9FF05964FF488182E
:10040800CDF8188007942946384601F0CFFF082315
:1004180005934FF00109CDF81890079408942946E0
:10042800384601F0C3FF49F2BD13059306960794B9
:1004380029464FF0904001F0B9FF42230593CDF8CB
:1004480018900794089429464FF0904001F0AEFFA9
:1004580047F23713059306960794164E29463046F9
:1004680001F0A4FF4FF4004305930694079429462E
:10047800304601F09BFF4FF4806305930694079480
:1004880029464FF0904001F091FF4FF40063059327
:10049800CDF81880079429464FF0904001F086FF68
:1004A8000BB0BDE8F08300BF001002400008004810
:1004B800001C00480004004808B51248124B0360AD
:1004C800124B4360002383600122C26003614361D1
:1004D8008361C361036202F083F850B900210948BF
:1004E80002F0E2F840B90021064802F00AF930B9F2
:1004F80008BDFFF7CDFEF1E7FFF7CAFEF3E7FFF708
:10050800C7FEF5E7D800002000540040140D100085
:1005180008B51248124B0360124B436000238360F6
:100528000122C260036143618361C361036202F017
:1005380057F850B90021094802F0B6F840B900212F
:10054800064802F0DEF830B908BDFFF7A1FEF1E772
:10055800FFF79EFEF3E7FFF79BFEF5E78400002018
:1005680000580040140D100010B5ACB0044600212E
:100578002791289129912A912B91882205A803F087
:10058800A7FF23682F4A934204D02F4A93422DD0C5
:100598002CB010BD4023059305A801F063F910BBEA
:1005A8002A4CE36C43F00203E364E36C03F00203B8
:1005B8000193019B4FF41073279312232893002370
:1005C800299303232A9304232B9327A9204801F076
:1005D800EDFEA36D43F40013A365A36D03F40013AC
:1005E8000293029BD4E7FFF753FED9E780230593D4
:1005F80005A801F037F910BB144CE36C43F0020373
:10060800E364E36C03F002030393039B4FF440633A
:100618002793122328930023299303232A9304233F
:100628002B9327A90A4801F0C1FEA36D43F4800368
:10063800A365A36D03F480030493049BA8E7FFF765
:1006480027FED9E70054004000580040001002403F
:1006580000040048064B074A1A6000225A609A6054
:10066800DA604FF4006119615A619A61704700BFFE
:100678002C01002000280140F0B5ABB00446002151
:1006880025912691279128912991882203A803F082
:100698001FFF22682A4B9A4201D02BB0F0BD4FF4BD
:1006A800002303934FF080631F9301230493059362
:1006B80010230693072307930223089309934FF403
:1006C80080130A9303A801F0CDF8002835D11D4BFB
:1006D8001A6E42F480621A661A6E02F48062009200
:1006E800009ADA6C42F00402DA64DA6C02F004026E
:1006F8000192019ADA6C42F00802DA64DB6C03F0CA
:1007080008030293029B4FF4F8532593022426947E
:1007180000252795032628960C27299725A90A48F6
:1007280001F044FE042325932694279528962997BB
:1007380025A9064801F03AFEAFE7FFF7A9FDC6E78D
:10074800002801400010024000080048000C004842
:1007580008B50B480B4B03604FF4E13343600023AB
:100768008360C36003610C2242618361C3610362D9
:10077800436203F0F3FC00B908BDFFF789FDFBE70E
:10078800B001002000380140F0B5ABB004460021AC
:1007980025912691279128912991882203A803F071
:1007A80097FE2268224B9A4201D02BB0F0BD01235C
:1007B800039303A801F056F8002836D11D4B1A6E92
:1007C80042F480421A661A6E02F480420092009A3D
:1007D800DA6C42F00102DA64DA6C02F0010201928A
:1007E800019ADA6C42F00202DA64DB6C03F002036D
:1007F8000293029B4FF4007325930224269400254C
:100808002795032628960727299725A94FF0904072
:1008180001F0CCFD802325932694279528962997C7
:1008280025A9054801F0C2FDBFE7FFF731FDC5E77F
:10083800003801400010024000040048FEE7FEE7CF
:10084800FEE7FEE7FEE770477047704708B500F01F
:1008580045F908BD82B00A4B1A6E42F001021A66C9
:100868001A6E02F001020092009A9A6D42F08052CC
:100878009A659B6D03F080530193019B02B070470A
:100888000010024008B50349034803F0D1FC034BAC
:10089800187008BD38020020784F00083C0200207C
:1008A80000B583B0009313460A460146034802F098
:1008B800E5FC00B1012003B000BD00BF2C01002001
:1008C80000B583B0009313460A460146034802F078
:1008D800F7FD00B1012003B000BD00BF2C010020CE
:1008E80008B5034803F05BF9043818BF012008BDB8
:1008F8002C01002008B50146014803F095F808BD11
:100908002C01002000B583B001238DF8073000F0DA
:10091800A1F808B98DF807009DF8070003B000BDDD
:1009280038B5FFF7EFFF012803D002231C46204605
:1009380038BD0546074803F009F904460028F6D1F2
:100948004FF40061034803F081F80028EFD02C46EB
:10095800EDE700BF2C01002008B5074B01221A70F3
:10096800FFF7BEFF20B9044A137803F0FE031370A3
:10097800014B187808BD00BF0000002010B50446E0
:10098800074B01221A70FFF7CBFF10B1044B187800
:1009980010BD2046FFF7E0FF014B1870F6E700BFD7
:1009A8000000002008B5FFF7D7FF08BD08B50846C6
:1009B80011461A464FF0FF33FFF772FF30B9FFF7C1
:1009C8008FFF03460028FAD1184608BD0123FBE72C
:1009D80008B5084611461A464FF0FF33FFF770FF77
:1009E80030B9FFF77DFF03460028FAD1184608BD45
:1009F8000123FBE730B589B0154B187810F00104D6
:100A08001FD11546022916D00AD8F1B1012905D1FE
:100A18006846FFF76FFF069B2B6013E0042411E084
:100A2800032906D16846FFF765FF079B5B0A2B6021
:100A380008E0042406E06846FFF75CFF079B2B806C
:100A480000E00324204609B030BD0C46FAE700BF99
:100A58000000002008B54FF480614FF0904001F08D
:100A6800B3FD08B9012008BD0020FCE7104B1B7836
:100A78000BB90120704710B504460E4A10684FF4B0
:100A88007A72B2FBF3F3B0FBF3F001F00FFF68B931
:100A98000F2C01D901200AE0024621464FF0FF3011
:100AA80001F0F4FE044B1C60002000E0012010BDA2
:100AB80001000020080000200400002010B50320D9
:100AC80001F0D2FE0F20FFF7D1FF18B101231C4619
:100AD800204610BD0446FFF7BDFEF9E7034B1B781F
:100AE800034A11680B441360704700BF01000020DF
:100AF80040020020014B1868704700BF40020020E8
:100B080038B50446FFF7F6FF0546B4F1FF3F02D0BB
:100B1800044B1B781C44FFF7EDFF401BA042FAD39F
:100B280038BD00BF0100002030B583B00546204B1A
:100B38009B6D13F0805F0BD001F00EFEB0F5007FC7
:100B480017D0802D1FD82DD0702D2DD000211BE05F
:100B5800174CA36D43F08053A365A36D03F0805336
:100B68000193019B01F0F8FDA36D23F08053A36569
:100B7800E4E7802D03D9A02D03D9022104E0002148
:100B880002E0012100E003210A4A136823F0070369
:100B98000B431360136803F007038B4206D1002050
:100BA80003B030BD0221EFE70121EDE70120F7E7AF
:100BB8000010024000200240254A9368D26802F0E3
:100BC800030213F00C0309D00C2B05D0042B3BD0E7
:100BD800082B3BD000200FE0012AF7D11C4A1268ED
:100BE80012F0080F0CD11A4AD2F89420C2F303224B
:100BF800184951F8220013B10C2B06D00020704779
:100C0800134A1268C2F30312F2E7114BDB6803F0D0
:100C18000303022B16D0032B00D10F480C49CA68D6
:100C2800C2F302120132CB68C3F3062300FB03F3BD
:100C3800B3FBF2F3C868C0F3416001304000B3FB76
:100C4800F0F070470548E9E70448704702487047E4
:100C5800001002408C4F000800127A000024F400B3
:100C6800002800F0F382F0B583B00446964B9D68E7
:100C780005F00C05DB6803F003031E46036813F058
:100C8800100F5AD0E5B10C2D18D0A369002B00F035
:100C9800BB808D4A136843F001031360FFF72AFFF6
:100CA8000746894B1B6813F0020F40F09A80FFF744
:100CB80021FFC01B0228F4D90320D2E2012EE4D17F
:100CC800814B1B6813F0020F03D0A369002B00F0BF
:100CD800BF82206A7C4B1B6813F0080F5BD07A4BED
:100CE8001B6803F0F00398425CD8774B1A6842F00F
:100CF80008021A601A6822F0F002216A0A431A6090
:100D08005A6822F47F42E16942EA01225A60002DC2
:100D180060D0FFF751FF6C4B9B68C3F303136B4A1A
:100D2800D35C03F01F03D840694B1860694B1868FF
:100D3800FFF79CFE002840F09482236813F0010F0F
:100D480000F08180082D75D00C2D71D06368B3F543
:100D5800803F00F09780B3F5A02F00F099805A4BA0
:100D68001A6822F480321A601A6822F480221A6003
:100D78006368002B00F09980FFF7BCFE0746524BD2
:100D88001B6813F4003F5ED1FFF7B4FEC01B642854
:100D9800F5D9032065E24C4BD3F894301B0903F0D6
:100DA800F003A0E7FFF7C0FE002840F05382464B4F
:100DB8001A6842F008021A601A6822F0F002216AE2
:100DC8000A431A605A6822F47F42E16942EA012222
:100DD8005A609EE7206AFFF7A7FE002899D00120F5
:100DE8003FE2394B1A6842F008021A601A6822F08A
:100DF800F002216A0A431A605A6822F47F42E169C4
:100E080042EA01225A6098E72F4A136823F0010347
:100E18001360FFF76FFE07462B4B1B6813F0020F9A
:100E28008BD0FFF767FEC01B0228F5D9032018E214
:100E3800032E8BD1244B1B6813F4003F03D0636847
:100E4800002B00F00982236813F0020F57D0042DFD
:100E580044D00C2D40D0E368002B76D01A4A136892
:100E680043F480731360FFF745FE0646164B1B6874
:100E780013F4806F60D1FFF73DFE801B0228F5D97F
:100E88000320EEE1104A136843F4803313606FE7E0
:100E980003F18043A3F53C331A6842F480221A60B8
:100EA8001A6842F480321A6062E7FFF723FE0746A9
:100EB800054B1B6813F4003FC5D0FFF71BFEC01B92
:100EC8006428F5D90320CCE100100240C44F000883
:100ED8000800002004000020022EBCD1A44B1B688F
:100EE80013F4806F03D0E368002B00F0B781A04AA9
:100EF800536823F0F853216943EA01635360236878
:100F080013F0080F4CD063699BB3994AD2F8943018
:100F180043F00103C2F89430FFF7ECFD0646944B0A
:100F2800D3F8943013F0020F3AD1FFF7E3FD801B9A
:100F38000228F4D9032094E18D4A536823F0F8532A
:100F4800216943EA01635360D9E7894A136823F4A6
:100F580080731360FFF7CEFD0646854B1B6813F4BC
:100F6800806FCCD0FFF7C6FD801B0228F5D903207F
:100F780077E17F4AD2F8943023F00103C2F8943025
:100F8800FFF7B8FD06467A4BD3F8943013F0020FFA
:100F980006D0FFF7AFFD801B0228F4D9032060E1DB
:100FA800236813F0040F7CD0714B9B6D13F0805FA6
:100FB80037D16F4B9A6D42F080529A659B6D03F062
:100FC80080530193019B01231F466A4B1B6813F44E
:100FD800807F29D0A368012B3AD0052B40D0644BE1
:100FE800D3F8902022F00102C3F89020D3F8902083
:100FF80022F00402C3F89020A368002B3ED0FFF72C
:1010080079FD06465A4BD3F8903013F0020F47D1BA
:10101800FFF770FD801B41F288339842F2D9032014
:101028001FE100231F46D0E7524A136843F4807338
:101038001360FFF75FFD06464E4B1B6813F4807F75
:10104800C8D1FFF757FD801B0228F5D9032008E116
:10105800474AD2F8903043F00103C2F89030CBE70A
:10106800434BD3F8902042F00402C3F89020D3F801
:10107800902042F00102C3F89020BDE7FFF73AFD47
:1010880006463B4BD3F8903013F0020F08D0FFF719
:1010980031FD801B41F288339842F2D90320E0E009
:1010A800EFB9A36A002B00F0DB80022B1DD00C2DBA
:1010B80000F0DD802E4A136823F080731360FFF779
:1010C80019FD04462A4B1B6813F0007F00F0B78017
:1010D800FFF710FD001B0228F4D90320C1E0244AC1
:1010E800936D23F080539365DBE7214BDB6803F0B6
:1010F8000301E26A91420FD00C2D00F0B4801C4B22
:101108001B6813F0806F40F0B080194B1B6813F018
:10111800805F31D00120A4E003F07002216B013917
:10112800B2EB011FE8D103F4FE42616BB2EB012F71
:10113800E2D103F40031A26B073A18BF01229142B1
:10114800DAD103F4C001E26B5208013AB1EB425F15
:10115800D2D103F0C063226C5208013AB3EB426F5C
:10116800CAD1034B1B6813F0007F4ED0002078E0F3
:1011780000100240007000403E4A136823F080735C
:101188001360FFF7B7FC05463A4B1B6813F0007F66
:1011980006D0FFF7AFFC401B0228F5D9032060E01A
:1011A800344AD36834491940E36A206B013843EA6A
:1011B8000013606B43EA0023E06B4008013843EA00
:1011C8004053206C4008013843EA4063A06B000993
:1011D80043EA40431943D160136843F080731360B6
:1011E800D36843F08073D360FFF784FC0446214B37
:1011F8001B6813F0007F06D1FFF77CFC001B022858
:10120800F5D903202DE000202BE01A4B1A6842F094
:1012180080721A60DA6842F08072DA60FFF76AFC5E
:101228000446144B1B6813F0007F06D1FFF762FCDD
:10123800031B022BF5D9032013E0002011E00D4A0F
:10124800D1680E4B0B40D36000200AE001207047A4
:10125800012006E0012004E0012002E0012000E076
:10126800184603B0F0BD0120FBE70120F9E7012093
:10127800F7E700BF001002408C809DF9FCFFEEFEEE
:10128800002800F0AF8070B50D460446594B1B6826
:1012980003F007038B420BD2564A136823F0070367
:1012A8000B431360136803F007038B4240F09C80E4
:1012B800236813F0020F0CD0A2684F4B9B6803F011
:1012C800F0039A4205D94C498B6823F0F0031A437E
:1012D8008A60236813F0010F39D06368032B09D0A3
:1012E800022B26D063BB444A126812F0020F06D1C3
:1012F800012076E0404A126812F0007F76D03E491D
:101308008A6822F0030213438B60FFF7F3FB06465B
:10131800394B9B6803F00C036268B3EB820F16D05D
:10132800FFF7E8FB801B41F288339842F0D903208D
:1013380057E0314A126812F4003FE0D1012050E032
:101348002D4A126812F4806FD9D1012049E0236830
:1013580013F0020F0CD0A268274B9B6803F0F00330
:101368009A4205D224498B6823F0F0031A438A6015
:10137800204B1B6803F00703AB420AD91D4A1368C8
:1013880023F007032B431360136803F00703AB42F2
:101398002ED1236813F0040F06D0174A936823F45C
:1013A800E063E1680B439360236813F0080F07D0EC
:1013B800114A936823F46053216943EAC103936097
:1013C800FFF7FAFB0C4B9B68C3F303130B4AD35C80
:1013D80003F01F03D8400A4B18600A4B1868FFF740
:1013E80045FB70BD012070470120FAE70120F8E7AE
:1013F8000120F6E70020024000100240C44F000818
:101408000800002004000020014B1868704700BF46
:101418000800002008B5FFF7F7FF054B9B68C3F3EA
:101428000223044AD35C03F01F03D84008BD00BF61
:1014380000100240BC4F000808B5FFF7E5FF054B58
:101448009B68C3F3C223044AD35C03F01F03D8404C
:1014580008BD00BF00100240BC4F0008B0F5006F87
:101468002BD0B0F5805F32D00023B3F5000F38D011
:10147800B3F1007F35D0002B54D103F1804303F53D
:101488000433186810F0006053D0186910F48030E5
:101498004FD01A46D868C0F302100130B1FBF0F102
:1014A8001B69C3F30623126912F4003F38D01122D6
:1014B80003FB01F0B0FBF2F070472E4BD3F88830F5
:1014C80003F44003B3F5400FCFD12B487047294BA5
:1014D800D3F8883003F04073B3F1407FC5D1264874
:1014E8007047244B186810F0007022D0D86810F4A8
:1014F80080301ED01A46D868C0F302100130B1FB04
:10150800F0F1DB68C3F30623D26812F4003F05D07C
:10151800112203FB01F0B0FBF2F070470722F8E755
:101528000722C5E7B3F5800F04D0B3F1807F01D05F
:10153800002070470F4B186810F00050F9D0586918
:1015480010F48030F5D01A46D868C0F30210013084
:10155800B1FBF0F15B69C3F30623526912F4003F53
:1015680005D0112203FB01F0B0FBF2F0704707220F
:10157800F8E700BF0010024068FF1F00F8B50446F6
:101588000F465F4BDB6813F0030F1BD05C4BDB6827
:1015980003F003030268934203D001231D46284643
:1015A800F8BD002A00F0A580554BDB68C3F3021391
:1015B80001334268934202D001231D46EFE700231E
:1015C8001D461AE00368022B59D0032B5FD0012B6C
:1015D80040F092804A4A126812F0020F64D04848DC
:1015E800C26822F073026168013943EA01131343A8
:1015F800C36000231D46002DD1D1414A136823F052
:1016080080631360FFF776FA06463D4B1B6813F0BC
:10161800006F06D0FFF76EFA831B022BF5D9032360
:101628001D46002DBBD1002F41D135490B6923F44C
:101638001F3323F44073A068E2681209520442EA97
:10164800002213430B612E4A136843F08063136032
:10165800FFF750FA06462A4B1B6813F0006F06D1B5
:10166800FFF748FA801B0228F5D903231D46002DF1
:1016780095D1234A1369A1690B4313618FE7204A67
:10168800126812F4806FAAD101231D4687E71C4A0D
:10169800126812F4003FA2D1194A126812F4802F7E
:1016A8009DD101231D467AE701231D46A3E7012F9B
:1016B8000FD01348026922F0C06222F4FE42A168EA
:1016C80063695B08013B5B0643EA01231A43026135
:1016D800B9E70B48026922F4C00222F4FE42A1686D
:1016E80023695B08013B5B0543EA01231A43026156
:1016F800A9E701231D4652E701231D464FE700BF16
:1017080000100240F8B504460F46554BDB6813F04D
:10171800030F1BD0524BDB6803F0030302689342AC
:1017280003D001231D462846F8BD002A00F0928008
:101738004B4BDB68C3F3021301334268934202D078
:1017480001231D46EFE700231D4619E00368022B1D
:1017580058D0032B5ED0012B7FD1414A126812F07A
:10176800020F64D03E48C26822F0730261680139F2
:1017780043EA01131343C36000231D46002DD2D151
:10178800374A136823F080531360FFF7B3F906460E
:10179800334B1B6813F0005F06D0FFF7ABF9831BD0
:1017A800022BF5D903231D46002DBCD1002F41D1B2
:1017B8002B494B6923F41F3323F44073A068E26874
:1017C8001209520442EA002213434B61244A136867
:1017D80043F080531360FFF78DF90646204B1B68D2
:1017E80013F0005F06D1FFF785F9801B0228F5D9B1
:1017F80003231D46002D96D1194A536961690B438D
:10180800536190E7164A126812F4806FAAD1012337
:101818001D4688E7124A126812F4003FA2D1104A06
:10182800126812F4802F9DD101231D467BE7012306
:101838001D46A3E70A48426922F0C06222F4FE422C
:10184800A16823695B08013B5B0643EA01231A434D
:101858004261BBE701231D4665E701231D4662E798
:10186800001002402DE9F04182B00446036813F4E9
:10187800006F38D0436EB3F5000F18D00DD84BB3B6
:10188800B3F5800F05D100212030FFF73BFF064656
:1018980025E001231F461E4628E0B3F5400F02D17C
:1018A80000231E460AE001231F461E461EE0644A26
:1018B800D36843F48033D36000231E46604AD2F8CD
:1018C800883023F44003616E0B43C2F8883000234C
:1018D8001F460BE019460430FFF750FE0646002E5F
:1018E800ECD0374602E000231F461E46236813F457
:1018F800805F32D0A36EB3F1007F21D00ED82BB316
:10190800B3F1807F06D1002104F12000FFF7FAFE31
:10191800064606E001231F461E461EE0B3F1407F3F
:101928000AD1CEB9464AD2F8883023F04073A16E66
:101938000B43C2F8883010E001231F461E460CE016
:101948003F4AD36843F48033D360EAE71946201D41
:10195800FFF714FE0646E4E73746236813F4003F12
:1019680077D0374B9B6D13F0805F52D1344B9A6D13
:1019780042F080529A659B6D03F080530193019B5E
:10198800012398462F4A136843F480731360FFF7C6
:10199800B1F805462B4B1B6813F4807F06D1FFF77F
:1019A800A9F8401B0228F5D903231E46002E4BD167
:1019B80006F1804303F50433D3F8903013F44073F1
:1019C80019D0D4F884209A4212D01D4AD2F8903007
:1019D80023F44073D2F8901041F48031C2F890108B
:1019E800D2F8901021F48031C2F89010C2F89030EB
:1019F80013F0010F10D1002E40F02981104AD2F8BF
:101A0800903023F44073D4F884100B43C2F890301C
:101A18001BE000239846B5E7FFF76CF80546084B2E
:101A2800D3F8903013F0020FE5D1FFF763F8401BAD
:101A380041F288339842F2D903231E46DBE700BF00
:101A4800001002400070004037464346002B40F02B
:101A58000081236813F0010F08D09D4AD2F888301E
:101A680023F00303A16B0B43C2F88830236813F0FB
:101A7800020F08D0964AD2F8883023F00C03E16BA5
:101A88000B43C2F88830236813F0040F08D0904A3B
:101A9800D2F8883023F03003216C0B43C2F8883029
:101AA800236813F0080F08D0894AD2F8883023F049
:101AB800C003616C0B43C2F88830236813F0100F21
:101AC80008D0834AD2F8883023F44073A16C0B43C2
:101AD800C2F88830236813F0200F08D07C4AD2F867
:101AE800883023F44063E16C0B43C2F888302368E4
:101AF80013F4007F08D0764AD2F8883023F44023C4
:101B0800E16D0B43C2F88830236813F4806F08D066
:101B18006F4AD2F8883023F44013216E0B43C2F881
:101B28008830236813F0400F08D0694AD2F888300B
:101B380023F44053216D0B43C2F88830236813F017
:101B4800800F08D0624AD2F8883023F44043616D90
:101B58000B43C2F88830236813F4807F08D05C4AAE
:101B6800D2F8883023F44033A16D0B43C2F8883093
:101B7800236813F4005F0FD0554AD2F8883023F059
:101B88004063E16E0B43C2F88830E36EB3F1006F37
:101B980065D0B3F1806F67D0236813F4002F0FD09E
:101BA8004B4AD2F8883023F04063216F0B43C2F8C8
:101BB8008830236FB3F1006F5ED0B3F1806F60D0CF
:101BC800236813F4802F0FD0414AD2F8883023F0CD
:101BD8004063616F0B43C2F88830636FB3F1006FE5
:101BE80057D0B3F1806F59D0236813F4804F0FD0CA
:101BF800374AD2F8883023F04053A16F0B43C2F81C
:101C08008830A36FB3F1805F50D0B3F1005F55D037
:101C1800236813F4004F08D02D4AD2F8883023F0F7
:101C28008043E16F0B43C2F88830236813F4803F88
:101C380009D0274AD2F8883023F00043D4F880101E
:101C48000B43C2F88830384602B0BDE8F081374609
:101C5800FBE61F4A936D23F080539365F9E6D3683A
:101C680043F48013D36097E70121201DFFF786FC1A
:101C7800002891D007468FE7D36843F48013D360D8
:101C88009EE70121201DFFF779FC002898D0074620
:101C980096E7D36843F48013D360A5E70121201D9C
:101CA800FFF76CFC00289FD007469DE70221201D06
:101CB800FFF764FC0028ABD00746A9E7022104F12E
:101CC8002000FFF71FFD0028A2D00746A0E700BFAD
:101CD8000010024008B5B0F5003F1AD0A54BDB68EC
:101CE80003F00303022B45D0032B4AD0012B4FD11D
:101CF800A04B196811F002014BD01B6813F0080FB4
:101D080032D09C4B1B68C3F303139B4A52F8231031
:101D18003FE0984BD3F8903003F44073B3F5007F5D
:101D280010D0B3F5407F17D0B3F5807F40F03083F3
:101D3800904BD3F8900010F0020000F02A834FF483
:101D4800004026E38B4BD3F8940010F0020000F01B
:101D580020834FF4FA401CE3864B186810F40030D7
:101D680000F01783854814E3824BD3F89430C3F30B
:101D78000323CAE77F4B196811F4806109D08049B1
:101D880007E07C4B196811F4003102D07D4900E06E
:101D98000021B0F5807F00F0848257D8102800F029
:101DA800B98134D8042800F0718119D8012800F0CD
:101DB8002981022812D16F4BD3F8883003F00C0325
:101DC800082B00F05B8100F24881002B00F0538162
:101DD800042B40F04081FEF7EFFEDAE20020D8E263
:101DE800082812D1634BD3F8883003F0C003802B46
:101DF80000F0888100F27581002B00F08081402B73
:101E080040F06D81FEF7D8FEC3E20020C1E2402811
:101E180000F01082802800F02982202814D1554B28
:101E2800D3F8883003F44063B3F5006F00F0B28153
:101E380000F29E81002B00F0AA81B3F5806F40F07C
:101E48009581FEF7B9FEA4E20020A2E2B0F5805F1A
:101E580073D010D9B0F5004F00F0878233D9B0F5B0
:101E6800803F4BD1434BD3F88830002BC0F2DB8145
:101E7800FFF7E2FA8DE2B0F5806F00F04682B0F528
:101E8800006F55D0B0F5007F1BD13A4BD3F888309E
:101E980003F44023B3F5002F00F0308200F21D82D6
:101EA800002B00F02882B3F5802F40F01482314BCC
:101EB800D3F8940010F0020000F06B824FF4FA405F
:101EC80067E2002065E2B0F5005F1FD0B0F5804FF3
:101ED80012D1284BD3F8883003F04053B3F1005F98
:101EE80000F08281B3F1405F00F05C81B3F1805F64
:101EF80000F05B8100204CE200204AE2C0F04A82F8
:101F0800B0F5802F02D0B0F5002F0FD1194BD3F8C0
:101F1800883003F04063B3F1006F35D0B3F1406F00
:101F280010D0B3F1806F4ED0002032E2002030E2B2
:101F38004FF40060FFF792FA2BE24FF48050FFF75E
:101F48008DFA26E20B4B186810F0020000F021828F
:101F58001B6813F0080F07D0064B1B68C3F3031365
:101F6800054A52F8230014E2024BD3F89430C3F325
:101F78000323F5E7001002408C4F000890D00300BF
:101F88000024F40000127A00A84B186810F00070C2
:101F980000F0FF81D86810F4801000F0FA811A462A
:101FA800DB68C3F3062303FB01F0D368C3F3021312
:101FB8000133B0FBF3F0D368C3F3415301335B0043
:101FC800B0FBF3F0E5E1994B186810F0006000F001
:101FD800E081186910F4801000F0DB811A461B6953
:101FE800C3F3062303FB01F0D368C3F302130133E1
:101FF800B0FBF3F01369C3F3415301335B00B0FB4B
:10200800F3F0C6E1894BD3F8883003F00303022BC1
:1020180019D007D8A3B1012B02D1FEF7CDFDB8E145
:102028000020B6E1032B09D1804BD3F8900010F0C3
:10203800020000F0AE814FF40040AAE10020A8E1C0
:10204800FFF7FAF9A5E1794B186810F4806000F001
:10205800A08177489DE100209BE10C2B09D1734BAF
:10206800D3F8900010F0020000F093814FF4004084
:102078008FE100208DE1FFF7CDF98AE16B4B1868FD
:1020880010F4806000F08581694882E1674BD3F8DD
:10209800883003F03003202B19D007D8A3B1102BB8
:1020A80002D1FEF789FD74E1002072E1302B09D1DD
:1020B8005E4BD3F8900010F0020000F06A814FF4F4
:1020C800004066E1002064E1FFF7A4F961E1574BA5
:1020D800186810F4806000F05C81554859E10020D0
:1020E80057E1C02B09D1514BD3F8900010F00200F2
:1020F80000F04F814FF400404BE1002049E1FFF729
:1021080089F946E1494B186810F4806000F0418174
:1021180047483EE1454BD3F8883003F44073B3F5A4
:10212800007F1BD008D8B3B1B3F5807F02D1FEF78A
:1021380043FD2EE100202CE1B3F5407F09D13B4B54
:10214800D3F8900010F0020000F023814FF4004013
:102158001FE100201DE1FFF75DF91AE1334B186814
:1021680010F4806000F01581314812E1002010E180
:10217800B3F5406F09D12D4BD3F8900010F0020051
:1021880000F007814FF4004003E1002001E1FFF770
:1021980041F9FEE0254B186810F4806000F0F980E2
:1021A8002348F6E0FEF708FDF3E0204B186810F02E
:1021B800006000F0EE80186910F0807000F0E9808F
:1021C8001A461B69C3F3062303FB01F0D368C3F364
:1021D80002130133B0FBF3F01369C3F34163013316
:1021E8005B00B0FBF3F0D4E0104B186810F000501F
:1021F80000F0CF80586910F0807000F0CA8018464F
:102208005B69C3F3062301FB03F3C268C2F302123E
:102218000132B3FBF2F34069C0F341600130400082
:10222800B3FBF0F0B5E0FEF7C7FCB2E000100240E7
:102238000024F4005B4BD3F8883003F44053B3F523
:10224800805F08D0B3F5005F08D0002B40F0A48071
:10225800FFF7E0F89DE0FEF7AFFC9AE0514B1868F5
:1022680010F4806000F095804F4892E04D4BD3F811
:10227800883003F44043B3F5804F08D0B3F5004FDE
:1022880008D0002B40F08A80FFF7C4F881E0FEF701
:1022980093FC7EE0434B186810F4806079D0424884
:1022A80077E0404BD3F8883003F44033B3F5803FF0
:1022B80007D0B3F5003F07D0002B71D1FFF7AAF87C
:1022C80067E0FEF779FC64E0364B186810F480602C
:1022D8005FD035485DE000205BE0B3F5402F08D1C2
:1022E800304BD3F8900010F0020052D04FF4004069
:1022F8004FE000204DE0FFF78DF84AE0294B1868C1
:1023080010F4806045D0284843E0264BD3F8883045
:1023180003F44013B3F5001F20D00ED8DBB1B3F59A
:10232800801F08D11F4BD3F8940010F0020030D062
:102338004FF4FA402DE000202BE0B3F5401F08D100
:10234800184BD3F8900010F0020022D04FF4004050
:102358001FE000201DE0FFF75DF81AE0114B186838
:1023680010F4806015D0104813E00E4BD3F8883075
:1023780013F0804302D023B918460AE0FFF74AF861
:1023880007E0084B186810F4806002D0064800E0A7
:10239800002008BD0020FCE70020FAE70020F8E74D
:1023A8000020F6E7001002400024F40070B582B067
:1023B800002374E085684FEA430E032404FA0EF400
:1023C80025EA0405CC6804FA0EF42C4384604468BA
:1023D80024EA0C044D68C5F3001E0EFA03FE4EEA0B
:1023E8000404446070E0C46A24EA0C04C5F3C00E17
:1023F8000EFA03FE4EEA0404C4626AE0DD080835FA
:1024080050F8254003F0070C4FEA8C0C4FF00F0EE4
:102418000EFA0CFE24EA0E0E0C6904FA0CF444EAD7
:102428000E0440F825406FE0062400E0002404FA7A
:102438000EF42C430CF1020C5F4D45F82C405F4C18
:10244800A4686FEA020C24EA02054E6816F4801F9D
:1024580001D042EA0405594CA560E4680CEA040579
:102468004E6816F4001F01D042EA0405534CE5609B
:1024780064680CEA04054E6816F4003F01D042EA8D
:1024880004054E4C656024680CEA04054E6816F491
:10249800803F01D042EA0405484A156001330A68C2
:1024A80032FA03F400F086804FF0010C0CFA03FCBA
:1024B8001CEA0202F2D04C6804F0030E0EF1FF3E53
:1024C800BEF1010F7FF676AF4D6805F00304032CCB
:1024D80089D04C6804F0030CBCF1030F0DD0C4681C
:1024E8005D004FF0030C0CFA05FC24EA0C048E681E
:1024F80006FA05FC4CEA0404C4604C6804F0030CBA
:10250800BCF1020F3FF47AAF05685C004FF0030C92
:102518000CFA04FC25EA0C0E4D6805F0030C0CFAC5
:1025280004FC4CEA0E0404604C6814F4403FB5D037
:10253800234C256E45F001052566246E04F0010440
:102548000194019C4FEA930C0CF102051A4C54F8C3
:10255800255003F0030E4FEA8E0E0F2404FA0EF4F2
:1025680025EA0405B0F1904F3FF460AF154CA04246
:1025780016D004F58064A04214D004F58064A0420B
:1025880012D004F58064A04210D004F58064A04203
:102598000ED004F58064A0423FF446AF072446E716
:1025A800012444E7022442E7032440E704243EE7E9
:1025B80005243CE702B070BD000001400004014062
:1025C80000100240000400480369194201D00120AC
:1025D8007047002070470AB1816170478162704777
:1025E80000285FD010B5044690F84130002B48D041
:1025F800242384F841302268136823F00103136010
:102608006368226823F0706313612268936823F477
:1026180000439360E368012B38D0A368226843F431
:1026280004439360E368022B36D02268536823F48E
:10263800006353602268536843F0007343F4004317
:1026480053602268D36823F40043D3602369626926
:102658001343A169226843EA0123D360E369216A2D
:1026680022680B4313602268136843F00103136068
:1026780000206064202384F84130206384F84200FD
:1026880010BD80F84030FDF76FFFB1E7A3682268FE
:1026980043F400439360C5E72268536843F400633A
:1026A8005360C7E701207047034690F84120202A6D
:1026B80023D190F84020012A21D0012280F840201F
:1026C800242280F841200068026822F0010202609A
:1026D8001868026822F480520260186802680A4387
:1026E800026019680A6842F001020A60202283F831
:1026F8004120002083F840007047022070470220E4
:102708007047034690F84120202A21D190F84020B4
:10271800012A1FD0012280F84020242280F841207D
:102728000068026822F0010202601868026822F458
:10273800706242EA0122026019680A6842F00102E6
:102748000A60202283F84120002083F84000704767
:102758000220704702207047024B186800F4C060DE
:10276800704700BF00700040B0F5007F0FD01F4BCE
:102778001B6803F4C063B3F5806F34D01B4A136839
:1027880023F4C06343F48063136000207047174B41
:102798001B6803F4C063B3F5007F20D0134A1368A5
:1027A80023F4C06343F400731360114B1B68322297
:1027B80002FB03F30F4AA2FB03239B0C013300E047
:1027C800013B0A4A526912F4806F01D0002BF7D1FD
:1027D800064B5B6913F4806F03D10020704700201B
:1027E8007047032070470020704700BF007000400A
:1027F8000800002083DE1B43002808DB0901C9B25A
:1028080000F1604000F5614080F80013704700F067
:102818000F000901C9B2014B1954704714ED00E0CB
:1028280000B500F00700A0F1030CBCF1040F07D8B5
:10283800C0F1070E0430062806D84FF0000C03E05C
:102848004FF0040E4FF0000C4FF0FF3303FA0EF078
:1028580021EA000101FA0CF103FA0CF322EA03025F
:1028680041EA020000BD0000074AD36823F4E06390
:102878001B041B0C000200F4E060034343F0BF6339
:1028880043F40033D360704700ED00E010B5044610
:10289800054BD868C0F30220FFF7C2FF0146204667
:1028A800FFF7AAFF10BD00BF00ED00E00138B0F14E
:1028B800807F0BD24FF0E0235861054AF02182F85F
:1028C80023100020986107221A6170470120704781
:1028D80000ED00E00C4B1B680C4AA2FB03235B0ACB
:1028E80041F2883202FB03F3013BB3F1FF3F07D00B
:1028F800426B12F0800FF7D0C52383630020704726
:102908004FF00040704700BF08000020D34D621010
:1029180084B00DF1040C8CE80E000B46039A1343A7
:10292800049A1343059A1343069A1343029A1A43C7
:10293800436823F4FD4323F07F03134343600020DF
:1029480004B07047D0F8800070470B68C0F880303A
:102958000020704708B5032303600220FEF7D0F873
:10296800002008BD006800F0030070470B68836012
:102978004B688A681343CA6813430A691343C268D9
:102988006FF30B021343C360002070470069C0B2A5
:1029980070471430405870470B6843624B68836235
:1029A8008B68CA6813430A6913434A691343C26AA6
:1029B80022F0F7021343C3620020704710B586B0B7
:1029C8000446002301930293039304934FF4806316
:1029D800059301A9FFF7CAFF2046FFF77BFF06B062
:1029E80010BD000038B504460D46504B1B685049D1
:1029F800A1FB03135B0A03FB02F2013AB2F1FF3FAA
:102A08005DD0636B13F0450FF7D013F4006FF4D16A
:102A1800636B13F0040F06D1606B10F0010005D052
:102A28000123A3634DE00420A0634AE0C523A36308
:102A38002046FFF7ABFFA84201D0012041E000216A
:102A48002046FFF7A6FF03463A481840C8B3002BB4
:102A580038DB13F0804F38D113F0005F37D113F013
:102A6800805F36D113F0006F36D113F0806F36D106
:102A780013F0807F36D113F4000F36D113F4800F92
:102A880036D113F4001F36D113F4801F36D113F456
:102A9800802F36D113F4003F36D113F4803F36D15E
:102AA80013F4004F36D113F4804F36D113F4005F7E
:102AB80036D113F0080F36D04FF4000001E04FF084
:102AC800004038BD4FF00070FBE74020F9E7802058
:102AD800F7E74FF48070F4E74FF40070F1E74FF434
:102AE8008060EEE74FF40060EBE74FF48050E8E7D2
:102AF8004FF40050E5E74FF48040E2E74FF4004020
:102B0800DFE74FF40030DCE74FF48020D9E74FF4DB
:102B18000020D6E74FF48010D3E74FF40010D0E739
:102B28004FF48000CDE74FF48030CAE7080000205A
:102B3800D34D621008E0FFFD30B587B0054601911E
:102B48001024029440230393002304934FF48063DA
:102B5800059301A9FFF70AFF41F28832214628466A
:102B6800FFF740FF07B030BD30B587B0054601918B
:102B78001124029440230393002304934FF48063A9
:102B8800059301A9FFF7F2FE41F288322146284653
:102B9800FFF728FF07B030BD30B587B00546019173
:102BA8001224029440230393002304934FF4806378
:102BB800059301A9FFF7DAFE41F28832214628463B
:102BC800FFF710FF07B030BD30B587B0054601915B
:102BD8001824029440230393002304934FF4806342
:102BE800059301A9FFF7C2FE41F288322146284623
:102BF800FFF7F8FE07B030BD30B587B00546019144
:102C08001924029440230393002304934FF4806310
:102C1800059301A9FFF7AAFE41F28832214628460A
:102C2800FFF7E0FE07B030BD30B587B0054600239A
:102C380001930C2402944022039204934FF480637E
:102C4800059301A9FFF792FE034A21462846FFF79C
:102C5800C9FE07B030BD00BF00E1F50530B587B04B
:102C6800054601920724029440230393002304930A
:102C78004FF48063059301A9FFF778FE41F288328B
:102C880021462846FFF7AEFE07B030BD30B587B005
:102C980005460191372402944023039300230493AB
:102CA8004FF48063059301A9FFF760FE41F2883273
:102CB80021462846FFF796FE07B030BD30B587B0ED
:102CC80005460191062402944023039300230493AC
:102CD8004FF48063059301A9FFF748FE41F288325B
:102CE80021462846FFF77EFE07B030BD30B587B0D5
:102CF800054600230193332402944022039204934F
:102D08004FF48063059301A9FFF730FE41F2883242
:102D180021462846FFF766FE07B030BD30B587B0BC
:102D2800054601910D240294402303930023049344
:102D38004FF48063059301A9FFF718FE41F288322A
:102D480021462846FFF74EFE07B030BD0146144B1A
:102D58001B68144AA2FB03235B0A41F2883202FB78
:102D680003F3013BB3F1FF3F17D04A6B12F0450F55
:102D7800F7D012F4006FF4D14B6B13F0040F06D1A7
:102D8800486B10F0010005D1C5238B637047042000
:102D98008863704701238B6370474FF0004070478A
:102DA80008000020D34D621010B586B004460023F9
:102DB800019302220292C022039204934FF480638B
:102DC800059301A9FFF7D2FD2046FFF7BFFF06B024
:102DD80010BD10B586B00446019109230293C023A3
:102DE8000393002304934FF48063059301A9FFF72D
:102DF800BDFD2046FFF7AAFF06B010BD0146114BE6
:102E08001B68114AA2FB03235B0A41F2883202FBCA
:102E180003F3013BB3F1FF3F10D04A6B12F0450FAB
:102E2800F7D012F4006FF4D1486B10F0040002D10F
:102E3800C5238B6370470420886370474FF00040B8
:102E4800704700BF08000020D34D621010B586B04F
:102E5800044641F0004141F4801101912923029375
:102E680040230393002304934FF48063059301A93F
:102E7800FFF77CFD2046FFF7C1FF06B010BD00003C
:102E880070B504460D461646244B1B68244AA2FB1F
:102E980003235B0A41F2883202FB03F3013BB3F1DF
:102EA800FF3F31D0626B12F0450FF7D012F4006F7C
:102EB800F4D1636B13F0040F06D1606B10F00100BE
:102EC80005D00123A36321E00420A0631EE020466F
:102ED800FFF75CFDA84201D0012017E0C523A363DA
:102EE80000212046FFF755FD034610F4604008D046
:102EF80013F4804F0BD113F4004F0BD04FF48050D4
:102F080004E01B0C338001E04FF0004070BD4FF42B
:102F18000050FBE74FF48030F8E700BF08000020BE
:102F2800D34D621070B586B006460D460023019356
:102F3800032402944022039204934FF48063059380
:102F480001A9FFF713FD2A4621463046FFF798FFEF
:102F580006B070BD0146174B1B68174AA2FB032336
:102F68005B0A41F2883202FB03F3013BB3F1FF3FF6
:102F78001BD04A6B12F0450FF7D012F4006FF4D152
:102F88004B6B13F0040F0AD1486B10F0010009D104
:102F98004B6B13F040030BD040238B637047042026
:102FA8008863704701238B6370474FF00040704778
:102FB8001846704708000020D34D621010B586B03F
:102FC80004464FF4D57301930823029340230393D7
:102FD800002304934FF48063059301A9FFF7C6FC0F
:102FE8002046FFF7B7FF06B010BD000070B582B0ED
:102FF8000446002301930068FFF7E0FC064610B181
:10300800304602B070BD2068FFF7D8FF38B90123F9
:10301800A364A36C012B0BD03046354615E0002382
:10302800A3642068FFF7CAFC0028F2D00646E7E749
:1030380000212068FFF72AFE0028EDD04FF08053CA
:103048001E46DDE7019B01330193019A4FF6FE739B
:103058009A4213D895B929462068FFF717FEE0B9B8
:1030680013492068FFF7F2FE0546C0B901462068FB
:10307800FFF78FFCC30FE5D01D46E3E7019A4FF633
:10308800FE739A420FD810F0804302D00123636484
:10309800B6E7002262641E46B2E70646B0E74FF084
:1030A80080531E46ACE74FF080731E46A8E700BF6A
:1030B800000010C1F0B589B004460F46FDF71AFDAF
:1030C800064600230093019308212068FFF734FD8A
:1030D800054610B1284609B0F0BD216D09042068E5
:1030E800FFF7D4FD05460028F4D14FF0FF330293D3
:1030F80008230393302304930223059306900123A6
:10310800079302A92068FFF747FC2068FFF7EEFD48
:10311800054658B1DEE7FFF715FC4DF825000135E7
:10312800FDF7E8FC831BB3F1FF3F3FD02068436BFA
:1031380013F02A0F07D1436B13F4001FEBD1436B35
:1031480013F4005FECD1436B13F0080F25D1436BE8
:1031580013F0020F24D1456B15F0200523D140F25E
:103168003A538363019A130203F47F0343EA026329
:10317800110A01F47F410B4343EA12633B60009A52
:10318800130203F47F0343EA0263110A01F47F4147
:103198000B4343EA12637B609CE70825856399E744
:1031A8000225856396E72025856393E74FF0004560
:1031B80090E710B582B004460021009101910068A3
:1031C800FFF7E7FB10F0007F13D169462046FFF7B1
:1031D80071FF80B9019B13F4802F0ED0216D090473
:1031E8002068FFF753FD30B902212068FFF766FD1C
:1031F80001E04FF4006002B010BD4FF08060FAE7C4
:1032080010B582B004460021009101910068FFF7D3
:10321800C0FB10F0007F13D169462046FFF74AFF34
:1032280080B9019B13F4803F0ED0216D09042068FA
:10323800FFF72CFD30B901462068FFF73FFD01E09C
:103248004FF4006002B010BD4FF08060FAE770B52F
:1032580081B104460D46016D09040068FFF75EFD63
:10326800064608B1304670BD01462068FFF791FB5D
:103278002860F7E74FF000631E46F3E72DE9F04FAB
:1032880087B005460C4616469B46DDF84080FDF79C
:1032980031FC002C35D0824695F834305FFA83F93A
:1032A800012B40F001810023AB635B46F318EA6D04
:1032B80093422DD8032385F834302B680022DA6234
:1032C8006B6C012B00D076024FF0FF3300935F4602
:1032D8007B02019390230293022303930023049318
:1032E8000123059369462868FFF756FB012F14D977
:1032F80002232B6331462868FFF74EFCA0B9019FD3
:1033080027E0AB6B43F00063AB634FF00109D1E0FA
:10331800AB6B43F00073AB63CCE001232B63314606
:103328002868FFF721FCE9E72B68644A9A63AB6BCE
:103338000343AB63012385F8343000232B63B9E0E2
:10334800FDF7D8FB5346C01A40451FD2B8F1000F0D
:103358001CD02868466B16F4957626D1436B13F477
:10336800004FEDD0002FEBD0072EE9D82868FFF7E3
:10337800E9FA2070C0F307236370C0F30743A37012
:10338800000EE0700434043F0136EDE72B684B4A29
:103398009A63AB6B43F00043AB63012385F8343089
:1033A80000232B634FF0030984E0436B13F4807F01
:1033B80005D05B46012B02D96B6C032B36D12B68E9
:1033C8005A6B12F0080F42D15A6B12F0020F4AD111
:1033D8005A6B12F0200F52D12868436B13F4001F68
:1033E80059D0002F57D0FFF7ADFA2070C0F307234C
:1033F8006370C0F30743A370000EE0700434043F09
:10340800FDF778FB5346C01A404502D2B8F1000FC9
:10341800E2D12B68294A9A63AB6B43F00043AB6354
:10342800012385F8343000232B6343E0FFF7FCFBCE
:1034380003460028C3D02A6820499163AA6B134326
:10344800AB63012385F8343000232B6332E01B4A39
:103458009A63AB6B43F00803AB63012385F8343000
:1034680000232B6326E0154A9A63AB6B43F00203F3
:10347800AB63012385F8343000232B631AE00F4A2D
:103488009A63AB6B43F02003AB63012385F83430B8
:1034980000232B630EE040F23A538363012385F83F
:1034A80034304FF0000905E0AB6B43F00053AB63D9
:1034B8004FF00109484607B0BDE8F08FFF0540000E
:1034C8002DE9F04F89B005460C4616469A46FDF799
:1034D80011FB002C36D0814695F834305FFA83F81A
:1034E800012B40F0DF800023AB635346F318EA6DED
:1034F80093422ED8032385F834302B680022DA62F1
:103508006B6C012B00D076024FF0FF3302935746C5
:103518007B020393902304930023059306930123CE
:10352800079302A92868FFF737FA012F16D9202335
:103538002B6331462868FFF75FFB83465B46ABB9D0
:10354800039F28E0AB6B43F00063AB634FF00108C7
:10355800AEE0AB6B43F00073AB63A9E010232B63C1
:1035680031462868FFF730FB8346E7E72B68524A65
:103578009A63AB6B5A461343AB63012385F8343027
:1035880000232B6394E0FDF7B5FA4B46C01A129B53
:10359800984223D213B32868466B16F48D762CD143
:1035A800436B13F4804FEED0002FECD0072EEAD8EF
:1035B80023780193627843EA02230193A27843EACD
:1035C80002430193E27843EA026301930434043F1F
:1035D80001A92868FFF7B9F90136E7E72B68364AE9
:1035E8009A63AB6B5A461343AB63012385F83430B7
:1035F80000232B634FF003085AE0436B13F4807FDA
:1036080005D05346012B02D96B6C032B18D12B68BC
:103618005A6B12F0080F24D15A6B12F0020F2CD1FA
:103628005A6B12F0100F34D0234A9A63AB6B43F0F5
:103638001003AB63012385F8343000232B6337E094
:10364800FFF7F2FA03460028E1D02A681A49916385
:10365800AA6B1343AB63012385F8343000232B6333
:1036680026E0154A9A63AB6B43F00803AB6301236A
:1036780085F8343000232B631AE00F4A9A63AB6B4A
:1036880043F00203AB63012385F8343000232B6336
:103698000EE040F23A529A63012385F834304FF035
:1036A800000805E0AB6B43F00053AB634FF0010833
:1036B800404609B0BDE8F08FFF0540000346426E62
:1036C800920F0A70426EC2F383624A7090F86720C4
:1036D80002F003028A7090F86620CA7090F865209C
:1036E8000A7190F864204A71826E120DCA80B0F88F
:1036F8006A2002F00F020A72826EC2F3C0324A7266
:10370800826EC2F380328A72826EC2F34032CA720B
:10371800826EC2F300320A7300224A73426C002A96
:1037280040F08680806E40F6FC7202EA8002D86E15
:1037380042EA90720A61DA6EC2F3C2620A7593F8BD
:103748006F2002F007024A75DA6EC2F342528A7598
:10375800DA6EC2F38242CA75DA6EC2F3C2320A76F0
:103768000A6901325A65087E00F00700023082407B
:103778005A6591F808C00CF00F0C012000FA0CF003
:103788009865400A00FB02F2DA654FF400721A6687
:10379800DA6EC2F380324A76DA6EC2F3C6128A76DD
:1037A800DA6E02F07F02CA761A6FD20F0A771A6FA2
:1037B800C2F341724A771A6FC2F382628A771A6F2C
:1037C800C2F38352CA771A6FC2F3405281F820209D
:1037D800002081F82100B3F8722002F0010281F87C
:1037E80022201A6FC2F3C03281F823201A6FC2F365
:1037F800803281F824201A6FC2F3403281F82520E4
:103808001A6FC2F3003281F826201A6FC2F38122A0
:1038180081F827201A6FC2F3012281F828201B6F34
:10382800C3F3460381F82930012381F82A30704711
:10383800012A11D1826E120402F47C12B0F86E00D3
:1038480002430A610A69013292025A65DA654FF445
:1038580000729A651A669BE7026805499163826B54
:1038680042F080528263012083F83400704700BF21
:10387800FF05400010B58CB004460123ADF80230B6
:103888000068FFF76FF8002859D0636C032B34D118
:10389800636C032B4BD1636C032B1CD0BDF8021057
:1038A800216509042068FFF794FA002849D10146E8
:1038B8002068FFF76EF8606604212068FFF769F852
:1038C800A06608212068FFF764F8E0660C212068EC
:1038D800FFF75FF8206704212068FFF75AF8000D0A
:1038E800E06401A92046FFF7E9FE60BB226D1204DF
:1038F80003462068FFF7B2F923E02068FFF754FA7F
:10390800F8B901462068FFF744F860670421206889
:10391800FFF73FF8A06708212068FFF73AF8E0674B
:103928000C212068FFF735F8C4F88000B0E70DF1E6
:1039380002012068FFF7F6FA0028ACD001E04FF04A
:1039480080600CB010BD4FF08050FAE770B58AB0B7
:1039580004460023049305930693079308934FF4B2
:103968000020FEF7B7F938B9012084F834004FF089
:103978000063A3630AB070BD0546C309274AA2FBCA
:1039880003231E09B31E09930AAB13E907008DE848
:10399800070004AB0ECB2068FEF7BAFF0128E9D078
:1039A8002268536823F4807353602068FEF7D2FFBF
:1039B8002268536843F480735360B5FBF6F31848E4
:1039C800B0FBF3F00130FDF79BF82046FFF70EFB44
:1039D800024630B1012084F83400A36B1343A3637B
:1039E800C8E72046FFF746FF024630B1012084F8B9
:1039F8003400A36B1343A363BCE74FF40071206842
:103A0800FFF79AF80028B5D0236806499963A36B95
:103A18000343A363012084F83400ABE7598B4F01BB
:103A280010210100FF054000436C0B60836C4B6064
:103A3800C36C8B60036DCB60436D0B61836D4B6111
:103A4800C36D8B61036ECB610020704730B58BB0BE
:103A580004460D46032380F83430436C032B1CD0F6
:103A6800B1F5805F08D0B1F5006F0AD079B1836BEA
:103A780043F00063836314E0836B43F080538363F4
:103A88000FE0FFF796FBA36B0343A36309E0FFF77F
:103A9800B7FBA36B0343A36303E0836B43F080533B
:103AA8008363A36BD3B12368254A9A63012384F8FF
:103AB80034301D464FF400712068FFF73DF838B1E7
:103AC80023681F499963A36B0343A36301231D461E
:103AD800012384F8343028460BB030BD4FF4002061
:103AE800FEF7F8F8034620B362680492A2680592CC
:103AF800E2680692079562690892A1698A1CB0FB80
:103B0800F2F21048824212D90F4AA2FB0323DB0DBE
:103B1800023B09930AAB13E907008DE8070004ABE1
:103B28000ECB2068FEF7F4FE00231D46C2E709917C
:103B3800F0E7A36B43F00063A36301231D46B9E7D5
:103B4800FF05400040787D01893BE65518B310B564
:103B5800044690F8343043B1032384F834302046C7
:103B6800FFF7F4FE28B1012010BD0377FCF784FDB0
:103B7800F2E721692046FFF769FF08B10120F3E762
:103B880021692046FFF762FF38B9A063206301234B
:103B980084F83430E8E7012070470120E4E710B5E5
:103BA80082B004460023019301A9FFF750FB10B12E
:103BB800A36B0343A3630198C0F3432002B010BD75
:103BC800026852E8003F23F4907342E8003100296C
:103BD800F6D1026802F1080353E8003F23F001031D
:103BE800083242E800310029F3D1036E012B06D0D8
:103BF8002023C0F88030002303668366704702687C
:103C080052E8003F23F0100342E800310029F6D1C2
:103C1800EEE7000010B50446836802691343426961
:103C28001343C269134301680868914A02401A4362
:103C38000A602268536823F44053E1680B435360D9
:103C4800A16922688B4B9A4201D0236A1943936871
:103C580023F430630B4393602368874A934226D04A
:103C6800864A934236D0864A934246D0854A934242
:103C780056D0854A934266D07E4A934279D0102224
:103C88007C498B4200F0B080E069B0F5004F00F04D
:103C9800DE80022A00F03F8140F21A81042A00F0F7
:103CA8003781082A40F01C814FF400401DE102F5DD
:103CB8005842D2F8882002F00302022A70D005D8B0
:103CC800002A6FD0012A6FD10422D9E7032A6DD1C7
:103CD8000822D5E702F5E632D2F8882002F00C0275
:103CE800082A65D005D8002ACAD0042AC8D01022CC
:103CF800C6E70C2A5ED10822C2E702F5E432D2F800
:103D0800882002F03002202A56D005D8002AB7D0E1
:103D1800102A53D10422B3E7302A51D10822AFE741
:103D280002F5E232D2F8882002F0C002802A49D097
:103D380005D8002AA4D0402A46D10422A0E7C02AE8
:103D480044D108229CE702F5E032D2F8882002F438
:103D58004072B2F5007F3BD006D8002A90D0B2F569
:103D6800807F37D104228BE7B2F5407F34D1082217
:103D780086E702F5C832D2F8882002F44062B2F52C
:103D8800006F2BD007D8002A3FF47AAFB2F5806FC6
:103D980026D1042274E7B2F5406F23D108226FE7D9
:103DA80002226DE701226BE7102269E7102267E71C
:103DB800022265E7102263E7022261E710225FE72B
:103DC80010225DE702225BE7102259E7102257E72D
:103DD800022255E7102253E7102251E702224FE74B
:103DE80010224DE710224BE7042A2DD006D862B1E5
:103DF800022A01D125480CE0012085E0082A02D1D9
:103E08004FF4004005E001207EE0FDF703FB0028A9
:103E18007AD0626802EB420383427ED8B0EB023F5D
:103E28007DD8010E00025308C0184FF0000341F17D
:103E38000001FCF7A5F9A0F54072154B9A4270D81D
:103E48002368D86000205FE0FCF7B6FEDFE7022AAF
:103E58003CD005D9042A36D0082A1ED0012053E0C8
:103E6800C2B1012A02D1FDF7E7FA15E001204BE0C3
:103E7800F369FFEF00800040003801400044004033
:103E880000480040004C0040005000400024F4006E
:103E9800FFFC0F00FDF7BEFAB0B36268530803EBEE
:103EA8004003B3FBF2F3A3F110014FF6EF72914216
:103EB80039D89AB222F00F02C3F34203134322689F
:103EC800D360002020E0FCF777FEE5E71848E4E738
:103ED80042B1012A02D1FDF7AFFA05E0012013E053
:103EE800012011E0FDF796FA70B1636800EB53000A
:103EF800B0FBF3F0A0F110024FF6EF739A4214D81A
:103F0800236880B2D86000200023A366E36610BD52
:103F1800FCF752FEE8E70648E7E70120F4E701204E
:103F2800F2E70120F0E70120EEE70120ECE700BF0F
:103F38000024F400436A13F0080F06D0026853689F
:103F480023F40043416B0B435360436A13F0010FA2
:103F580006D00268536823F40033816A0B43536028
:103F6800436A13F0020F06D00268536823F48033C3
:103F7800C16A0B435360436A13F0040F06D002680A
:103F8800536823F48023016B0B435360436A13F097
:103F9800100F06D00268936823F48053816B0B439B
:103FA8009360436A13F0200F06D00268936823F4E5
:103FB8000053C16B0B439360436A13F0400F0AD060
:103FC8000268536823F48013016C0B435360036C3D
:103FD800B3F5801F0BD0436A13F0800F06D0026838
:103FE800536823F40023816C0B43536070470268C5
:103FF800536823F4C003416C0B435360EBE72DE98E
:10400800F04104460D4616469846069F2368DB692C
:1040180035EA03030CBF4FF0010C4FF0000CB44518
:1040280034D1B7F1FF3FF1D0FCF764FD4346C01A25
:10403800B8422ED87FB323681A6812F0040FE5D06F
:10404800802DE3D0402DE1D0DA6912F0080F11D1AC
:10405800DA6912F4006FD9D04FF400621A62204670
:10406800FFF7AEFD2023C4F88430002384F87830AD
:1040780003200CE008251D622046FFF7A1FDC4F8C7
:104088008450002384F87830012000E00020BDE847
:10409800F0810320FBE70320F9E730B583B004463D
:1040A8000023C0F88430FCF725FD05462268126815
:1040B80012F0080F0FD123681B6813F0040F25D1E5
:1040C8002023E367C4F8803000202066606684F807
:1040D800780003B030BD6FF07E43009303460022A2
:1040E8004FF400112046FFF78AFF0028E3D022682A
:1040F80052E8003F23F0800342E800310029F6D15E
:104108002023E36784F878100320E2E76FF07E430A
:1041180000932B4600224FF480012046FFF76FFFE3
:104128000028CDD0226852E8003F23F4907342E87B
:1041380000310029F6D1226802F1080353E8003F54
:1041480023F00103083242E800310029F3D120238B
:10415800C4F8803084F878100320BAE768B310B543
:104168000446C36F03B32423E3672268136823F06C
:1041780001031360636AE3B92046FFF74BFD01288A
:1041880011D02268536823F49043536022689368DF
:1041980023F02A0393602268136843F00103136035
:1041A8002046FFF77AFF10BD80F87830FCF7ECFA6C
:1041B800D9E72046FFF7BEFEDEE701207047000082
:1041C800034AD2F8883043F47003C2F88830704745
:1041D80000ED00E0154B5B7A33BB10B5844603F065
:1041E800FF00124B93F809E05FFA8EFE4FF00004CF
:1041F80003F80E4093F809E003EB8E0ECEF804C0E6
:1042080093F809C09C448CF808205A7A02F1010CF2
:104218005FFA8CFC83F809C030320A703A234B707D
:104228002F238B70CC7010BD0120704744020020F2
:1042380008B50022FFF7CEFF08BD0000DFF834D034
:10424800FFF7BEFF0C480D490D4A002302E0D45881
:10425800C4500433C4188C42F9D30A4A0A4C0023C8
:1042680001E013600432A242FBD300F039F9FCF7F5
:1042780043F8FEE7008001200000002068000020CD
:10428800F04F000868000020A0030020FEE70000AF
:10429800002310B50446C0E90033C0E90433836045
:1042A80081814366C2818361194608225C3000F02F
:1042B8000FF90D4B63620D4BA3620D4BE3620D4B7F
:1042C80023630D4B24629C4206D003F1680294429A
:1042D80002D0D0339C4205D104F15800BDE810400B
:1042E80000F022B910BD00BF8D460008AF46000897
:1042F800E74600080D47000850020020024A03491B
:10430800034800F06BB800BF0C00002015480008F7
:104318001C00002041680C4B994210B5044601D09E
:1043280000F074FAA168094B994202D0204600F0C7
:104338006DFAE168064B994204D02046BDE810406A
:1043480000F064BA10BD00BF50020020B80200207F
:104358002003002010B50A4B0A4A1A600A480022B6
:104368000421FFF795FF094801220921FFF790FF73
:10437800BDE81040064802221221FFF789BF00BF9E
:10438800880300200543000850020020B8020020DE
:1043980020030020014800F0C8B800BF8D030020AA
:1043A800014800F0C3B800BF8D03002010B50446D3
:1043B800FFF7F0FF236A1BB1BDE81040FFF7F0BF1D
:1043C800044B2362044B1B68002BF5D1FFF7C2FF97
:1043D800F2E700BF1D430008880300202DE9F843D9
:1043E8008046894614460026D4E90175013F05D563
:1043F8002468002CF8D13046BDE8F883AB89012B3E
:1044080007D9B5F90E30013303D029464046C847CD
:1044180006436835EAE7036A70B5846805460E46C0
:104428000BB9FFF7C3FF636EDB0705D4A3899805B3
:1044380002D4A06D00F079F8A389190702D5236981
:10444800002B35D12146284600F046FA80B34FF0BC
:10445800FF35636EDA0705D4A3899B0502D4A06DE6
:1044680000F064F8284670BD002B04DAA269934274
:1044780017DB0A2915D023685A1C22601970A36813
:1044880016F8011F013BA3600029EDD18B4211DA18
:1044980022460A21284600F0E1F90130D7D00A2542
:1044A800D7E72246284600F0D9F90130E7D1CEE710
:1044B800013EE4E723685A1C22600A221A70EEE7DC
:1044C800024B01461868FFF7A6BF00BF180000207E
:1044D80002440346934200D1704703F8011BF9E7F1
:1044E80070B50D4B0D4C00261D1BB6EBA50F09D161
:1044F80000F02EFD0A4C0B4B00261D1BB6EBA50F3A
:1045080005D170BD54F8043B98470136EDE754F8DF
:10451800043B98470136F1E7E04F0008E04F0008F8
:10452800E04F0008E44F00087047704770470000EC
:1045380070B50F4C0E462168054611B900F0B2FA65
:1045480020603146284600F0ADFA431C03D14FF0F5
:10455800FF34204670BDC41C24F00304A042F8D0E8
:10456800211A284600F09EFA0130F2D1EFE700BF89
:10457800900300202DE9F843CD1C25F003050835EC
:104588000C2D38BF0C25002D064601DBA94204D9A5
:104598000C2333600020BDE8F883334F00F066F841
:1045A8003B681C463CBB29463046FFF7C1FF431C0D
:1045B800044656D13C68A046B8F1000F40D1002C03
:1045C80049D023684146304604EB030900F06AFAF3
:1045D800814540D121686D1A29463046FFF7A8FF6A
:1045E800013038D023682B4423603B685A685ABB93
:1045F800C7F800800EE02268521B1ED40B2A16D979
:104608006119A342256018BF5960636808BF396003
:1046180062514B60304600F02FF804F10B00231D67
:1046280020F00700C21A1CBF1B1AA350B3E7626828
:10463800A3420CBF3A605A60ECE723466468B1E7CE
:104648004446D8F80480B7E71A465B68A342FBD112
:1046580000235360DEE70C233360304600F00CF88B
:1046680098E70560D6E700BF940300200148FFF7EC
:104678005CBF00BF8C0300200148FFF757BF00BF95
:104688008C03002010B50C46B1F90E1000F0F8F9B3
:104698000028ABBF636DA3891B1823F48053ACBFFC
:1046A8006365A38110BD2DE9F0411F468B89DB05A9
:1046B80005460C46164605D5B1F90E100223002210
:1046C80000F0CCF9A389B4F90E1023F48053A38128
:1046D80032463B462846BDE8F04100F0F3B910B534
:1046E8000C46B1F90E1000F0B9F9B4F90C30421CBF
:1046F8000BBF23F4805343F48053A381A38118BFD5
:10470800606510BDB1F90E1000F0EEB9B1F90C20DA
:104718002DE9F041160705460C4651D44B68002B8D
:1047280002DC0B6C002B49DDE66A002E46D0002324
:1047380012F480522F682B6031D0626DA38959071B
:1047480005D56368D21A636B0BB1236CD21A0023A8
:10475800E66A216A2846B047421CB4F90C3006D1F3
:1047680029681D2945D8284ACA40D60741D50022BC
:104778006260D9042269226004D5421C01D12B68E9
:1047880003B96065616B2F60C1B104F144039942BC
:1047980002D0284600F0CAF9002363630EE0216ABC
:1047A80001232846B0470246501CC7D12B68002B6E
:1047B800C4D01D2B01D0162B1AD12F6000201DE06C
:1047C8000F69002FFAD093070E6808BF4B690F6076
:1047D80018BF0023A6EB07088B60B8F1000FEDDDCA
:1047E800216AA66A43463A462846B047002807DCAD
:1047F800A38943F04003A3814FF0FF30BDE8F08167
:104808000744A8EB0008E8E70100402038B50B6929
:1048180005460C4613B91D46284638BD18B1036A2B
:104828000BB9FFF7C3FDB4F90C30002BF3D0626E5F
:10483800D00704D4990502D4A06DFFF776FE284668
:104848002146FFF763FF636EDA070546E4D4A389C0
:104858009B05E1D4A06DFFF769FEDDE7F8B50546D5
:104868000F46144618B1036A0BB9FFF79FFDA369F9
:10487800A360A3891A0701D5236943B921462846AD
:1048880000F02AF818B14FF0FF363046F8BD23691A
:104898002068C01A6369834205DC21462846FFF771
:1048A800B5FF0028EFD1A368013BA36023685A1C19
:1048B80022601F70636901308342FEB204D0A3896D
:1048C800DB07E2D50A2EE0D121462846FFF79EFFF6
:1048D8000028DAD0D7E7000038B5284B0546186815
:1048E8000C4618B1036A0BB9FFF760FDB4F90C3038
:1048F800190720D4DA0607D409222A6043F04003B6
:10490800A3814FF0FF3031E0580711D5616B41B1F9
:1049180004F14403994202D0284600F007F9002325
:1049280063630022A38962602269226023F0240362
:1049380043F00803A38123694BB9A38903F42073C7
:10494800B3F5007F03D02146284600F03DF8B4F9BE
:104958000C3013F001020AD00022A26062695242B0
:10496800A261226942B913F08000C7D138BD990706
:1049780058BF6269A260F4E70020F7E7180000203A
:1049880070B50E46B1F90E10002996B014461D46B2
:104998000ADAB28912F0800213D14FF48061002044
:1049A8002A60216016B070BD6A4600F0ADF8002894
:1049B800EFDB019A02F47042A2F500535A425A41C1
:1049C800EBE700224021EAE78B8973B59E0705468D
:1049D8000C4607D504F14703236023610123636173
:1049E80002B070BD01AB6A46FFF7CAFF009E2846B9
:1049F8003146FFF7BFFDB4F90C3038B99A05EFD44A
:104A080023F0030343F00203A381E3E743F08003A9
:104A1800A381019B2060C4E90406002BE0D0B4F90F
:104A28000E10284600F00AF80028D9D0A38923F0F0
:104A3800030343F00103A381D2E7000038B5064C15
:104A4800002305460846236000F0CCF8431C02D139
:104A5800236803B12B6038BD9803002038B5074C94
:104A6800054608461146002222601A4600F0C2F8A0
:104A7800431C02D1236803B12B6038BD9803002082
:104A880038B5074C054608461146002222601A46EA
:104A980000F0B8F8431C02D1236803B12B6038BD7D
:104AA8009803002038B5064C0023054608462360C5
:104AB80000F0B0F8431C02D1236803B12B6038BD65
:104AC8009803002038B5074C0546084611460022D1
:104AD80022601A46FBF7CEFB431C02D1236803B1C0
:104AE8002B6038BD9803002038B5064C00230546D6
:104AF8000846236000F066F8431C02D1236803B11E
:104B08002B6038BD9803002038B5074C00230546B4
:104B180008461146236000F05DF8431C02D1236863
:104B280003B12B6038BD00BF9803002037B50029BA
:104B380044D051F8043C0190002BA1F10404B8BF03
:104B4800E418FFF793FD1E4A0198136833B96360B0
:104B5800146003B0BDE83040FFF78EBDA34208D90A
:104B6800256861198B4201BF19685B684919216082
:104B7800EDE71A465B680BB1A342FAD911685518DC
:104B8800A5420BD1246821445418A3421160E0D1F6
:104B98001C685B6853600C441460DAE702D90C2384
:104BA8000360D6E7256861198B4204BF19685B6802
:104BB800636004BF491921605460CAE703B030BD7F
:104BC80094030020024B58221A604FF0FF307047C0
:104BD80098030020024B58221A604FF0FF307047AC
:104BE80098030020024B58221A600020704700BF2B
:104BF80098030020024B58221A604FF0FF3070478C
:104C080098030020024B58221A604FF0FF3070477B
:104C180098030020044A05491368002B08BF0B4677
:104C280018441060184670479C030020A003002019
:104C38002DE9F04782B00646DDF828E00846B4467C
:104C48000D46002B4ED18A4214466DD9B2FA82F233
:104C580042B1C2F12003954026FA03F394401D4364
:104C680006FA02FC260CA7B2B5FBF6F14FEA1C4384
:104C780006FB115543EA054301FB07F0984209D9A1
:104C8800E31801F1FF3580F00381984240F200817A
:104C9800023923441B1A1FFA8CFCB3FBF6F006FBFF
:104CA80010334CEA034C00FB07F363450AD914EBB5
:104CB8000C0C00F1FF3580F0ED80634540F2EA808E
:104CC800A444023840EA0140ACEB030C0021BEF1D9
:104CD800000F04D02CFA02F30022CEE9003202B011
:104CE800BDE8F0878B4209D9BEF1000F01D0CEE9AB
:104CF80000610021084602B0BDE8F087B3FA83F1ED
:104D0800174600294DD1834202D3B24200F20F81E7
:104D1800B6EB070C60EB030301201D46BEF1000F44
:104D2800DDD0CEE900C5DAE7002A00F098801A46FF
:104D3800B4FA84F3002B40F0AF800B1B270CA6B20B
:104D48000121B3FBF7F54FEA1C4007FB153340EA96
:104D5800034306FB05F8984507D9E31805F1FF302A
:104D680002D2984500F2E8800546A3EB08031FFA33
:104D78008CFCB3FBF7F007FB10334CEA034C06FB43
:104D880000F3634508D914EB0C0C00F1FF3602D28E
:104D9800634500F2CE803046ACEB030C40EA054098
:104DA80095E7C1F120058B4022FA05FC4CEA030C7B
:104DB80000FA01F426FA05F3E84002FA01F943EA99
:104DC80004084FEA1C4206FA01FAB0FBF2F71FFA90
:104DD8008CF602FB17004FEA184444EA004407FB2C
:104DE80006F0A0420AD91CEB040407F1FF3380F057
:104DF8009C80A04240F29980023F6444241A1FFA22
:104E080088F3B4FBF2F002FB104443EA044300FBCE
:104E180006F69E4209D91CEB030300F1FF3480F02B
:104E280082809E427FD90238634440EA0740A0FB53
:104E380009749B1BA3423E46A04664D361D0BEF1D1
:104E4800000F0AD0BAEB060263EB080303FA05F574
:104E5800CA401543CB40CEE9005300213FE7730811
:104E680043EAC1734A08190C41EA02414FEAC67C79
:104E78009BB2B2FBF4F02646A04627461F2243EA1F
:104E88000143B1FBF4F1A3EB080341EA004158E701
:104E98002946FFE6284615E71A46C3F120019C403B
:104EA80026FA01F320FA01F190400343270C06FA91
:104EB80002FCB1FBF7F0A6B207FB1015190C41EA8A
:104EC800054100FB06F58D423BD9611801D28D42A0
:104ED80020D8491B0138B1FBF7F5019505FB06F809
:104EE800019D9BB207FB151143EA0143434526D2B6
:104EF800E31805F1FF31C6D24345C4D2A91E2344A5
:104F0800C1E7BA459BD2B7EB090664EB0C0401383C
:104F1800A04694E7651B29440238B1FBF7F50195D3
:104F280005FB06F8DCE720467FE71F4666E70846EC
:104F3800F4E6A44402382FE7023D234415E701991B
:104F4800A1E7491BB1FBF7F5019505FB06F8C7E793
:104F5800F8B500BFF8BC08BC9E467047F8B500BF5E
:084F6800F8BC08BC9E4670472E
:104F7000746573740000000085090008AD0900081D
:104F8000B5090008D9090008FD090008A08601003C
:104F9000400D0300801A060000350C0040420F004F
:104FA00080841E0000093D0000127A000024F400F5
:104FB00000366E010048E801006CDC0200000000D1
:104FC00001020304000000000000000001020304CD
:084FD0000607080900000000BB
:084FD80060FCFF7F01000000F6
:084FE00025020008000000009A
:084FE800FD01000800000000BB
:104FF000010100001000000000093D000000000059
:1050000003000000500200201C00002000000000EF
:1050100050020020B8020020200300200000000001
:105020000000000000000000000000000000000080
:105030000000000000000000000000000000000070
:105040000000000000000000000000000000000060
:08505000000000000000000058
:040000050800424568
:00000001FF
