:020000040800F2
:1000000000800120ADC40008C51D0008C71D000800
:10001000C91D0008CB1D0008CD1D00080000000010
:10002000000000000000000000000000CF1D0008DC
:10003000D11D000800000000D31D0008D51D0008D8
:10004000FDC40008FDC40008FDC40008FDC400088C
:10005000FDC40008FDC40008FDC40008DD1D000843
:10006000FDC40008FDC40008FDC40008FDC400086C
:10007000FDC40008FDC40008FDC40008FDC400085C
:10008000FDC40008FDC40008FDC40008FDC400084C
:10009000FDC40008FDC40008FDC40008FDC400083C
:1000A000FDC40008FDC40008FDC40008FDC400082C
:1000B000FDC40008FDC40008FDC40008FDC400081C
:1000C000FDC40008FDC40008FDC40008FDC400080C
:1000D000FDC40008E91D0008FDC40008FDC40008B7
:1000E000FDC40008FDC40008FDC40008FDC40008EC
:1000F000FDC40008FDC40008FDC40008FDC40008DC
:10010000FDC40008F91D0008FDC40008FDC4000876
:10011000FDC40008FDC40008FDC40008FDC40008BB
:10012000FDC40008FDC40008FDC40008091E000845
:10013000211E0008FDC40008FDC40008FDC400081D
:10014000FDC40008FDC40008FDC40008FDC400088B
:10015000FDC40008FDC40008FDC40008FDC400087B
:10016000FDC40008FDC40008FDC40008FDC400086B
:10017000FDC40008FDC40008FDC400080000000024
:08018000FDC40008FDC40008E5
:1001900001F0FF01102A2BDB10F0070F08D010F838
:1001A000013B013A8B422DD010F0070F42B3F6D13C
:1001B000F0B441EA012141EA014122F007047FF055
:1001C00000070023F0E80256083C85EA010586EAAC
:1001D000010685FA47F5A3FA87F586FA47F6A5FAE8
:1001E00087F68EB9EED1F0BC01F0FF0102F00702F4
:1001F00032B110F8013B013A83EA010313B1F8D19F
:100200000020704701387047002D06BF354603387F
:10021000073815F0010F07D1013015F4807F02BFB8
:10022000013015F4C03F0130F0BC0138704700BF09
:10023000034613F8012B002AFBD1181A0138704726
:1002400081F0004102E000BF83F0004330B54FEA87
:1002500041044FEA430594EA050F08BF90EA020FF4
:100260001FBF54EA000C55EA020C7FEA645C7FEA87
:10027000655C00F0E2804FEA5454D4EB5555B8BFAA
:100280006D420CDD2C4480EA020281EA030382EA1B
:10029000000083EA010180EA020281EA0303362DAD
:1002A00088BF30BD11F0004F4FEA01314FF4801C80
:1002B0004CEA113102D0404261EB410113F0004F92
:1002C0004FEA03334CEA133302D0524263EB430349
:1002D00094EA050F00F0A780A4F10104D5F1200EE7
:1002E0000DDB02FA0EFC22FA05F2801841F1000142
:1002F00003FA0EF2801843FA05F359410EE0A5F116
:1003000020050EF1200E012A03FA0EFC28BF4CF046
:10031000020C43FA05F3C01851EBE37101F00045FC
:1003200007D54FF0000EDCF1000C7EEB00006EEB09
:100330000101B1F5801F1BD3B1F5001F0CD3490893
:100340005FEA30004FEA3C0C04F101044FEA4452EA
:1003500012F5800F80F09A80BCF1004F08BF5FEA71
:10036000500C50F1000041EB045141EA050130BD51
:100370005FEA4C0C404141EB0101013C28BFB1F563
:10038000801FE9D291F0000F04BF01460020B1FAAE
:1003900081F308BF2033A3F10B03B3F120020CDA81
:1003A0000C3208DD02F1140CC2F10C0201FA0CF05F
:1003B00021FA02F10CE002F11402D8BFC2F1200CC4
:1003C00001FA02F120FA0CFCDCBF41EA0C0190407A
:1003D000E41AA2BF01EB0451294330BD6FEA0404C3
:1003E0001F3C1CDA0C340EDC04F11404C4F12002AE
:1003F00020FA04F001FA02F340EA030021FA04F3C0
:1004000045EA030130BDC4F10C04C4F1200220FA16
:1004100002F001FA04F340EA0300294630BD21FA54
:1004200004F0294630BD94F0000F83F4801306BF1A
:1004300081F480110134013D4EE77FEA645C18BF0E
:100440007FEA655C29D094EA050F08BF90EA020FA5
:1004500005D054EA000C04BF1946104630BD91EA9D
:10046000030F1EBF0021002030BD5FEA545C05D1A0
:100470004000494128BF41F0004130BD14F58004DF
:100480003CBF01F5801130BD01F0004545F0FE4153
:1004900041F470014FF0000030BD7FEA645C1ABF88
:1004A000194610467FEA655C1CBF0B46024650EABF
:1004B000013406BF52EA033591EA030F41F40021EB
:1004C00030BD00BF90F0000F04BF0021704730B571
:1004D0004FF4806404F132044FF000054FF0000146
:1004E00050E700BF90F0000F04BF0021704730B507
:1004F0004FF4806404F1320410F0004548BF4042DC
:100500004FF000013EE700BF42004FEAE2014FEA30
:1005100031014FEA02701FBF12F07F4393F07F4F0B
:1005200081F06051704732F07F4208BF704793F00E
:100530007F4F04BF41F40021704730B54FF4607421
:1005400001F0004521F000411CE700BF50EA010224
:1005500008BF704730B54FF000050AE050EA0102CD
:1005600008BF704730B511F0004502D5404261EB3D
:1005700041014FF4806404F132045FEA915C3FF47E
:10058000D8AE4FF003025FEADC0C18BF03325FEA1B
:10059000DC0C18BF033202EBDC02C2F1200300FACC
:1005A00003FC20FA02F001FA03FE40EA0E0021FAF1
:1005B00002F11444BDE600BF70B54FF0FF0C4CF4DF
:1005C000E06C1CEA11541DBF1CEA135594EA0C0F91
:1005D00095EA0C0F00F0DEF82C4481EA030621EACC
:1005E0004C5123EA4C5350EA013518BF52EA033507
:1005F00041F4801143F4801338D0A0FB02CE4FF0B9
:100600000005E1FB02E506F00042E0FB03E54FF0E8
:100610000006E1FB03569CF0000F18BF4EF0010EE0
:10062000A4F1FF04B6F5007F64F5407404D25FEADC
:100630004E0E6D4146EB060642EAC62141EA55518F
:100640004FEAC52040EA5E504FEACE2EB4F1FD0CD1
:1006500088BFBCF5E06F1ED8BEF1004F08BF5FEA4F
:10066000500E50F1000041EB045170BD06F0004601
:1006700046EA010140EA020081EA0301B4EB5C04AE
:10068000C2BFD4EB0C0541EA045170BD41F48011A6
:100690004FF0000E013C00F3AB8014F1360FDEBFCB
:1006A000002001F0004170BDC4F10004203C35DAA7
:1006B0000C341BDC04F11404C4F1200500FA05F32A
:1006C00020FA04F001FA05F240EA020001F00042CB
:1006D00021F0004110EBD37021FA04F642EB060141
:1006E0005EEA430E08BF20EAD37070BDC4F10C046B
:1006F000C4F1200500FA04F320FA05F001FA04F22F
:1007000040EA020001F0004110EBD37041F100011A
:100710005EEA430E08BF20EAD37070BDC4F1200525
:1007200000FA05F24EEA020E20FA04F301FA05F28D
:1007300043EA020321FA04F001F0004121FA04F235
:1007400020EA020000EBD3705EEA430E08BF20EA05
:10075000D37070BD94F0000F0FD101F0004640003F
:1007600041EB010111F4801F08BF013CF7D041EAC1
:10077000060195F0000F18BF704703F000465200C5
:1007800043EB030313F4801F08BF013DF7D043EA96
:100790000603704794EA0C0F0CEA135518BF95EA4C
:1007A0000C0F0CD050EA410618BF52EA4306D1D1D3
:1007B00081EA030101F000414FF0000070BD50EAF2
:1007C000410606BF1046194652EA430619D094EA7C
:1007D0000C0F02D150EA013613D195EA0C0F05D166
:1007E00052EA03361CBF104619460AD181EA0301BA
:1007F00001F0004141F0FE4141F470014FF0000072
:1008000070BD41F0FE4141F4780170BD70B54FF00C
:10081000FF0C4CF4E06C1CEA11541DBF1CEA13558C
:1008200094EA0C0F95EA0C0F00F0A7F8A4EB05046E
:1008300081EA030E52EA03354FEA013100F0888065
:100840004FEA03334FF0805545EA131343EA12632E
:100850004FEA022245EA111545EA10654FEA0026E3
:100860000EF000419D4208BF964244F1FD0404F59C
:10087000407402D25B084FEA3202B61A65EB0305F8
:100880005B084FEA32024FF480104FF4002CB6EBB5
:10089000020E75EB030E22BFB61A754640EA0C0035
:1008A0005B084FEA3202B6EB020E75EB030E22BF75
:1008B000B61A754640EA5C005B084FEA3202B6EBB6
:1008C000020E75EB030E22BFB61A754640EA9C0075
:1008D0005B084FEA3202B6EB020E75EB030E22BF45
:1008E000B61A754640EADC0055EA060E18D04FEA03
:1008F000051545EA16754FEA06164FEAC30343EAA3
:1009000052734FEAC2025FEA1C1CC0D111F4801F6F
:100910000BD141EA00014FF000004FF0004CB6E768
:1009200011F4801F04BF01430020B4F1FD0C88BF07
:10093000BCF5E06F3FF6AFAEB5EB030C04BFB6EB12
:10094000020C5FEA500C50F1000041EB045170BD05
:100950000EF0004E4EEA113114EB5C04C2BFD4EB32
:100960000C0541EA045170BD41F480114FF0000EB6
:10097000013C90E645EA060E8DE60CEA135594EA32
:100980000C0F08BF95EA0C0F3FF43BAF94EA0C0F35
:100990000AD150EA01347FF434AF95EA0C0F7FF4AA
:1009A00025AF104619462CE795EA0C0F06D152EAFE
:1009B00003353FF4FDAE1046194622E750EA4106E2
:1009C00018BF52EA43067FF4C5AE50EA41047FF4F3
:1009D0000DAF52EA43057FF4EBAE12E74FF0FF3C58
:1009E00006E000BF4FF0010C02E000BF4FF0010C29
:1009F0004DF804CD4FEA410C7FEA6C5C4FEA430CA2
:100A000018BF7FEA6C5C1BD001B050EA410C0CBFF0
:100A100052EA430C91EA030F02BF90EA020F002052
:100A2000704710F1000F91EA030F58BF994208BFB9
:100A300090422CBFD8176FEAE37040F00100704776
:100A40004FEA410C7FEA6C5C02D150EA013C07D1CD
:100A50004FEA430C7FEA6C5CD6D152EA033CD3D018
:100A60005DF8040B704700BF8446104662468C4612
:100A70001946634600E000BF01B5FFF7B7FF002845
:100A800048BF10F1000F01BD4DF808EDFFF7F4FF6E
:100A90000CBF012000205DF808FB00BF4DF808EDF9
:100AA000FFF7EAFF34BF012000205DF808FB00BF1C
:100AB0004DF808EDFFF7E0FF94BF012000205DF83E
:100AC00008FB00BF4DF808EDFFF7CEFF94BF0120F3
:100AD00000205DF808FB00BF4DF808EDFFF7C4FFEC
:100AE00034BF012000205DF808FB00BF4FEA410C35
:100AF0007FEA6C5C02D150EA013C0AD14FEA430C18
:100B00007FEA6C5C02D152EA033C02D14FF0000054
:100B100070474FF0010070474FEA410212F5001292
:100B200015D211D56FF47873B3EB625212D94FEA34
:100B3000C12343F0004343EA505311F0004F23FA1E
:100B400002F018BF404270474FF00000704750EA73
:100B5000013005D111F0004008BF6FF00040704730
:100B60004FF00000704700BF53B94AB9002908BFD1
:100B700000281CBF4FF0FF314FF0FF3000F00CB8E1
:100B8000ADF1080C6DE904CE0EF0FEFBDDF804E0DB
:100B9000DDE9022304B07047704700BF0348044BEF
:100BA000834202D0034B03B118477047E80100208D
:100BB000E8010020000000000548064B1B1AD90F71
:100BC00001EBA301491002D0034B03B11847704752
:100BD000E8010020E80100200000000010B5064CEC
:100BE000237843B9FFF7DAFF044B13B10448AFF39E
:100BF00000800123237010BDE801002000000000E8
:100C0000A8F6000808B5054B1BB105490548AFF328
:100C10000080BDE80840FFF7CFBF00BF0000000024
:100C2000EC010020A8F600084FF06043D3F8803EA6
:100C300013F0010F11D04FF06043D3F8003E13F0D2
:100C4000010F01D1704700BF4FF060431B68002BBC
:100C5000F9D0C3B24FF060421370704708B5D0F8B6
:100C6000841002480CF0B0F908BD00BFECF6000893
:100C700070B50C461646002504E014F8010BFFF78A
:100C8000D3FF0135B542F8DB304670BD022800D0F5
:100C90007047024B01221A70FAE700BF5002002091
:100CA000074B5A68074B1B680749A1FB03139B0CB2
:100CB00003FB00F0024B5B689B1A8342FAD3704738
:100CC000001000E01800002083DE1B4308B5B0FBD5
:100CD000F1F010F0010F05D101220821044805F0C0
:100CE000DEFC08BD00220821014805F0D8FCF8E729
:100CF0000008004870B506460D4614460848002313
:100D0000C36303F0F3FC08B1012070BD23462A46FB
:100D10003146034807F0FCFA0028F6D0F4E700BF9C
:100D2000E815002070B506460D4614460848002315
:100D3000036403F009FD08B1012070BD23462A4673
:100D40003146034807F07CFB0028F6D0F4E700BFEB
:100D5000E815002008B572B6012240214FF09040FE
:100D600005F09DFCFEE700B597B04422002105A8E0
:100D70000CF0A2F9002300930193029303930493D0
:100D80004FF4007006F0CCFC10BB022305934FF427
:100D900080720892102209920F93109301221192EF
:100DA0000A221292072213921493159305A803F0B6
:100DB00023FF78B90F23009303230193029003903C
:100DC00004900421684604F027FA28B917B000BD42
:100DD000FFF7C0FFFFF7BEFFFFF7BCFF30B589B0DC
:100DE000564AD2F8FC3043F08073C2F8FC30544BC2
:100DF00000245C601A6842F001021A6003F02AFEC7
:100E0000504B514A1A604FF480629A80FFF7ABFF53
:100E100000F0E8FC0AF0E4FB00F09CFD00F02AFF83
:100E200003F054FC00F0C2FD0AF072FC47480CF0DD
:100E30003BF903AD03940494059406940794444845
:100E40000AF02FFD434B1A6E22F480421A66DA6CC8
:100E500042F00102DA64DB6C03F001030293029BAF
:100E60004FF4007303930494059429464FF0904087
:100E700005F068FA012202214FF0904005F00FFCC6
:100E800000F086F905E04FF4FA6003F005FE00F08B
:100E90007FF910F1020FF6D008B1FFF75BFF00F009
:100EA00099F800F0ADF82C480CF0FEF800F05CFA70
:100EB0002A480CF0F9F800F0E3FB00F055FB03F0D2
:100EC000E5FD274B186026E003F0E0FD244B1B688E
:100ED000C01A244BA3FB0030234B1B68B3EB901FBD
:100EE00010D203F0D3FD1E4B1B68C01A1D4BA3FB91
:100EF000003080091C4B186000F044FA00F094FBAD
:100F000000F004FC03F0C2FD154B1B684FF47A712E
:100F1000C01AFFF7DBFE154B1B78002BD4D000F076
:100F20006FFA13490DF1060002F0BEFDBDF8063060
:100F3000FF2BC9D80D4B00221A70C5E700ED00E069
:100F4000001000E020140020180A002000F700081C
:100F5000501D00200010024008F7000828F7000884
:100F60001C140020D34D6210040200205002002007
:100F7000481400200FB430B5ADF20C4D0DF583626E
:100F800052F8041B019202AC20460BF0F5FF0E4D07
:100F900032220E49284609F0D9FE2046FFF748F9CB
:100FA00002460023214628460AF0B7F828460AF0F0
:100FB0007BFA214606480CF007F80DF20C4DBDE80F
:100FC000304004B0704700BF580400205402002095
:100FD0004CF7000808B501220649074809F088FEC9
:100FE00000B908BD014605480BF0EEFFFFF7B2FE61
:100FF000F7E700BFA41800206C16002050F7000887
:1010000038B500241C4D22461C4928460BF0D6FE5C
:10101000062229461A4809F099FE01340828F1D021
:10102000D8B917480AF040FA0024164D224616494E
:1010300028460BF0C3FE06222946144809F086FE16
:1010400001340828F1D078B910480AF02DFA0D4A79
:1010500009490F480BF0B8FF38BD01460D48FFF7AE
:1010600089FFFFF777FEDCE701460B480BF0ACFF8A
:10107000FFF770FEE8E700BF54030020C0F6000849
:10108000B006002054020020D4F6000858040020C6
:10109000DCF7000878F70008ACF7000800B585B069
:1010A0000DF1100C0CE90F0032221649164809F018
:1010B0004DFE08B105B000BD034601226946124845
:1010C0000AF02BF803460028F4D104220DEB0201AC
:1010D0000D480AF022F803460028EBD1042202A9A9
:1010E00009480AF01AF803460028E3D1029A039946
:1010F00005480AF012F80028DCD103480AF0D4F9B8
:10110000D8E700BF54030020B006002000B583B02C
:1011100001238DF807304FF480614FF0904005F0C7
:10112000B7FA012803D09DF8070003B000BD0023E3
:101130008DF80730F7E7000000B585B04FF0FF33BA
:10114000029392B20192009101230246D0210448F9
:1011500005F0D6FE08B905B000BD6FF00100FAE752
:10116000B014002000B585B04FF0FF33029392B267
:101170000192009101230246D021044805F090FF1E
:1011800008B905B000BD6FF00100FAE7B014002007
:101190002DE9F04198B0644C644BA363644BE36366
:1011A000644B2364012666720025656162494B78B1
:1011B0000A7862480BF008FF8DF85F504FF0FF335C
:1011C000029301960DF15F03009333462A46D02126
:1011D0005B4805F065FF02469DF85F1059480BF02B
:1011E000F3FE204603F038FA002874D14E4D28460D
:1011F00002F0C4FD04462B6C29464FF4FA60984770
:10120000002C71D18DF82840474C0AAE22460121AE
:10121000304603F0B3F84FF008078DF82A70012527
:101220008DF82D504FF002088DF82B80224629466C
:10123000304602F0F4FF8DF8285022462946304609
:1012400003F09CF88DF82A7003238DF82E308DF86A
:101250002B8022462946304602F0E1FF4FF480738E
:10126000ADF824302246022109A802F03DFB0146D8
:1012700000283FD12C4A01214DF2020003F07BF9F6
:10128000014600283BD128494FF4807002F0F3FB5F
:101290000146002838D101238DF818308DF816301A
:1012A0008DF815008DF814308DF817000598CDF8DD
:1012B0001A001D4906A802F070FA014648BB1A4AF6
:1012C0000121022002F0C1FC044638BB1E480BF08D
:1012D000EBFE254604E0014605461C480BF074FE73
:1012E000284618B0BDE8F0812546214618480BF085
:1012F0006BFEF5E7054617480BF066FEF0E705467E
:1013000015480BF061FEEBE7054614480BF05CFE58
:10131000E6E7054612480BF057FEE1E705460146B1
:1013200010480BF051FEDBE748140020651100085F
:1013300039110008A10C0008E4FB0008F4F70008CC
:10134000B014002014F8000868F900083CF8000800
:1013500064F800088CF80008B0F80008DCF8000811
:1013600010F9000838F9000808B5022307221321F4
:10137000602000F055FC022339222621602000F075
:101380004FFC08BD10B586B002220021602000F09D
:10139000DFFB00F00E000E282CD006B010BD611C43
:1013A0000222C9B2602000F00BFC04F118036B4468
:1013B00003F8080C0134042CF1DD002300930193A1
:1013C0000293039301238DF8003003F05FFB0A4B77
:1013D0001B68C01A01900523029304AB03939DE898
:1013E0000F00FFF75BFE01460028D6D003480BF044
:1013F000EBFDD2E70024DEE71C1400208CF9000886
:1014000030B5ADF61C4D504C21460DF6164002F09D
:1014100049FA21460DF6144002F046FB21464B489E
:1014200002F084FAF0B9484C21460DF6144002F05F
:101430003BFB69468023ADF80030ADF8023023460F
:10144000424A05A802F0BFFA011E10DB3E4B3F4A9C
:101450000DF102010DF2146002F0E1FA011E0ADB47
:10146000002121E001463A48FFF784FD69E0394850
:10147000FFF780FDEAE73848FFF77CFDF0E701EB76
:10148000410305AA02EB830032F92340334A22F8D4
:1014900013405C1CB0F9025022F814500233B0F92A
:1014A000040022F813000131BDF800208A42E6DC76
:1014B000002320E0D11801EB41010DF2146003EB91
:1014C000430C00EB8C0430F92C00DFF890C02CF8B2
:1014D000110002EB420000F1010E03EB43018E44C8
:1014E000B4F902502CF81E5002300144B4F9040043
:1014F0002CF811000133BDF802109942DADC0A44DD
:1015000002EB42025200164D2A6001AC0023019307
:1015100002930393049304238DF8043003F0B6FA86
:10152000104B1B68C01A02902B6803930B4B04935B
:1015300094E80F00FFF7B2FD03490DF6164002F0E4
:10154000B1F90DF61C4D30BD4814002020140020C8
:10155000B8F90008DCF900080CFA00081C0E00209D
:10156000180E00201C14002008B5064803680C2241
:101570001A62012204490AF06FFF014603480BF08A
:1015800023FD08BD501D0020140A002038FA000871
:1015900008B51E4B984200D008BD1D4B18780BF0C3
:1015A00025FD1C4B1B889BB27E2B23D819490B8829
:1015B0009BB25A1C92B20A80154A10781649C85438
:1015C00013780A2B19D1134B1B889BB208460022B3
:1015D000CA54062211490BF077FD38B980220E4912
:1015E0000F480BF0B5FD0F4B01221A70094B00227A
:1015F0001A8002E0074B00221A80044803680C227C
:101600001A62012202490AF027FFC5E7501D002097
:10161000140A002012090020940900204CFA000846
:101620001409002010090020124B1B7803B97047E1
:1016300070B5A4B08022104904A80BF089FD0025E4
:101640000C4B1D7004A8FEF7F3FD064600950195AE
:101650000295039503F01AFA084B1B68C01A019013
:10166000029604AB03939DE80F00FFF717FD24B02B
:1016700070BD00BF10090020140900201C140020B8
:1016800010B588B04FF0FF3302930823019306ABE7
:10169000009301230022C821184805F001FD0146EE
:1016A00017480BF091FC002409E004F120036B447F
:1016B00013F8082C214613480BF086FC0134072C44
:1016C000F3DD012308221946642000F0A9FA322331
:1016D00002930222019205AB00930123C82107481F
:1016E00005F0DEFC38B99DF814209DF8153043EA6A
:1016F0000223054A138008B010BD00BF0415002066
:1017000054FA000860FA00080809002070B58AB091
:101710004FF0FF3302930222019209AB00930123A1
:10172000C8212B4805F0BCFC002841D19DF824308D
:101730009DF8254044EA0324264B1B88A34223D36B
:101740001B1B9BB21E46B3F5807F1DD8B4F5407FAE
:101750001CD3214D2B6833442B6000230593069343
:101760000793089303238DF8143003F08FF91B4B74
:101770001B68C01A069004230793089505AB0FCB8E
:10178000FFF78CFC134B1C800AB070BD04F5FF42C0
:101790007F3294B20123C2F307220221642000F0B9
:1017A0003FFA0123E2B20321642000F039FAD0E7C6
:1017B000074C616C0A480BF007FC204605F0FEF967
:1017C000052003F069F9204605F094F9DCE700BF35
:1017D00004150020080900200C0900201C1400201A
:1017E0006CFA00082DE9F0418AB005AD002405949B
:1017F0000694079408940994524BDA6C42F0040260
:10180000DA64DA6C02F004020092009ADA6C42F0B8
:101810008002DA64DA6C02F080020192019ADA6CDA
:1018200042F00102DA64DA6C02F001020292029ADA
:10183000DA6C42F00202DA64DA6C02F0020203921D
:10184000039ADA6C42F00802DA64DB6C03F00803F6
:101850000493049B3C4F22460821384604F01FFFA6
:10186000224642214FF0904004F019FF4EF2F4035B
:1018700005930326069607942946384604F062FD30
:101880000596069607942946304804F05BFD4FF014
:101890000108CDF81480069407942946384604F0D0
:1018A00051FD022305934FF48813069307942946AC
:1018B000384604F047FD08230593CDF818800794B7
:1018C00008942946384604F03DFD41F6014305934E
:1018D0000694079429464FF0904004F033FD4223CC
:1018E0000593CDF818800794089429464FF090404E
:1018F00004F028FD48F2BC13059306960794294688
:101900004FF0904004F01EFD47F237130593069602
:1019100007940F4E2946304604F014FD4FF400435F
:101920000593069407942946304604F00BFD2246A1
:101930002146072005F0A6FF072005F0B3FF0AB0F7
:10194000BDE8F0810010024000080048001C00487B
:101950000004004808B51248124B0360124B436064
:10196000002383600122C260036143618361C3611C
:10197000036205F0BFF850B90021094805F064FC86
:1019800040B90021064805F08CFC30B908BDFFF7CE
:10199000E1F9F1E7FFF7DEF9F3E7FFF7DBF9F5E748
:1019A0000415002000540040E49CD11008B51248F2
:1019B000124B0360124B4360002383600122C2601C
:1019C000036143618361C361036205F093F850B919
:1019D0000021094805F038FC40B90021064805F00F
:1019E00060FC30B908BDFFF7B5F9F1E7FFF7B2F9D0
:1019F000F3E7FFF7AFF9F5E7B01400200058004017
:101A0000E49CD11010B5ACB0044600212791289178
:101A100029912A912B91882205A80BF04DFB236870
:101A20002F4A934204D02F4A93422DD02CB010BDA0
:101A30004023059305A803F0E1FE10BB2A4CE36C9C
:101A400043F00203E364E36C03F002030193019BA0
:101A50004FF4107327931223289300232993032311
:101A60002A9304232B9327A9204804F06BFCA36D31
:101A700043F40013A365A36D03F400130293029BC8
:101A8000D4E7FFF767F9D9E78023059305A803F0AA
:101A9000B5FE10BB144CE36C43F00203E364E36C4B
:101AA00003F002030393039B4FF440632793122335
:101AB00028930023299303232A9304232B9327A9F4
:101AC0000A4804F03FFCA36D43F48003A365A36DB3
:101AD00003F480030493049BA8E7FFF73BF9D9E7DD
:101AE000005400400058004000100240000400482C
:101AF00008B50368134A934203D0134A934210D0A7
:101B000008BD02F5DE32936D23F400139365402186
:101B10000E4804F025FD4FF400710C4804F020FD40
:101B2000EEE702F5DC32936D23F4800393654FF406
:101B30008061064804F014FD4FF40061034804F08E
:101B40000FFDDDE70054004000580040000400484D
:101B5000F0B587B007468DF80F10012A1DD0022A74
:101B600026D1144B1D464FEA470C42F210740094E4
:101B700001230DF10F0266466146284605F038F84C
:101B8000009401230DF117023146284605F0FEF8B6
:101B900030B99DF8170007B0F0BD074B1D46E2E7CE
:101BA0006A6C39460548FFF7E5F9FFF7D3F8F0E727
:101BB0000120F0E7B0140020041500208CFA000882
:101BC00030B587B00446012A16D0022A1FD1114B26
:101BD0001D4642F210730293012301930DF1170287
:101BE00000920A4621469940284605F059FA30B934
:101BF0009DF8170007B030BD074B1D46E9E76A6C3A
:101C000021460648FFF7B6F9FFF7A4F8F0E70120F0
:101C1000F0E700BFB014002004150020DCFA000833
:101C200030B585B00446012B13D0022B0FD10E4BDB
:101C30001D468DF80C108DF80D2042F210730093A4
:101C4000022303AA6100284604F0D2FF20B905B0A0
:101C500030BD064B1D46ECE76A6C21460448FFF791
:101C600089F9FFF777F8F2E7B01400200415002097
:101C70002CFB0008064B074A1A6000225A609A6043
:101C8000DA604FF4006119615A619A61704700BFD0
:101C9000E815002000280140F0B5ABB00446002153
:101CA00025912691279128912991882203A80BF04C
:101CB00003FA22683D4B9A4201D02BB0F0BD4FF49D
:101CC000002303934FF080631F93022304930122A8
:101CD000059214220692072207920822089209937D
:101CE0004FF480130A9303A803F088FD002857D10E
:101CF0002F4B1A6E42F480621A661A6E02F48062EA
:101D00000092009ADA6C42F00402DA64DA6C02F0B3
:101D100004020192019ADA6C42F00802DA64DB6C88
:101D200003F008030293029B4FF4F8532593022615
:101D3000269600252795032728970C23299325A964
:101D40001C4804F0FFFA042325932696279528972C
:101D50000C23299325A9184804F0F4FA1748184BC6
:101D600003600723436010238360C5608023036101
:101D70004FF4007343614FF400638361C5610562F2
:101D800005F0D4FA78B90D4B23649C62E36300221A
:101D90001146312005F076FD312005F083FD8CE7FA
:101DA000FEF7D8FFA4E7FEF7D5FFECE700280140D7
:101DB0000010024000080048000C00480802002003
:101DC00044040240FEE7FEE7FEE7FEE7FEE7704759
:101DD0007047704708B502F04DFE08BD08B50220F7
:101DE00004F062FC08BD000008B5024809F090FD4F
:101DF00008BD00BF501D002008B5024806F0C6FE11
:101E000008BD00BFE815002008B5034805F002FC36
:101E1000024805F0FFFB08BD08020020581500200D
:101E200008B5034805F0F6FB024805F0F3FB08BDD2
:101E300008020020A015002082B00A4B1A6E42F062
:101E400001021A661A6E02F001020092009A9A6D5F
:101E500042F080529A659B6D03F080530193019B81
:101E600002B070470010024082B000230093ADF82A
:101E70000430B0F90030ADF80030B0F90230ADF800
:101E80000230B0F90430ADF8043091F82B30FBB9D2
:101E900091F8283002AA02EB430333F9083C03808F
:101EA00091F82C30F3B991F8293002AA02EB4303E0
:101EB00033F9083C438091F82D30EBB991F82A3082
:101EC00002AA02EB430333F9083C838002B0704757
:101ED00091F8283002AA02EB430333F8083C5B4236
:101EE0000380DDE791F8293002AA02EB430333F8BF
:101EF000083C5B424380DEE791F82A3002AA02EBFD
:101F0000430333F8083C5B428380DFE700B5964625
:101F1000019AB2F80AC0A0F800C0B2F808C0BCF537
:101F2000804F0CD0BCF5C04F19D0BCF5404F29D024
:101F3000BCF5604F33D093880380012008E01B88F4
:101F400003EB43035B000B8006238EF80030002078
:101F5000B1F800C093889C4500D90B8000BD92F871
:101F60001EC00CF1060C1B8813FB0CF30B80937F37
:101F700006338EF80030538992F81EC06344038004
:101F80000020E5E71B8803EB43039B000B800C2339
:101F90008EF800305389063303800020D8E792F88A
:101FA0001EC00CF10C0C1B8813FB0CF30B80937FF1
:101FB0000C338EF80030538992F81EC06344063308
:101FC00003800020C4E710B51446B1F800C00CF13E
:101FD0000502B3F804E072451DDA1B6813F80C2003
:101FE000824201D0002019E00CF101029A5C7F2AA4
:101FF00001D0002012E00CF102029A5C7AB90CF1D7
:1020000003029B5C802B01D0002007E02246624443
:102010000A80032002E0A1F800E0012010BD0020AA
:10202000FCE770B58C461E464C1CA4B21368595C84
:102030000CF102039BB215682C5D41EA042101807A
:102040000CF10304A4B21568E95C0CF104039BB223
:102050002C5D41EA0421418011680CF1050C1FFA46
:102060008CFCCA5C11F80C3042EA032282803146B3
:10207000FFF7FAFE70BD00B59646019AB2F810C09F
:10208000A0F800C0B2F808C0BCF5004F0CD0BCF5F9
:10209000204F19D0BCF5404F29D0BCF5604F30D04F
:1020A00093880380012008E01B8803EB43035B0057
:1020B0000B8006238EF800300020B1F800C0938812
:1020C0009C4500D90B8000BD92F81EC00CF1060C97
:1020D0001B8813FB0CF30B80937F06338EF80030C4
:1020E000138A92F81EC0634403800020E5E71B8832
:1020F00003EB43039B000B800C238EF80030002081
:10210000DBE792F81EC00CF10C0C1B8813FB0CF3E0
:102110000B80937F0C338EF80030138A92F81EC028
:10212000634403800020C8E703784FEA931CBCF1A6
:10213000030F00D07047C82BFCD00B8801339BB233
:102140000B801268D35C03F0FC030370F2E700B568
:10215000D2F800C00A88931C1CF803E0531C1CF83A
:1021600003301B021CF8022043EA0E431343836032
:102170000B8803330B8000BD70B50C46802B00F03C
:10218000D380054616460DD8402B1BD0602B6FD050
:10219000202B40F0D0800B88049A927F13440B8050
:1021A00002200EE0C02B38D0E02B00F08F80A02B57
:1021B00040F0C1800B88049A92F8212013440B80D0
:1021C000022070BD0988049B1B7F0B44049A9288EF
:1021D000934202DD22800020F3E7308800EB4000CC
:1021E000059B049A05EB8000FFF71BFF238806334D
:1021F0002380059B1B6B13F4802F04D1338801339C
:1022000033800220DDE7308800EB4000049A21464D
:1022100005EB8000FFF79BFFF0E70988049B1B7F1D
:102220000B44049A9288934202DD22800020C8E782
:10223000308800EB4000059B049A05EB8000FFF717
:10224000F0FE23880C332380059B1B6B13F4802F37
:1022500004D13388013333800220B2E7308800EBA9
:102260004000049A214605EB8000FFF770FFF0E77D
:102270000988049B1B7F0B44049A9288934202DDD9
:10228000228000209DE7308800EB4000059B049AE7
:1022900005EB8000FFF7C5FE2388049A927F134464
:1022A00006332380059B1B6B13F4802F04D13388E6
:1022B00001333380022084E7308800EB4000049A29
:1022C000214605EB8000FFF742FFF0E70988049BF9
:1022D0001B7F0B44049A9288934202DD22800020E7
:1022E0006FE7308800EB4000059B049A05EB800007
:1022F000FFF797FE2388049A927F13440C332380C0
:10230000059B1B6B13F4802F04D13388013333807A
:10231000022056E7308800EB4000049A214605EB86
:102320008000FFF714FFF0E70B88049A527F1344F4
:102330000B80022045E7049B9B882380012040E717
:1023400070B50C46902B00F0DC800546164612D87E
:10235000882B00F0DD808C2B42D0842B40F0DF8076
:102360000988049B1B7F0B44049A9288934217DDD3
:1023700022800020C4E0982B00F0BB809C2B00F052
:102380008380942B40F0CB800988049B93F8203005
:102390000B44049A928893424FDD22800020AFE0E4
:1023A000308800EB4000059B049A05EB8000FFF7A6
:1023B00038FE238806332380059B1B6B13F4802F84
:1023C00004D1338801333380022099E0308800EB58
:1023D0004000049A214605EB8000FFF7B8FEF0E7C5
:1023E0000988049BDB7F0B44049A9288934202DDA8
:1023F0002280002084E0308800EB40000631059BFD
:10240000049A89B205EB8000FFF70BFE23880C339A
:102410002380059B1B6B13F4802F04D13388013379
:10242000338002206CE0308800EB4000049A2146A3
:1024300005EB8000FFF78BFEF0E7308800EB4000F3
:10244000049B9B7F1944059B049A89B205EB80008D
:10245000FFF7E7FD2388049A927F13440633238015
:10246000059B1B6B13F4802F04D133880133338019
:10247000022045E0308800EB4000049A214605EB3D
:102480008000FFF764FEF0E70A88049B93F822308F
:102490001344049989888B4202DD218000202FE0BB
:1024A000308800EB4000049B9B7FD11889B2063135
:1024B000059B049A89B205EB8000FFF7B2FD2388E3
:1024C000049A927F13440C332380059B1B6B13F4F7
:1024D000802F04D1338801333380022010E030880C
:1024E00000EB4000049A214605EB8000FFF72FFE29
:1024F000F0E70B88049A92F8212013440B80022005
:1025000070BD0B88049A927F13440B800220F7E77A
:102510000B88049A527F13440B800220F0E7049B3F
:102520009B8823800120EBE7038803F1060C8A884F
:1025300094452EDA096811F803C0BCF1000F2AD1C6
:1025400003F1010C11F80CC0BCF1800F01D0022086
:10255000704703F1020C11F80CC0BCF1000F1CD144
:1025600003F1030C11F80CC0BCF1800F01D0022064
:10257000704703F1040C11F80CC0BCF1000F0ED130
:102580000533CB5C802B01D00220704702800120F4
:1025900070470020704702207047022070470220D9
:1025A00070472DE9F04184B007460D461446984621
:1025B0000023ADF80E30ADF80C30ADF80A308DF8D0
:1025C000093000920B460DF109020DF10A010DF1DF
:1025D0000E00FFF79BFC844623891B0A1E46BDF8AC
:1025E0000E20BDF80A309A4221D2BCF1010F1ED054
:1025F00023469DF809200DF10E010120FFF7E3FCB1
:1026000084460028EBD1CDF804800094334603AA19
:102610000DF10E013846FFF7AFFD84460128DED0EC
:1026200021460DF10E00FFF77FFF8446D7E7BDF886
:102630000C302B80BDF80E306381604604B0BDE8DD
:10264000F08100B5B0F800C001EB0C0E93889E45F8
:1026500002DD0380002000BD614401800220FAE712
:10266000038803F1020C8A88944502DB0280002073
:10267000704700B5D1F800C09A1C1CF802E05A1C43
:102680001CF8022012021CF803C042EA0E434CEA76
:1026900003034B61038803330380022000BD0288DB
:1026A0008B889A4202D30380002070470B689B5CA2
:1026B0000B76038801330380022070472DE9F04137
:1026C00084B007460E461446984600208DF80F0049
:1026D000ADF80A000D885389ADF80C302BE0802B43
:1026E00004D1A388ADF80C3001201EE0842B13D058
:1026F000A388ADF80C30012017E0982B52D041D8B8
:10270000902B05D12246A17F03A8FFF79AFF0CE08A
:10271000942B01D08C2BEBD1CDF8048000940DF1DB
:102720000A0203A93846FFF70BFEBDF80A30AB4298
:102730004AD0012848D0A288BDF80C309A4243D92B
:102740002268D35C03F0FC038DF80F30224603A906
:102750000DF10F00FFF7E8FCBDF80C300133ADF8C8
:102760000C309DF80F30882B16D0C6D8482B25D0BA
:10277000B5D8402B1DD0442BBAD1214603A8FFF772
:102780006FFFD2E79C2BC7D0C82BB1D122460621C0
:1027900003A8FFF756FFC8E72246617F03A8FFF7AB
:1027A00050FFC2E7224694F8211003A8FFF749FF23
:1027B000BBE7214603A8FFF772FFB6E722460421D4
:1027C00003A8FFF73EFFB0E7BDF80A303380BDF83D
:1027D0000C30638104B0BDE8F081034600B2994239
:1027E00001DA08B27047CA439A4200DD10B270475E
:1027F00010B50446B0F90000B1F94430B4F9042032
:1028000002FB03F3002B08DB43F34F2347F6FF7172
:10281000C01AFFF7E2FF208010BD03F2FF13F3E7B9
:1028200070B504461E4601F1010E1FFA8EFE1368B4
:1028300013F801C08B1C9BB2156815F80EE04CEA2A
:102840000E2CA0F800C001F1030E1FFA8EFE1568D1
:1028500015F803C00B1D9BB215F80EE04CEA0E2CC8
:10286000A0F802C0D2F800C04A1D92B21CF8033092
:102870001CF8022043EA022383803146FFF7B8FFA9
:1028800031462046FFF7F0FA70BD70B505460C469C
:102890001646802B24D00FD8402B00F0D180602B1F
:1028A00000F0C680202B40F0D2800B88049A927FE3
:1028B00013440B800220C2E0C02B3CD0E02B00F080
:1028C0008880A02B40F0C3800988049B93F82130B6
:1028D0000B44049A9288934258DD22800020AEE097
:1028E0000988049B5B7F0B44049A9288934202DD23
:1028F00022800020A3E0308800EB4000059B049A72
:1029000005EB8000FFF78CFF238806332380059BAF
:102910001B6B13F4802F04D13388013333800220E2
:102920008DE0308800EB4000049A214605EB8000E2
:10293000FFF70DFCF0E70988049BDB7F0B44049A4A
:102940009288934202DD2280002078E0308800EBFC
:102950004000059B049A05EB8000FFF761FF238888
:102960000C332380059B1B6B13F4802F04D1338819
:1029700001333380022062E0308800EB4000049A8B
:10298000214605EB8000FFF7E2FBF0E7308800EB23
:102990004000059B049A05EB8000FFF741FF238868
:1029A000049A927F134406332380059B1B6B13F418
:1029B000802F04D133880133338002203FE03088F8
:1029C00000EB4000049A214605EB8000FFF7BFFBB7
:1029D000F0E70988049B93F822300B44049A92880C
:1029E000934202DD2280002029E0308800EB400085
:1029F000059B049A05EB8000FFF712FF2388049AD9
:102A0000927F13440C332380059B1B6B13F4802FA0
:102A100004D1338801333380022010E0308800EB8A
:102A20004000049A214605EB8000FFF790FBF0E799
:102A30000B88049A92F8202013440B80022070BD6A
:102A40000B88049A127F13440B800220F7E7049B43
:102A50009B8823800120F2E72DE9F04184B00746EE
:102A60000D46144698460023ADF80E30ADF80C30F4
:102A7000ADF80A308DF8093000920B460DF10902CD
:102A80000DF10A010DF10E00FFF7F5FA84462389D6
:102A90001B0A1E46BDF80E20BDF80A309A4221D20C
:102AA000BCF1010F1ED023469DF809200DF10E0147
:102AB0000220FFF788FA84460028EBD1CDF8048085
:102AC0000094334603AA0DF10E013846FFF7DDFEF0
:102AD00084460128DED021460DF10E00FFF724FDCB
:102AE0008446D7E7BDF80C302B80BDF80E3023822A
:102AF000604604B0BDE8F08170B50C46902B00F044
:102B0000E280054616461DD8882B2BD00CD8202BEA
:102B100000F0D980842B40F0DD800B88049A127F6E
:102B200013440B8002201CE08C2B40F0D3800988DA
:102B3000049BDB7F0B44049A928893423DDD228004
:102B400000200EE0982B58D09C2B00F08980942B0D
:102B500040F0C0800B88049A92F8202013440B8028
:102B6000022070BD0988049B5B7F0B44049A928805
:102B7000934202DD22800020F3E7308800EB400022
:102B8000059B049A05EB8000FFF74AFE2388063375
:102B90002380059B1B6B13F4802F04D133880133F2
:102BA00033800220DDE7308800EB4000049A2146A4
:102BB00005EB8000FFF7CBFAF0E7308800EB400030
:102BC000059B049A05EB8000FFF72AFE23880C334F
:102BD0002380059B1B6B13F4802F04D133880133B2
:102BE00033800220BDE7308800EB4000049A214684
:102BF00005EB8000FFF7ABFAF0E70988049B93F838
:102C000021300B44049A9288934202DD22800020F6
:102C1000A7E7308800EB4000049B9B7F1944059B8D
:102C2000049A89B205EB8000FFF7FAFD2388049A25
:102C3000927F134406332380059B1B6B13F4802F74
:102C400004D133880133338002208AE7308800EBD7
:102C50004000049A214605EB8000FFF778FAF0E780
:102C60000988049B93F822300B44049A928893427B
:102C700002DD2280002074E7308800EB4000049BD6
:102C80009B7F1944059B049A89B205EB8000FFF7EE
:102C9000C7FD2388049A927F13440C332380059B3D
:102CA0001B6B13F4802F04D133880133338002204F
:102CB00057E7308800EB4000049A214605EB80007E
:102CC000FFF745FAF0E72388049A927F13442380A4
:102CD000022046E7049B9B882380012041E72DE9E1
:102CE000F04184B007460E461446984600208DF801
:102CF0000F00ADF80A000D88138AADF80C302DE0F6
:102D0000802B57D1A388ADF80C30012020E0942B04
:102D10005BD007D9C82B48D12246062103A8FFF76C
:102D200090FC15E0902B05D12246A17F03A8FFF768
:102D300088FC0DE03ED8882B01D08C2B3AD1CDF801
:102D4000048000940DF10A0203A93846FFF7D4FE6F
:102D5000BDF80A30AB424AD0012848D0A288BDF85D
:102D60000C309A4243D92268D35C03F0FC038DF8FF
:102D70000F30224603A90DF10F00FFF7D5F9BDF87A
:102D80000C300133ADF80C309DF80F30842B16D089
:102D9000BDD8482B25D0B3D8402B1DD0442B09D10A
:102DA000214603A8FFF75CFCD2E703D8982BC6D0D6
:102DB0009C2BC4D0A388ADF80C300120C8E7224674
:102DC000217F03A8FFF73DFCC2E7224694F82010BC
:102DD00003A8FFF736FCBBE7214603A8FFF75FFC1B
:102DE000B6E72246042103A8FFF72BFCB0E7BDF8A5
:102DF0000A303380BDF80C30238204B0BDE8F08186
:102E00008446A0B10078884205D28CF80010197A67
:102E100041F0010119729CF8001091420AD98CF816
:102E200000201A7A42F002021A72002070474FF016
:102E3000FF3070470020704770B505460C461646B7
:102E40001346012200212046FFF7DAFF034648B966
:102E50002378012B08D03346072200212846FFF7AC
:102E6000CFFF0346184670BD33460322014628466D
:102E7000FFF7C6FF0346F5E738B50C46134615467F
:102E80000C220121FFF7BCFF00B138BD2B46032205
:102E900000212046FFF7B4FFF7E738B504460B469C
:102EA0000D46012200210230FFF7AAFF00B138BD14
:102EB0002B460222002120460130FFF7A1FF002807
:102EC000F5D12B460122002120460530FFF798FF5F
:102ED0000028ECD12B460D2206212046FFF790FF5B
:102EE0000028E4D12B460122002120460330FFF7C1
:102EF00087FF0028DBD12B46042200212046104406
:102F0000FFF77EFFD3E708B50B460B220121053002
:102F1000FFF776FF08BD38B1826B42B1C26B4AB190
:102F2000036C53B1002070474FF0FF3070474FF0F3
:102F3000FF3070474FF0FF3070474FF0FF30704761
:102F400030B50546002301E00133DBB292F81AC028
:102F50009C450FD9506A03EB430C00EB0C0410F8AE
:102F60000CE08E45F0D130F80C20A3782A80AB70AD
:102F7000012000E0002030BD00B5864694460023C5
:102F8000184616E06FF0070011E0202A06D1DCF8A1
:102F9000042042F00102CCF8042008E06FF00700A2
:102FA00005E0DCF8002042F00102CCF800200133FB
:102FB000DBB28B4216D21EF80320022A0BD0E4D8D3
:102FC000002AEED0012ADDD1DCF8002042F0020216
:102FD000CCF80020EBE7DCF8002042F00402CCF84B
:102FE0000020E4E700BD2DE9F041A0B007460E4601
:102FF00015461C461846FFF78EFF002838D180463C
:10300000002E39D0637A13B947F080031F46E27A65
:1030100063682A4469463846A76BB847A07294F89B
:103020004730012B08D0236C61680220984794F93F
:103030000A303BB9184615E0236C61684FF4E17023
:103040009847F4E76FF0010398460DE094F80BC041
:1030500084440CF180030DEB030C1CF8803C3354CA
:10306000013080B2A842F1D3404620B0BDE8F081E3
:103070004FF0FF339846F7E74FF0FF339846F3E7FA
:1030800000B583B0034601220DF107011B20FFF7B5
:10309000AAFFA8B99DF80730C3F382038DF8073063
:1030A000022B0BD005D85BB1012B09D16FF00400C6
:1030B00006E0032B04D16FF0060001E06FF005007D
:1030C00003B000BD30B583B004460D460023ADF813
:1030D00004300846FFF71FFFC0B9D4B12B460222C7
:1030E00001A94020FFF77FFF70B99DF80430DA098D
:1030F000A270C3F30212627003F00F0323709DF8F5
:10310000053003F00303E37003B030BD4FF0FF3030
:10311000FAE74FF0FF30F7E730B583B004460D46CD
:103120000023ADF804300846FFF7F5FEF0B904B30C
:103130002B46022201A94220FFF755FFA0B99DF8B6
:103140000430DA09A270C3F380126271C3F3011272
:10315000627003F00F0323709DF80530C3F3C002C3
:10316000E27003F00703237103B030BD4FF0FF306E
:10317000FAE74FF0FF30F7E710B582B004460B4690
:1031800001220DF107016B20FFF72DFF20B99DF8FB
:103190000730C3F34013237002B010BD30B583B0C5
:1031A00004460D460023ADF804300B46022201A967
:1031B0004B20FFF718FF88B99DF804305B08E371D6
:1031C0009DF80530DA096270C3F38011A170C3F372
:1031D0008101E17003F0030323710AB103B030BD34
:1031E0002B46012204F108014D20FFF7FCFEF5E714
:1031F00030B585B004460D4600234381C381038268
:1032000043614FF000020276838101A8FFF7C6FFF9
:1032100090B92B6B13F4802F10D009232377637799
:103220000B23A3770F23E377112384F8203084F84E
:103230002130172384F8223005B030BD9DF80830C6
:103240000BB90122A277012B13D0022B14D0032B30
:1032500015D00623237763770C23E377A37F9A1D8A
:10326000D2B284F8202084F821200C3384F8223054
:10327000E2E70222A277E8E70622A277E7E708233F
:10328000A377E6E710B582B004460B4601220DF1A4
:1032900007014420FFF7A7FE30B99DF807301A094F
:1032A000A27103F00F03637102B010BD38B505467B
:1032B0000C460846FFF72FFE88B99DB121462846E7
:1032C000FFF75AFF00B138BD21462846FFF766FFD9
:1032D0000028F8D121462846FFF7D4FFF3E74FF046
:1032E000FF30F0E74FF0FF30EDE72DE9F0470646FD
:1032F000894690461C461846FFF70DFE002845D12A
:103300008246B9F1000F45D0637A0BB906F07F060B
:1033100094F84730012B2AD0E56B63684246494652
:103320003046A847A072236C6168022098477C2E23
:103330001FD094F90A308BBB5046BDE8F0870135A9
:10334000ADB24545F3D256FA85F06368012209EB28
:103350000501C0B2E76BB847A072236C61684FF4F7
:10336000E170984794F90A30002BE8D0DFE7002598
:10337000E7E799F8003013F0010F03D0012384F838
:103380004730D6E7002384F84730D2E74FF0FF33C9
:103390009A46D1E74FF0FF339A46CDE76FF001032D
:1033A0009A46C9E770B582B015461A461E460023F4
:1033B000ADF80430C0B10446C1F343038DF80430C6
:1033C000C1F347118DF805101346022201A95B20B5
:1033D000FFF78BFF08B102B070BD33462A46214685
:1033E0005E20FFF782FFF6E74FF0FF30F3E730B5DE
:1033F00083B004460D4600238DF807300B460122AA
:103400000DF107015920FFF7EEFD08B103B030BD03
:103410009DF8073023F0010304F0010003438DF809
:1034200007302B4601220DF107015920FFF75DFF00
:10343000ECE770B582B004460D46164600238DF8C1
:103440000730134601220DF107017D20FFF7CBFD68
:1034500048BB14F0010F05D09DF8073043F004037A
:103460008DF8073014F0020F05D09DF8073043F0B7
:1034700002038DF8073014F0040F05D09DF80730D3
:1034800043F001038DF8073015F0010F05D09DF8CA
:10349000073043F008038DF8073004F0070405F007
:1034A00001010C4301D102B070BD334601220DF180
:1034B00007017D20FFF719FFF5E730B583B004461B
:1034C0000A460D460023ADF80430811C0130FFF799
:1034D000B3FC08B103B030BD2A46E11C2046FFF71B
:1034E000CBFC0028F6D19DF8043003F07F03A278CE
:1034F00043EAC2135BB223F070036278120102F058
:103500007002134323F00F03227802F00F021343DB
:103510008DF804309DF80520E37803F0030322F0D2
:10352000030213438DF805302B46022201A94020E7
:10353000FFF7DBFE0028CDD12846FFF7A1FDC9E744
:1035400030B583B004460D460023ADF80430FFF7D4
:10355000A4FC08B103B030BD9DF8042002F07F0246
:10356000A37842EAC31252B222F0400263799B016F
:1035700003F040031A4322F0300263781B0103F08A
:1035800030031A4322F00F02237803F00F03134392
:103590008DF804309DF8053023F008035BB2E27823
:1035A000D20002F00802134323F00703227902F04D
:1035B000070213438DF805302B46022201A9422051
:1035C000FFF793FE0028C5D12846FFF759FDC1E754
:1035D00030B583B004460B460D4601220DF10701BC
:1035E0006B20FFF700FD08B103B030BD9DF8073038
:1035F0002278520102F0200223F0200313438DF8B9
:1036000007302B4601220DF107016B20FFF76DFEFD
:10361000EAE770B582B004460B460E4601220DF172
:1036200007014420FFF7DFFC054610B1284602B031
:1036300070BD9DF80730A27903F00F0343EA02132F
:10364000DBB28DF80730627923F00F0302F00F022E
:1036500013438DF80730334601220DF10701442052
:10366000FFF743FE0546336C71684FF47A70984754
:10367000DCE730B583B005460C4600238DF80730F3
:103680000846FFF748FC08B103B030BD23460122CD
:103690000DF107017C20FFF7A6FC0028F4D19DF86E
:1036A000073005F0010023F0010318438DF80700EF
:1036B000234601220DF107017C20FFF716FE30B9E9
:1036C0009DF8073003F0010384F84730DCE76FF022
:1036D0000C00D9E7F8B50446B0F84A60C289B6FBD9
:1036E000F2F302FB13639FB2DDB201460020FFF745
:1036F000C0FF034608B11846F8BD2146FFF777FE24
:1037000003460028F7D17DB1FFB2F71BBFB20025F9
:103710001AE060692346E28929462844FFF742FE01
:103720000346E2891544ADB2B54227D2002BF0D052
:1037300024E060692346E28929462844FFF732FEE7
:103740000346E2891544ADB2BD4201D2002BF0D050
:10375000002BD0D1E5890222E2810AE0606923468C
:10376000E28939463844FFF71DFE0346E2893A44B0
:1037700097B2B74201D2002BF0D0E581002BBAD12D
:1037800021460120FFF733FE03460028B3D121462E
:103790000120FFF76EFF0346ADE770B582B0044627
:1037A0000D460023ADF804304FF000028DF80620DE
:1037B0000846FFF7B0FB00286BD1002C6CD02678B0
:1037C000731EDBB2022B6AD82B46032201A95320B9
:1037D000FFF709FC002838D1012E01D0032E20D19B
:1037E0009DF8043023F002035BB2A278520002F08D
:1037F0000202134323F00403E278920002F0040271
:10380000134323F008032279D20002F00802134385
:1038100023F010036279120102F0100213438DF8B5
:103820000430023EF6B2012E11D99DF806206378CD
:1038300003F0010322F0010213438DF806302B46FA
:10384000032201A95320FFF750FD02B070BD9DF87F
:10385000053023F002035BB2A279520002F00202AB
:10386000134323F00403E279920002F004021343AD
:1038700023F00803227AD20002F00802134323F057
:103880001003627A120102F0100213438DF8053022
:10389000CBE74FF0FF30D8E74FF0FF30D5E76FF0C0
:1038A0000B00D2E730B583B004460D460023ADF8D7
:1038B00004300846FFF72FFB80B994B12B46022253
:1038C00001A91C20FFF78FFB30B99DF804309DF84B
:1038D000052043EA0223238003B030BD4FF0FF30C0
:1038E000FAE74FF0FF30F7E770B582B004460D46B7
:1038F0001046164600220023CDE90023FFF70BFBFC
:1039000070B984B16A4629462046FFF735FB08B1F5
:1039100002B070BD3246DDE90001FFF78AFDF7E72E
:103920004FF0FF30F4E74FF0FF30F1E770B582B0B1
:1039300005460C460023ADF804300846FFF7EBFAC5
:10394000002837D1002D38D021462846FFF750FCFB
:1039500030BB637A33B326206368AA882968A66BD4
:10396000B047A07294F84730012B1DD0236C6168DA
:103970000220984794F90A3013BB2346022201A97A
:103980004820FFF730FB58B99DF8052002F01003DE
:10399000AB719DF8043043EA022303F460432B81AA
:1039A00002B070BDA620D7E7236C61684FF4E170C8
:1039B0009847DFE74FF0FF30F2E74FF0FF30EFE7D7
:1039C0006FF00100ECE7F8B506460F4614461D46B9
:1039D0001846FFF7A0FAB0B9C6B1D7B1E4B1638910
:1039E0000BB9EB7A6381A37933B92B46224639466A
:1039F0003046FEF7D6FDF8BD2B4622463946304606
:103A0000FEF75CFEF7E74FF0FF30F4E74FF0FF30D2
:103A1000F1E74FF0FF30EEE74FF0FF30EBE7F8B59E
:103A200006460F4614461D461846FFF774FAB0B90D
:103A3000C6B1D7B1E4B1238A0BB9EB7A2382A3795B
:103A400033B92B46224639463046FFF705F8F8BD14
:103A50002B46224639463046FFF741F9F7E74FF04B
:103A6000FF30F4E74FF0FF30F1E74FF0FF30EEE7C3
:103A70004FF0FF30EBE730B583B004460D4600232E
:103A8000ADF804300846FFF746FA08B103B030BD80
:103A90008DF80440200A8DF805002B46022201A96A
:103AA0004620FFF722FCF1E730B583B004460D460F
:103AB0000023ADF804300846FFF72DFAA0B9B4B1E1
:103AC0002B46022201A92420FFF78DFA50B99DF858
:103AD000053003F03F038DF805309DF8042042EADD
:103AE0000323238003B030BD4FF0FF30FAE74FF0DF
:103AF000FF30F7E738B505460C460846FFF70BFAE6
:103B000038B94DB12346012229460320FFF76BFA4D
:103B100038BD4FF0FF30FBE74FF0FF30F8E770B5EE
:103B200082B006460D460023ADF804308DF8033010
:103B30000B46022201A94B20FFF755FA0446002844
:103B400068D19DF80430F27903F0010343EA42039F
:103B50008DF804309DF80530727803F07F0343EA56
:103B6000C213DBB28DF80530B278920102F0400248
:103B700023F0400313438DF80530F278920002F0F1
:103B80000C0223F00C0313438DF80530327923F037
:103B9000030302F0030213438DF8053017E0EB76C0
:103BA0002B46012206F108014D20FFF79EFB04463B
:103BB0002B6C69684FF47A7098472BE02B6C69681E
:103BC00042F2107098470134E4B2142C20D82946F0
:103BD0000DF10300FFF78EFF0028EFD19DF80330B1
:103BE00013F0040FEAD12B46022201A94B20FFF764
:103BF0007CFB04462B6C69684FF47A7098474CB98B
:103C00007378002BCBD00123EB76F3782B7701E090
:103C10006FF00E04204602B070BD38B504460D4664
:103C2000FFF771F900B138BD29462046FFF7D0FCF7
:103C30000028F8D129462046FFF771FF0028F2D16D
:103C400029462046FFF7E5FCEDE7F0B583B00746CF
:103C50000C4615460301D9B20E4600238DF80730F5
:103C6000134601220DF107015820FFF7BCF940BBB4
:103C7000032C2FD8022C26D009D894B1012C19D1AD
:103C80009DF807303A461A438DF8072012E0032CBE
:103C900010D13B4633439DF8072013438DF807307E
:103CA00008E03B463343DB435BB29DF807201340FB
:103CB0008DF807302B4601220DF107015820FFF740
:103CC00014FB03B0F0BD9DF8073032461A438DF85F
:103CD0000720EFE76FF00B00F3E738B505460C4619
:103CE0000846FFF718F960B975B1236C616844F6AE
:103CF000206098472346012229462120FFF773F9C7
:103D000038BD4FF0FF30FBE74FF0FF30F8E710B55C
:103D100082B0044600238DF80730FFF7FCF838BB6B
:103D2000B4F84A303BB3E38913F0010F01D0013BF3
:103D3000E381E389012B05D92046FFF7CBFC20B1B5
:103D400002B010BD0223E381F6E721460DF1070022
:103D5000FFF7C3FF9DF8073003F00F038DF807301E
:103D600063740028ECD1012BEAD06FF00800E7E77C
:103D70004FF0FF30E4E74FF0FF30E1E730B583B0BC
:103D80000446B6238DF8073000238DF80630FFF780
:103D9000C2F8054610B1284603B030BD23460122C3
:103DA0000DF107017E20FFF7A0FA0546236C61683C
:103DB0004FF4FA609847012384F847303DB9637A9D
:103DC00063B1002DE7D12046FFF7A1FF0546002D86
:103DD000E1D100220023C4E90C23DCE723460122C1
:103DE0000DF106010020FFF7FEF80546E9E70000A7
:103DF00010B582B0044600238DF807301E4B93E8BF
:103E000003000090ADF804102046FFF784F8034645
:103E100028B9012284F84720627A1AB153B11846B2
:103E200002B010BD234601220DF10701FFF7DBF8B8
:103E30000346F3E7234601220DF107010020FFF7B7
:103E4000D2F803460028EAD122789DF807309A423A
:103E50000DD1102323730123E37602AB13E9030092
:103E6000A062A1852046FFF789FF0346D7E72370AC
:103E70006FF00203D3E700BFE4F600082DE9F0433A
:103E800083B08DF80700002946D015468946002AE0
:103E900045D0127EC3B29A4244D92B4601220DF17D
:103EA00007012F20FFF721FA98BBEB890F2B2AD8A7
:103EB00013F0010F01D0013BEB8100264FF03008D9
:103EC000374610240CE02B46224609EB06014046FB
:103ED000FFF789F83C44E7B2C7F11004E4B2C0B977
:103EE000BCB1EA899442EED32B4609EB0601404669
:103EF000FFF779F8AB7B1E44F6B298445FFA88F876
:103F00003B44DFB2E8E72B46102249463020FFF75A
:103F10006AF803B0BDE8F0834FF0FF30F9E74FF0E7
:103F2000FF30F6E76FF00900F3E730B587B00546DC
:103F30000C46002302930393049305938DF80430F9
:103F40008DF805308DF80630B1F8483013F0200FA9
:103F500012D00B4601220DF107011E20FFF743F896
:103F600030B99DF8073013F0400F03D0803B2B8011
:103F700007B030BD2B80FBE70A46292101A8FEF7D8
:103F8000DFFFC8B1224602A99DF80500FFF776FFC2
:103F90000028EDD19DF8063018336B4413F8101C3F
:103FA00001F07F0203F8102C11F0400F02D0803A8C
:103FB0002A80DDE72A80DBE76FF00700D8E730B51D
:103FC00087B004460D4600230293039304930593A0
:103FD0008DF804308DF805308DF806300A46092139
:103FE00001A8FEF7ADFF00B32A4602A99DF805001F
:103FF000FFF744FFB8B99DF8063018336B4413F847
:10400000102C02F00102227013F8102CC2F34002AF
:10401000627013F8102CC2F38002A27013F8103CE7
:10402000C3F3C203E37007B030BD6FF00700FAE7D7
:104030002DE9F04705460E4617461046FEF76BFF82
:1040400000283DD1002D3ED097F8478004460FE070
:1040500039460020FFF70DFB19E039460AF104004C
:10406000FFF763FFE8B9B8F1010F22D00134E4B2E1
:10407000B44216D204EB84034FEA830905EB830AAA
:1040800015F82330032B02D9B8F1010FE0D0002836
:10409000E9D115F80930092B05D0292BDDD06FF0B7
:1040A0000700BDE8F08739460AF10400FFF787FFF3
:1040B000D8E70028DAD139460120FFF7DAFAD5E748
:1040C0004FF0FF30EDE74FF0FF30EAE7B0F848304F
:1040D00013F0020F14D010B586B00446FEF71BFF94
:1040E00088B929238DF804302246012101A8FFF761
:1040F0009FFF18B9BDF90830A4F8443006B010BDD0
:104100006FF0070070474FF0FF30F7E730B5054616
:10411000002301E00133DBB292F819C09C450FD9AE
:10412000106A03EB430C00EB0C0410F80CE08E4516
:10413000F0D130F80C20A3782A80AB70012000E089
:10414000002030BD30B587B005460C4600230293F1
:104150000393049305938DF804308DF805308DF8A2
:1041600006300A46092101A8FFF7D0FF002853D0E6
:10417000224602A99DF80500FFF780FE002849D1DC
:104180009DF806C04FEA5C0C02AB33F81C102A887D
:10419000C2F30A0201F478410A4323F81C200CF10F
:1041A000010033F810106A88C2F30A0201F4784162
:1041B0000A4323F810200CF1020033F81010AA88EB
:1041C000C2F30A0201F478410A4323F810200CF1EB
:1041D000030E4FEA4E0E5FFA8EFE9DF80620AEEB00
:1041E000020E5FFA8EFE00200CE000EB020C02AB28
:1041F00013F80C300CF118010DEB010C0CF8103C0D
:104200000130C0B27045F0D32346102202A93020FD
:10421000FFF76BF807B030BD6FF00700FAE72DE944
:10422000F04105460F4616461046FEF774FE00287C
:1042300047D1002D48D096F8478004461DE031460E
:104240000020FFF716FA1DE06FF00700B8F1010F2C
:1042500030D0BDE8F081092B04D131460230FFF7A0
:1042600071FF06E06FF00700F0E731460230FFF71C
:1042700024F90028EAD10134E4B2BC42E6D2B8F114
:10428000010FDCD00028E1D1342304FB03F3E8184C
:10429000EB5C022B09D0DED8002BE6D0012BD3D16A
:1042A00031460230FFF74CF9E3E731460230FFF7C1
:1042B000B4FCDEE70028CCD131460120FFF7D9F964
:1042C000C7E74FF0FF30C4E74FF0FF30C1E730B52C
:1042D00087B005460C46002302930393049305938D
:1042E0008DF804308DF805308DF806300A46092126
:1042F00001A8FFF70BFF00283DD0224602A99DF838
:104300000500FFF7BBFDA0BB9DF8063003F1010CD3
:1043100003F118026A4412F8102C991C06AC54FAE6
:104320008CFC1CF810CC42EA0C22C2F30A022C4688
:104330002A8003F1030C06AA52FA81F212F8102C1B
:10434000191D06AD55FA8CFC1CF810CC42EA0C2263
:10435000C2F30A026280053355FA81F212F8102C7A
:1043600055FA83F313F8103C42EA0323C3F30A031C
:10437000A38007B030BD6FF00700FAE72DE9F047E2
:104380000646884617461046FEF7C5FD002851D15F
:10439000002E52D097F8479005461FE0394600207E
:1043A000FFF767F929E06FF00700B9F1010F3AD084
:1043B000BDE8F087092B05D139460AF10200FFF765
:1043C00086FF07E06FF00700EFE739460AF10200C9
:1043D000FEF778FE0028E8D10135EDB24545E4D27C
:1043E000342405FB04F406EB040A335D032B01D8E7
:1043F000022B02D1B9F1010FD0D00028D5D1335D05
:10440000022B0AD0D6D8002BDFD0012BCBD13946D6
:104410000AF10200FEF780FEDCE739460AF10200ED
:10442000FEF744FFD6E70028C2D139460120FFF746
:1044300020F9BDE74FF0FF30BAE74FF0FF30B7E7A4
:1044400070B586B005460023029303930493059349
:104450008DF804308DF805308DF80630B1F848300D
:1044600013F0100F11D10C4691F847301E46012B66
:104470000ED02246242101A8FFF748FE70B96FF044
:104480000700012E1AD006B070BD00202870FAE790
:104490000020FFF7EEF80028F5D1EAE7224602A94E
:1044A0009DF80500FFF7EAFC0028EAD19DF80630E8
:1044B00018336B4413F8103C2B70E2E70028E2D16C
:1044C00021460120FFF7D5F8DDE770B586B000235F
:1044D00002930393049305938DF804308DF805300F
:1044E0008DF80630B1F8483013F0100F41D10C466A
:1044F0004008FF2812D8C3B21E4694F847301D4624
:10450000012B0ED02246242101A8FFF7FFFD78B928
:104510006FF00700012D25D006B070BDFF231E46A9
:10452000EBE721460020FFF7A4F80028F4D1E9E7E3
:10453000224602A99DF80500FFF7A0FC0028E9D15A
:104540009DF8061001F118036B4403F8106C01F19B
:104550003000234602220DF1080C6144C0B2FEF780
:10456000C4FED7E70028D7D121460120FFF781F804
:10457000D2E70020D0E72DE9F04182B00E46144684
:104580000023ADF804308DF8033000F003031D461E
:10459000030A1F4698461046FEF7BDFC10B102B054
:1045A000BDE8F0812346022201A94820FEF71BFD49
:1045B0000028F4D13DB1012E17D09DF8043023EA34
:1045C00005038DF80430012E15D09DF80520FB431E
:1045D0005BB213408DF805300028E0D1234602225B
:1045E00001A94820FEF781FED9E79DF804302B434E
:1045F0008DF80430E7E79DF80530424613438DF807
:104600000530B4F8483013F0010FE5D021460DF124
:104610000300FFF715FF0028C1D19DF80330002BE0
:10462000DAD121460220FFF750FFD5E738B1826B7F
:1046300042B1C26B4AB1036C53B1002070474FF0D6
:10464000FF3070474FF0FF3070474FF0FF3070473A
:104650004FF0FF307047000010B50446FFF7E6FF4B
:1046600090B9242323704FF40053A4F84A30032355
:10467000A4F84830637A43B90123E37263693BB11C
:104680002046FFF7B5FB30B110BD0023E372F5E71C
:104690000A4B6361F4E70A4B23620A4B6362082307
:1046A0002376112262760722A276074AE26584F811
:1046B00060302046FFF70AFDE6E700BFE4FB000894
:1046C000B0FB000898FB00080000002008B5034973
:1046D000034806F02DFF034B187008BDA4180020F6
:1046E000E41B0108A81800200020704738B5144CBE
:1046F000072363600025A560E560802323614FF4F4
:10470000007363614FF40063A3614FF4405323626D
:104710000C4B23600464A062204602F02CFF20466C
:1047200002F088FE204602F001FE04462A460621D9
:104730003B2003F0A7F83B2003F0B4F8204638BD37
:10474000080200204404024038B5154C072363607A
:104750001023A3600025E560802323614FF40073DC
:1047600063614FF40063A3614FF4405323620D4B28
:104770002360C463A062204602F0FDFE204602F0E2
:1047800059FE204602F0D2FD04462A4606213B206F
:1047900003F078F83B2003F085F8204638BD00BFD1
:1047A000080200204404024008B5034804F069F9F7
:1047B000043818BF012008BDE815002008B50146DF
:1047C000014804F0A3F808BDE8150020704708B5BB
:1047D000FFF7FCFF08BD08B500F008F908BD08B5F3
:1047E00000F00AF908BD000038B5FCF78FFC01287D
:1047F00003D002231C46204638BD0546074804F076
:1048000017F904460028F6D14FF40061034804F07C
:104810008FF80028EFD02C46EDE700BFE815002008
:1048200008B5074B01221A70FFF7BEFF20B9044AF2
:10483000137803F0FE031370014B187808BD00BF16
:104840001000002010B50446FFF7CEFF10B1044B56
:10485000187810BD2046FFF7E3FF014B1870F6E70C
:104860001000002008B5FFF7DBFF08BD38B505468E
:1048700000F00CF9044600F009F9001BA84204D22C
:10488000FFF792FF0028F6D101E04FF0FF3038BD6E
:1048900070B50E4615461C4647F23050FFF7E6FF4E
:1048A00000282FDB224629463046FCF723FA08B1C0
:1048B000012028E0144B186000F0E8F80446124B81
:1048C0001B6833B900F0E2F8001B47F22F539842FF
:1048D000F5D90D4B1B680BB9012014E00A4B0022DF
:1048E0001A6000F0D3F8044600F0D0F8001B47F23D
:1048F0002F53984204D8FFF757FF0028F4D102E065
:10490000012000E0012070BDAC18002070B50E46FB
:1049100015461C461C4B00221A6047F23050FFF728
:10492000A5FF00282DDB224629463046FCF7FAF980
:1049300008B1012026E000F0A9F80446124B1B68DC
:1049400033B900F0A3F8001B47F22F539842F5D972
:104950000D4B1B680BB9012014E00B4B00221A60B1
:1049600000F094F8044600F091F8001B47F22F5332
:10497000984204D8FFF718FF0028F4D102E0012084
:1049800000E0012070BD00BFB018002030B589B034
:10499000154B187810F001041FD11546022916D0C6
:1049A0000AD8F1B1012905D16846FFF707FF069B38
:1049B0002B6013E0042411E0032906D16846FFF7B9
:1049C000FDFE079B5B0A2B6008E0042406E06846B6
:1049D000FFF7F4FE079B2B8000E00324204609B07C
:1049E00030BD0C46FAE700BF10000020014B012249
:1049F0001A607047B0180020014B01221A607047FE
:104A0000AC180020104B1B780BB90120704710B573
:104A100004460E4A10684FF47A72B2FBF3F3B0FB0F
:104A2000F3F002F047FF68B90F2C01D901200AE02A
:104A3000024621464FF0FF3002F024FF044B1C6079
:104A4000002000E0012010BD11000020180000200F
:104A50001400002010B5032002F002FF0F20FFF722
:104A6000D1FF18B101231C46204610BD0446FDF7B6
:104A7000E3F9F9E7034B1B78034A11680B44136011
:104A8000704700BF11000020B4180020014B1868C7
:104A9000704700BFB418002038B50446FFF7F6FF92
:104AA0000546B4F1FF3F02D0044B1B781C44FFF7CE
:104AB000EDFF401BA042FAD338BD00BF110000201B
:104AC00030B583B00546204B9B6D13F0805F0BD053
:104AD00002F01EFEB0F5007F17D0802D1FD82DD01C
:104AE000702D2DD000211BE0174CA36D43F0805397
:104AF000A365A36D03F080530193019B02F008FEB0
:104B0000A36D23F08053A365E4E7802D03D9A02D86
:104B100003D9022104E0002102E0012100E0032189
:104B20000A4A136823F007030B431360136803F06A
:104B300007038B4206D1002003B030BD0221EFE70E
:104B40000121EDE70120F7E70010024000200240BC
:104B5000254A9368D26802F0030213F00C0309D0CF
:104B60000C2B05D0042B3BD0082B3BD000200FE0B2
:104B7000012AF7D11C4A126812F0080F0CD11A4A08
:104B8000D2F89420C2F30322184951F8220013B13D
:104B90000C2B06D000207047134A1268C2F3031290
:104BA000F2E7114BDB6803F00303022B16D0032B53
:104BB00000D10F480C49CA68C2F302120132CB6817
:104BC000C3F3062300FB03F3B3FBF2F3C868C0F39F
:104BD000416001304000B3FBF0F070470548E9E761
:104BE000044870470248704700100240F81B010853
:104BF00000127A000024F400002800F0F382F0B5DF
:104C000083B00446964B9D6805F00C05DB6803F005
:104C100003031E46036813F0100F5AD0E5B10C2DA4
:104C200018D0A369002B00F0BB808D4A136843F0B5
:104C300001031360FFF72AFF0746894B1B6813F037
:104C4000020F40F09A80FFF721FFC01B0228F4D921
:104C50000320D2E2012EE4D1814B1B6813F0020F36
:104C600003D0A369002B00F0BF82206A7C4B1B6835
:104C700013F0080F5BD07A4B1B6803F0F0039842E7
:104C80005CD8774B1A6842F008021A601A6822F062
:104C9000F002216A0A431A605A6822F47F42E169ED
:104CA00042EA01225A60002D60D0FFF751FF6C4BA1
:104CB0009B68C3F303136B4AD35C03F01F03D84014
:104CC000694B1860694B1868FFF79CFE002840F09C
:104CD0009482236813F0010F00F08180082D75D0B5
:104CE0000C2D71D06368B3F5803F00F09780B3F569
:104CF000A02F00F099805A4B1A6822F480321A6073
:104D00001A6822F480221A606368002B00F09980F0
:104D1000FFF7BCFE0746524B1B6813F4003F5ED101
:104D2000FFF7B4FEC01B6428F5D9032065E24C4BA5
:104D3000D3F894301B0903F0F003A0E7FFF7C0FE9F
:104D4000002840F05382464B1A6842F008021A606D
:104D50001A6822F0F002216A0A431A605A6822F4A3
:104D60007F42E16942EA01225A609EE7206AFFF72A
:104D7000A7FE002899D001203FE2394B1A6842F083
:104D800008021A601A6822F0F002216A0A431A60C7
:104D90005A6822F47F42E16942EA01225A6098E7A8
:104DA0002F4A136823F001031360FFF76FFE0746D5
:104DB0002B4B1B6813F0020F8BD0FFF767FEC01B55
:104DC0000228F5D9032018E2032E8BD1244B1B684F
:104DD00013F4003F03D06368002B00F009822368BE
:104DE00013F0020F57D0042D44D00C2D40D0E368AF
:104DF000002B76D01A4A136843F480731360FFF7D0
:104E000045FE0646164B1B6813F4806F60D1FFF712
:104E10003DFE801B0228F5D90320EEE1104A1368FD
:104E200043F4803313606FE703F18043A3F53C3311
:104E30001A6842F480221A601A6842F480321A60BA
:104E400062E7FFF723FE0746054B1B6813F4003F9C
:104E5000C5D0FFF71BFEC01B6428F5D90320CCE1A9
:104E600000100240301C010818000020140000202F
:104E7000022EBCD1A44B1B6813F4806F03D0E368EF
:104E8000002B00F0B781A04A536823F0F853216942
:104E900043EA01635360236813F0080F4CD0636941
:104EA0009BB3994AD2F8943043F00103C2F894308E
:104EB000FFF7ECFD0646944BD3F8943013F0020F45
:104EC0003AD1FFF7E3FD801B0228F4D9032094E1D7
:104ED0008D4A536823F0F853216943EA0163536014
:104EE000D9E7894A136823F480731360FFF7CEFD76
:104EF0000646854B1B6813F4806FCCD0FFF7C6FDC8
:104F0000801B0228F5D9032077E17F4AD2F894303C
:104F100023F00103C2F89430FFF7B8FD06467A4B40
:104F2000D3F8943013F0020F06D0FFF7AFFD801BCB
:104F30000228F4D9032060E1236813F0040F7CD029
:104F4000714B9B6D13F0805F37D16F4B9A6D42F0C0
:104F500080529A659B6D03F080530193019B01235E
:104F60001F466A4B1B6813F4807F29D0A368012B6E
:104F70003AD0052B40D0644BD3F8902022F00102A8
:104F8000C3F89020D3F8902022F00402C3F89020B8
:104F9000A368002B3ED0FFF779FD06465A4BD3F8A5
:104FA000903013F0020F47D1FFF770FD801B41F2E4
:104FB00088339842F2D903201FE100231F46D0E72F
:104FC000524A136843F480731360FFF75FFD06468F
:104FD0004E4B1B6813F4807FC8D1FFF757FD801B31
:104FE0000228F5D9032008E1474AD2F8903043F06F
:104FF0000103C2F89030CBE7434BD3F8902042F046
:105000000402C3F89020D3F8902042F00102C3F8C4
:105010009020BDE7FFF73AFD06463B4BD3F89030B2
:1050200013F0020F08D0FFF731FD801B41F28833E7
:105030009842F2D90320E0E0EFB9A36A002B00F018
:10504000DB80022B1DD00C2D00F0DD802E4A136872
:1050500023F080731360FFF719FD04462A4B1B6889
:1050600013F0007F00F0B780FFF710FD001B02284F
:10507000F4D90320C1E0244A936D23F08053936553
:10508000DBE7214BDB6803F00301E26A91420FD0BA
:105090000C2D00F0B4801C4B1B6813F0806F40F0A7
:1050A000B080194B1B6813F0805F31D00120A4E061
:1050B00003F07002216B0139B2EB011FE8D103F458
:1050C000FE42616BB2EB012FE2D103F40031A26B1F
:1050D000073A18BF01229142DAD103F4C001E26B12
:1050E0005208013AB1EB425FD2D103F0C063226CA7
:1050F0005208013AB3EB426FCAD1034B1B6813F05D
:10510000007F4ED0002078E0001002400070004088
:105110003E4A136823F080731360FFF7B7FC05461F
:105120003A4B1B6813F0007F06D0FFF7AFFC401B23
:105130000228F5D9032060E0344AD3683449194085
:10514000E36A206B013843EA0013606B43EA0023F3
:10515000E06B4008013843EA4053206C40080138B6
:1051600043EA4063A06B000943EA40431943D1601E
:10517000136843F080731360D36843F08073D36087
:10518000FFF784FC0446214B1B6813F0007F06D117
:10519000FFF77CFC001B0228F5D903202DE000203E
:1051A0002BE01A4B1A6842F080721A60DA6842F0FB
:1051B0008072DA60FFF76AFC0446144B1B6813F038
:1051C000007F06D1FFF762FC031B022BF5D90320F9
:1051D00013E0002011E00D4AD1680E4B0B40D36064
:1051E00000200AE001207047012006E0012004E0D1
:1051F000012002E0012000E0184603B0F0BD0120CC
:10520000FBE70120F9E70120F7E700BF00100240AB
:105210008C809DF9FCFFEEFE002800F0AF8070B599
:105220000D460446594B1B6803F007038B420BD213
:10523000564A136823F007030B431360136803F007
:1052400007038B4240F09C80236813F0020F0CD0C0
:10525000A2684F4B9B6803F0F0039A4205D94C4972
:105260008B6823F0F0031A438A60236813F0010F60
:1052700039D06368032B09D0022B26D063BB444A84
:10528000126812F0020F06D1012076E0404A12683F
:1052900012F0007F76D03E498A6822F00302134361
:1052A0008B60FFF7F3FB0646394B9B6803F00C035A
:1052B0006268B3EB820F16D0FFF7E8FB801B41F268
:1052C00088339842F0D9032057E0314A126812F42B
:1052D000003FE0D1012050E02D4A126812F4806FA7
:1052E000D9D1012049E0236813F0020F0CD0A26845
:1052F000274B9B6803F0F0039A4205D224498B6840
:1053000023F0F0031A438A60204B1B6803F0070365
:10531000AB420AD91D4A136823F007032B431360DD
:10532000136803F00703AB422ED1236813F0040F78
:1053300006D0174A936823F4E063E1680B43936057
:10534000236813F0080F07D0114A936823F46053C1
:10535000216943EAC1039360FFF7FAFB0C4B9B689A
:10536000C3F303130B4AD35C03F01F03D8400A4B6B
:1053700018600A4B1868FFF745FB70BD01207047A5
:105380000120FAE70120F8E70120F6E700200240BB
:1053900000100240301C01081800002014000020FA
:1053A000014B1868704700BF1800002008B5FFF7D0
:1053B000F7FF054B9B68C3F30223044AD35C03F059
:1053C0001F03D84008BD00BF00100240281C010880
:1053D00008B5FFF7E5FF054B9B68C3F3C223044AFA
:1053E000D35C03F01F03D84008BD00BF001002408B
:1053F000281C0108B0F5006F2BD0B0F5805F32D0CB
:105400000023B3F5000F38D0B3F1007F35D0002B67
:1054100054D103F1804303F50433186810F00060A1
:1054200053D0186910F480304FD01A46D868C0F3B2
:1054300002100130B1FBF0F11B69C3F306231269BE
:1054400012F4003F38D0112203FB01F0B0FBF2F060
:1054500070472E4BD3F8883003F44003B3F5400F68
:10546000CFD12B487047294BD3F8883003F04073D5
:10547000B3F1407FC5D126487047244B186810F01F
:10548000007022D0D86810F480301ED01A46D86838
:10549000C0F302100130B1FBF0F1DB68C3F3062367
:1054A000D26812F4003F05D0112203FB01F0B0FBDB
:1054B000F2F070470722F8E70722C5E7B3F5800F3F
:1054C00004D0B3F1807F01D0002070470F4B1868E3
:1054D00010F00050F9D0586910F48030F5D01A4619
:1054E000D868C0F302100130B1FBF0F15B69C3F37F
:1054F0000623526912F4003F05D0112203FB01F08C
:10550000B0FBF2F070470722F8E700BF001002403E
:1055100068FF1F00F8B504460F465F4BDB6813F0C9
:10552000030F1BD05C4BDB6803F00303026893425C
:1055300003D001231D462846F8BD002A00F0A580AF
:10554000554BDB68C3F3021301334268934202D028
:1055500001231D46EFE700231D461AE00368022BD6
:1055600059D0032B5FD0012B40F092804A4A126839
:1055700012F0020F64D04848C26822F073026168DA
:10558000013943EA01131343C36000231D46002D74
:10559000D1D1414A136823F080631360FFF776FA94
:1055A00006463D4B1B6813F0006F06D0FFF76EFAFE
:1055B000831B022BF5D903231D46002DBBD1002FE1
:1055C00041D135490B6923F41F3323F44073A0689C
:1055D000E2681209520442EA002213430B612E4A88
:1055E000136843F080631360FFF750FA06462A4BB6
:1055F0001B6813F0006F06D1FFF748FA801B0228E2
:10560000F5D903231D46002D95D1234A1369A169BD
:105610000B4313618FE7204A126812F4806FAAD1FE
:1056200001231D4687E71C4A126812F4003FA2D1ED
:10563000194A126812F4802F9DD101231D467AE782
:1056400001231D46A3E7012F0FD01348026922F062
:10565000C06222F4FE42A16863695B08013B5B06FD
:1056600043EA01231A430261B9E70B48026922F4B5
:10567000C00222F4FE42A16823695B08013B5B057E
:1056800043EA01231A430261A9E701231D4652E7B9
:1056900001231D464FE700BF00100240F8B5044645
:1056A0000F46554BDB6813F0030F1BD0524BDB68E2
:1056B00003F003030268934203D001231D462846EA
:1056C000F8BD002A00F092804B4BDB68C3F3021355
:1056D00001334268934202D001231D46EFE70023C5
:1056E0001D4619E00368022B58D0032B5ED0012B16
:1056F0007FD1414A126812F0020F64D03E48C2685E
:1057000022F073026168013943EA01131343C36055
:1057100000231D46002DD2D1374A136823F0805351
:105720001360FFF7B3F90646334B1B6813F0005FB5
:1057300006D0FFF7ABF9831B022BF5D903231D46D7
:10574000002DBCD1002F41D12B494B6923F41F33CD
:1057500023F44073A068E2681209520442EA00226E
:1057600013434B61244A136843F080531360FFF7DF
:105770008DF90646204B1B6813F0005F06D1FFF73A
:1057800085F9801B0228F5D903231D46002D96D1EB
:10579000194A536961690B43536190E7164A1268CD
:1057A00012F4806FAAD101231D4688E7124A1268BD
:1057B00012F4003FA2D1104A126812F4802F9DD13A
:1057C00001231D467BE701231D46A3E70A484269E2
:1057D00022F0C06222F4FE42A16823695B08013B0B
:1057E0005B0643EA01231A434261BBE701231D46DE
:1057F00065E701231D4662E7001002402DE9F041F4
:1058000082B00446036813F4006F38D0436EB3F5DA
:10581000000F18D00DD84BB3B3F5800F05D1002180
:105820002030FFF73BFF064625E001231F461E46BA
:1058300028E0B3F5400F02D100231E460AE0012301
:105840001F461E461EE0644AD36843F48033D3608B
:1058500000231E46604AD2F8883023F44003616E6C
:105860000B43C2F8883000231F460BE01946043072
:10587000FFF750FE0646002EECD0374602E000232C
:105880001F461E46236813F4805F32D0A36EB3F127
:10589000007F21D00ED82BB3B3F1807F06D1002139
:1058A00004F12000FFF7FAFE064606E001231F463A
:1058B0001E461EE0B3F1407F0AD1CEB9464AD2F867
:1058C000883023F04073A16E0B43C2F8883010E09B
:1058D00001231F461E460CE03F4AD36843F4803341
:1058E000D360EAE71946201DFFF714FE0646E4E7F9
:1058F0003746236813F4003F77D0374B9B6D13F086
:10590000805F52D1344B9A6D42F080529A659B6D04
:1059100003F080530193019B012398462F4A13689B
:1059200043F480731360FFF7B1F805462B4B1B68F7
:1059300013F4807F06D1FFF7A9F8401B0228F5D9A0
:1059400003231E46002E4BD106F1804303F504339A
:10595000D3F8903013F4407319D0D4F884209A42CD
:1059600012D01D4AD2F8903023F44073D2F8901030
:1059700041F48031C2F89010D2F8901021F48031B7
:10598000C2F89010C2F8903013F0010F10D1002E21
:1059900040F02981104AD2F8903023F44073D4F8B3
:1059A00084100B43C2F890301BE000239846B5E703
:1059B000FFF76CF80546084BD3F8903013F0020F50
:1059C000E5D1FFF763F8401B41F288339842F2D9E2
:1059D00003231E46DBE700BF0010024000700040BA
:1059E00037464346002B40F00081236813F0010F37
:1059F00008D09D4AD2F8883023F00303A16B0B43F3
:105A0000C2F88830236813F0020F08D0964AD2F803
:105A1000883023F00C03E16B0B43C2F88830236815
:105A200013F0040F08D0904AD2F8883023F03003E6
:105A3000216C0B43C2F88830236813F0080F08D09C
:105A4000894AD2F8883023F0C003616C0B43C2F856
:105A50008830236813F0100F08D0834AD2F88830BA
:105A600023F44073A16C0B43C2F88830236813F011
:105A7000200F08D07C4AD2F8883023F44063E16CD0
:105A80000B43C2F88830236813F4007F08D0764AAD
:105A9000D2F8883023F44023E16D0B43C2F88830FC
:105AA000236813F4806F08D06F4AD2F8883023F44B
:105AB0004013216E0B43C2F88830236813F0400F67
:105AC00008D0694AD2F8883023F44053216D0B4343
:105AD000C2F88830236813F0800F08D0624AD2F8E9
