:020000040800F2
:1000000000800120E56F0008E10B0008E30B000809
:10001000E50B0008E70B0008E90B000800000000F2
:10002000000000000000000000000000EB0B0008D2
:10003000ED0B000800000000EF0B0008F10B0008BA
:1000400035700008357000083570000835700008FC
:10005000357000083570000835700008F90B00088D
:1000600035700008357000083570000835700008DC
:1000700035700008357000083570000835700008CC
:1000800035700008357000083570000835700008BC
:1000900035700008357000083570000835700008AC
:1000A000357000083570000835700008357000089C
:1000B000357000083570000835700008357000088C
:1000C000357000083570000835700008357000087C
:1000D000357000083570000835700008357000086C
:1000E000357000083570000835700008357000085C
:1000F000357000083570000835700008357000084C
:10010000357000083570000835700008357000083B
:10011000357000083570000835700008357000082B
:10012000357000083570000835700008357000081B
:10013000357000083570000835700008357000080B
:1001400035700008357000083570000835700008FB
:1001500035700008357000083570000835700008EB
:1001600035700008357000083570000835700008DB
:100170003570000835700008357000080000000078
:0801800035700008357000081D
:1001900001F0FF01102A2BDB10F0070F08D010F838
:1001A000013B013A8B422DD010F0070F42B3F6D13C
:1001B000F0B441EA012141EA014122F007047FF055
:1001C00000070023F0E80256083C85EA010586EAAC
:1001D000010685FA47F5A3FA87F586FA47F6A5FAE8
:1001E00087F68EB9EED1F0BC01F0FF0102F00702F4
:1001F00032B110F8013B013A83EA010313B1F8D19F
:100200000020704701387047002D06BF354603387F
:10021000073815F0010F07D1013015F4807F02BFB8
:10022000013015F4C03F0130F0BC0138704700BF09
:100230000348044B834202D0034B03B11847704775
:100240007800002078000020000000000548064BE0
:100250001B1AD90F01EBA301491002D0034B03B1C4
:100260001847704778000020780000200000000048
:1002700010B5064C237843B9FFF7DAFF044B13B1EE
:100280000448AFF300800123237010BD78000020E4
:1002900000000000587F000808B5054B1BB1054958
:1002A0000548AFF30080BDE80840FFF7CFBF00BFAF
:1002B000000000007C000020587F00084FF06043E1
:1002C000D3F8803E13F0010F11D04FF06043D3F804
:1002D000003E13F0010F01D1704700BF4FF06043A3
:1002E0001B68002BF9D0C3B24FF060421370704707
:1002F000074B5A68074B1B680749A1FB03139B0C6C
:1003000003FB00F0024B5B689B1A8342FAD37047F1
:10031000001000E01800002083DE1B4300B585B00C
:100320004FF0FF33029392B20192009101230246F3
:10033000D021044805F095F908B905B000BD6FF06B
:100340000100FAE79800002000B585B04FF0FF33B8
:10035000029392B20192009101230246D0210448F7
:1003600005F04EFA08B905B000BD6FF00100FAE7DC
:100370009800002070B50C461646002504E014F8DD
:10038000010BFFF79BFF0135B542F8DB304670BD2E
:10039000022800D0704708B5034806F079FF034BE8
:1003A00001221A7008BD00BF787F00089400002069
:1003B00008B5B0FBF1F010F0010F06D10122402189
:1003C0004FF0904004F011FF08BD002240214FF093
:1003D000904004F00AFFF7E708B572B60122402109
:1003E0004FF0904004F001FFFEE700B597B04422C3
:1003F000002105A806F054FF002300930193029307
:10040000039304934FF4007005F02EFBC0B9102342
:10041000059301230B930C9060220D920F9005A879
:1004200003F028FA70B90F2300930146019002905F
:1004300003900490684603F02DFD28B917B000BD65
:10044000FFF7CAFFFFF7C8FFFFF7C6FF2DE9F0432C
:10045000ADF5875D87B0C44AD2F8FC3043F08073B5
:10046000C2F8FC30C14B00255D601A6842F0010201
:100470001A6003F02DF903F047F981460DF6D444D4
:1004800024222946204606F00BFF0DF6F843CDF84E
:10049000D43C4FF48063ADF8D83CFFF7A6FF00F0E2
:1004A0009BF900F051FA00F01DFB02F0F5FF00F09F
:1004B00077FAAF4806F0ECFE2A4602214FF0904052
:1004C00004F093FE0DF6684468222946204606F0A3
:1004D000E7FEA84BCDF8A03CA74BCDF8A43CA74B1A
:1004E000CDF8A83C01278DF8717CA5494B780A7896
:1004F000A44806F065FE0DF667468DF8675C4FF080
:10050000FF330293019700963B462A46D0219E482E
:1005100005F076F99DF8671C9C4806F051FE2046D0
:1005200002F080FF28B10146994806F049FEFFF726
:1005300053FF0DF66845284602F006FB0446DDF839
:10054000A83C29464FF4FA6098472CB121469148BF
:1005500006F036FEFFF740FF0DF5436400238DF8EB
:10056000303C0DF668452A460121204602F0ECFD9C
:100570004FF008088DF8328C01268DF8356C022773
:100580008DF8337C2A463146204602F02EFD8DF848
:10059000306C2A463146204602F0D6FD8DF8328C6A
:1005A00003238DF8363C8DF8337C2A4631462046AD
:1005B00002F01BFD0DF62C404FF4807303802A4699
:1005C000394602F077F8014620B1734806F0F8FD8D
:1005D000FFF702FF0DF6684201214DF2020002F022
:1005E000B0FE014620B16D4806F0EAFDFFF7F4FECB
:1005F0000DF668414FF4807002F023F9014620B1F6
:10060000674806F0DDFDFFF7E7FE0DF542640122C5
:100610008DF8202C8DF81E2C8DF81D0C8DF81C2CBF
:100620008DF81F0CDDF81C0CCDF8220C0DF668417E
:10063000204601F098FF014620B15A4806F0C0FD5F
:10064000FFF7CAFE0DF668420121022002F0E3F92D
:10065000014620B1544806F0B3FDFFF7BDFE5348F4
:1006600006F016FE50E00DF6D446BDF8D81C5048F2
:1006700006F0A6FD0DF6684706AD39460DF11600E9
:1006800002F0F8F8BDF816104A4806F099FD8023EC
:10069000ADF81830ADF81A303B463246294607A867
:1006A00002F077F8011E57DB0DF668430DF6D442D1
:1006B0000DF11A010DF21C6002F097F8011E4FDBDC
:1006C000099B0093BDF92030BDF91E20BDF91C1017
:1006D000394806F075FDBDF81A20BDF818103748E6
:1006E00006F06EFD0DF6684105A801F0C1FFBDF8EA
:1006F0001410334806F064FD03F006F84FF47A71E5
:100700004B46C01AFFF754FE2E4B1B78002BF3D03C
:100710002C4B00221A700DF66844214605A801F002
:10072000A7FFBDF81410264806F04AFD21460DF13A
:10073000160002F09FF8BDF81610234806F040FDA1
:1007400021460DF6D44001F0D7FF014600288AD09B
:100750001E4806F035FDCFE71D4806F031FDA3E742
:100760001C4806F02DFDABE700ED00E0001000E0B6
:10077000847F0008490300081D030008F1020008F7
:10078000988200088C7F000898000020AC7F000849
:10079000C07F0008E87F000810800008348000084F
:1007A0006080000894800008BC800008EC8000088D
:1007B000648100088C810008008200082082000803
:1007C0001081000894000020248100084081000866
:1007D000A4810008D48100082DE9F0418AB005AD5C
:1007E000002405940694079408940994524BDA6CFB
:1007F00042F00402DA64DA6C02F004020092009A19
:10080000DA6C42F08002DA64DA6C02F08002019263
:10081000019ADA6C42F00102DA64DA6C02F0010249
:100820000292029ADA6C42F00202DA64DA6C02F0A6
:1008300002020392039ADA6C42F00802DA64DB6C7B
:1008400003F008030493049B3C4F224608213846DA
:1008500004F0CBFC224642214FF0904004F0C5FC4E
:100860004EF2F4030593032606960794294638466C
:1008700004F0A6FB0596069607942946304804F036
:100880009FFB4FF00108CDF8148006940794294689
:10089000384604F095FB022305934FF48813069322
:1008A00007942946384604F08BFB08230593CDF8BE
:1008B0001880079408942946384604F081FB41F6D5
:1008C000016305930694079429464FF0904004F085
:1008D00077FB42230593CDF81880079408942946A6
:1008E0004FF0904004F06CFB48F2BC130593069661
:1008F000079429464FF0904004F062FB47F237130B
:100900000593069607940F4E2946304604F058FB8F
:1009100048F280030593069407942946304604F074
:100920004FFB22462146072005F03EF9072005F03F
:100930004BF90AB0BDE8F081001002400008004801
:10094000001C00480004004808B51248124B036020
:10095000124B4360002383600122C2600361436144
:100960008361C361036204F018FE50B90021094895
:1009700005F01AF840B90021064805F042F830B9F0
:1009800008BDFFF729FDF1E7FFF726FDF3E7FFF7C5
:1009900023FDF5E7EC00002000540040140D10008A
:1009A00008B51248124B0360124B4360002383606A
:1009B0000122C260036143618361C361036204F089
:1009C000ECFD50B90021094804F0EEFF40B90021C8
:1009D000064805F016F830B908BDFFF7FDFCF1E751
:1009E000FFF7FAFCF3E7FFF7F7FCF5E798000020C4
:1009F00000580040140D100010B5ACB004460021A2
:100A00002791289129912A912B91882205A806F0F7
:100A100047FC23682F4A934204D02F4A93422DD09B
:100A20002CB010BD4023059305A803F025FD10BB95
:100A30002A4CE36C43F00203E364E36C03F002032B
:100A40000193019B4FF410732793122328930023E3
:100A5000299303232A9304232B9327A9204804F0E6
:100A6000AFFAA36D43F40013A365A36D03F4001361
:100A70000293029BD4E7FFF7AFFCD9E780230593ED
:100A800005A803F0F9FC10BB144CE36C43F002031F
:100A9000E364E36C03F002030393039B4FF44063AE
:100AA0002793122328930023299303232A930423B3
:100AB0002B9327A90A4804F083FAA36D43F480031B
:100AC000A365A36D03F480030493049BA8E7FFF7D9
:100AD00083FCD9E700540040005800400010024059
:100AE00000040048064B074A1A6000225A609A60C8
:100AF000DA604FF4006119615A619A61704700BF72
:100B00004001002000280140F0B5ABB004460021B0
:100B100025912691279128912991882203A806F0F2
:100B2000BFFB22682A4B9A4201D02BB0F0BD4FF494
:100B3000002303934FF080631F93012304930593D5
:100B400010230693072307930223089309934FF476
:100B500080130A9303A803F08FFC002835D11D4BA6
:100B60001A6E42F480621A661A6E02F48062009273
:100B7000009ADA6C42F00402DA64DA6C02F00402E1
:100B80000192019ADA6C42F00802DA64DB6C03F03D
:100B900008030293029B4FF4F853259302242694F2
:100BA00000252795032628960C27299725A90A486A
:100BB00004F006FA0423259326942795289629976E
:100BC00025A9064804F0FCF9AFE7FFF705FCC6E7E6
:100BD000002801400010024000080048000C0048B6
:100BE000FEE7FEE7FEE7FEE7FEE770477047704767
:100BF00008B502F07DFD08BD08B5022004F0FAFA40
:100C000008BD000082B00A4B1A6E42F001021A665B
:100C10001A6E02F001020092009A9A6D42F0805220
:100C20009A659B6D03F080530193019B02B070475E
:100C30000010024082B000230093ADF80430B0F9F8
:100C40000030ADF80030B0F90230ADF80230B0F944
:100C50000430ADF8043091F82B30FBB991F828300E
:100C600002AA02EB430333F9083C038091F82C30CD
:100C7000F3B991F8293002AA02EB430333F9083C97
:100C8000438091F82D30EBB991F82A3002AA02EB9B
:100C9000430333F9083C838002B0704791F8283051
:100CA00002AA02EB430333F8083C5B420380DDE712
:100CB00091F8293002AA02EB430333F8083C5B4267
:100CC0004380DEE791F82A3002AA02EB430333F8AF
:100CD000083C5B428380DFE700B59646019AB2F894
:100CE0000AC0A0F800C0B2F808C0BCF5804F0CD014
:100CF000BCF5C04F19D0BCF5404F29D0BCF5604FB2
:100D000033D093880380012008E01B8803EB430362
:100D10005B000B8006238EF800300020B1F800C085
:100D200093889C4500D90B8000BD92F81EC00CF141
:100D3000060C1B8813FB0CF30B80937F06338EF895
:100D40000030538992F81EC0634403800020E5E719
:100D50001B8803EB43039B000B800C238EF80030B1
:100D60005389063303800020D8E792F81EC00CF1A7
:100D70000C0C1B8813FB0CF30B80937F0C338EF849
:100D80000030538992F81EC063440633038000206C
:100D9000C4E710B51446B1F800C00CF10502B3F871
:100DA00004E072451DDA1B6813F80C20824201D062
:100DB000002019E00CF101029A5C7F2A01D000208A
:100DC00012E00CF102029A5C7AB90CF103029B5C0E
:100DD000802B01D0002007E0224662440A800320D5
:100DE00002E0A1F800E0012010BD0020FCE770B592
:100DF0008C461E464C1CA4B21368595C0CF10203CD
:100E00009BB215682C5D41EA042101800CF10304BA
:100E1000A4B21568E95C0CF104039BB22C5D41EAB5
:100E20000421418011680CF1050C1FFA8CFCCA5C8E
:100E300011F80C3042EA032282803146FFF7FAFEB5
:100E400070BD00B59646019AB2F810C0A0F800C077
:100E5000B2F808C0BCF5004F0CD0BCF5204F19D03B
:100E6000BCF5404F29D0BCF5604F30D0938803804B
:100E7000012008E01B8803EB43035B000B80062383
:100E80008EF800300020B1F800C093889C4500D94E
:100E90000B8000BD92F81EC00CF1060C1B8813FBE2
:100EA0000CF30B80937F06338EF80030138A92F890
:100EB0001EC0634403800020E5E71B8803EB430367
:100EC0009B000B800C238EF800300020DBE792F8AB
:100ED0001EC00CF10C0C1B8813FB0CF30B80937FD2
:100EE0000C338EF80030138A92F81EC063440380DE
:100EF0000020C8E703784FEA931CBCF1030F00D031
:100F00007047C82BFCD00B8801339BB20B80126852
:100F1000D35C03F0FC030370F2E700B5D2F800C025
:100F20000A88931C1CF803E0531C1CF803301B02B6
:100F30001CF8022043EA0E43134383600B880333FB
:100F40000B8000BD70B50C46802B00F0D3800546A9
:100F500016460DD8402B1BD0602B6FD0202B40F0B5
:100F6000D0800B88049A927F13440B8002200EE0FD
:100F7000C02B38D0E02B00F08F80A02B40F0C18038
:100F80000B88049A92F8212013440B80022070BD34
:100F90000988049B1B7F0B44049A9288934202DDCC
:100FA00022800020F3E7308800EB4000059B049A84
:100FB00005EB8000FFF71BFF238806332380059B8A
:100FC0001B6B13F4802F04D133880133338002204C
:100FD000DDE7308800EB4000049A214605EB8000F5
:100FE000FFF79BFFF0E70988049B1B7F0B44049AE3
:100FF0009288934202DD22800020C8E7308800EB0F
:101000004000059B049A05EB8000FFF7F0FE238863
:101010000C332380059B1B6B13F4802F04D1338882
:10102000013333800220B2E7308800EB4000049A9D
:10103000214605EB8000FFF770FFF0E70988049B6D
:101040001B7F0B44049A9288934202DD2280002089
:101050009DE7308800EB4000059B049A05EB80007B
:10106000FFF7C5FE2388049A927F1344063323803A
:10107000059B1B6B13F4802F04D13388013333801D
:10108000022084E7308800EB4000049A214605EBFB
:101090008000FFF742FFF0E70988049B1B7F0B44A9
:1010A000049A9288934202DD228000206FE7308804
:1010B00000EB4000059B049A05EB8000FFF797FECC
:1010C0002388049A927F13440C332380059B1B6B67
:1010D00013F4802F04D1338801333380022056E784
:1010E000308800EB4000049A214605EB8000FFF7B2
:1010F00014FFF0E70B88049A527F13440B80022000
:1011000045E7049B9B882380012040E770B50C468F
:10111000902B00F0DC800546164612D8882B00F094
:10112000DD808C2B42D0842B40F0DF800988049B2B
:101130001B7F0B44049A9288934217DD2280002083
:10114000C4E0982B00F0BB809C2B00F08380942B94
:1011500040F0CB800988049B93F820300B44049A1C
:10116000928893424FDD22800020AFE0308800EB70
:101170004000059B049A05EB8000FFF738FE2388AA
:1011800006332380059B1B6B13F4802F04D1338817
:1011900001333380022099E0308800EB4000049A4C
:1011A000214605EB8000FFF7B8FEF0E70988049BB5
:1011B000DB7F0B44049A9288934202DD2280002058
:1011C00084E0308800EB40000631059B049A89B228
:1011D00005EB8000FFF70BFE23880C332380059B73
:1011E0001B6B13F4802F04D133880133338002202A
:1011F0006CE0308800EB4000049A214605EB80004B
:10120000FFF78BFEF0E7308800EB4000049B9B7FEC
:101210001944059B049A89B205EB8000FFF7E7FDAE
:101220002388049A927F134406332380059B1B6B0B
:1012300013F4802F04D1338801333380022045E03A
:10124000308800EB4000049A214605EB8000FFF750
:1012500064FEF0E70A88049B93F822301344049953
:1012600089888B4202DD218000202FE0308800EB4E
:101270004000049B9B7FD11889B20631059B049ADC
:1012800089B205EB8000FFF7B2FD2388049A927FB4
:1012900013440C332380059B1B6B13F4802F04D164
:1012A000338801333380022010E0308800EB4000A7
:1012B000049A214605EB8000FFF72FFEF0E70B882C
:1012C000049A92F8212013440B80022070BD0B88F1
:1012D000049A927F13440B800220F7E70B88049A4C
:1012E000527F13440B800220F0E7049B9B882380ED
:1012F0000120EBE7038803F1060C8A8894452EDA77
:10130000096811F803C0BCF1000F2AD103F1010CE8
:1013100011F80CC0BCF1800F01D00220704703F11E
:10132000020C11F80CC0BCF1000F1CD103F1030C2E
:1013300011F80CC0BCF1800F01D00220704703F1FE
:10134000040C11F80CC0BCF1000F0ED10533CB5CBE
:10135000802B01D0022070470280012070470020BE
:1013600070470220704702207047022070472DE925
:10137000F04184B007460D46144698460023ADF868
:101380000E30ADF80C30ADF80A308DF8093000920F
:101390000B460DF109020DF10A010DF10E00FFF7E8
:1013A0009BFC844623891B0A1E46BDF80E20BDF80F
:1013B0000A309A4221D2BCF1010F1ED023469DF87B
:1013C00009200DF10E010120FFF7E3FC84460028FF
:1013D000EBD1CDF804800094334603AA0DF10E0141
:1013E0003846FFF7AFFD84460128DED021460DF1D7
:1013F0000E00FFF77FFF8446D7E7BDF80C302B8047
:10140000BDF80E306381604604B0BDE8F08100B5E0
:10141000B0F800C001EB0C0E93889E4502DD0380FE
:10142000002000BD614401800220FAE7038803F137
:10143000020C8A88944502DB02800020704700B5C8
:10144000D1F800C09A1C1CF802E05A1C1CF80220BB
:1014500012021CF803C042EA0E434CEA03034B613C
:10146000038803330380022000BD02888B889A42E0
:1014700002D30380002070470B689B5C0B760388C7
:1014800001330380022070472DE9F04184B0074604
:101490000E461446984600208DF80F00ADF80A005D
:1014A0000D885389ADF80C302BE0802B04D1A38834
:1014B000ADF80C3001201EE0842B13D0A388ADF8CA
:1014C0000C30012017E0982B52D041D8902B05D139
:1014D0002246A17F03A8FFF79AFF0CE0942B01D0CE
:1014E0008C2BEBD1CDF8048000940DF10A0203A9F6
:1014F0003846FFF70BFEBDF80A30AB424AD0012850
:1015000048D0A288BDF80C309A4243D92268D35CF7
:1015100003F0FC038DF80F30224603A90DF10F00F4
:10152000FFF7E8FCBDF80C300133ADF80C309DF846
:101530000F30882B16D0C6D8482B25D0B5D8402BD5
:101540001DD0442BBAD1214603A8FFF76FFFD2E785
:101550009C2BC7D0C82BB1D12246062103A8FFF788
:1015600056FFC8E72246617F03A8FFF750FFC2E796
:10157000224694F8211003A8FFF749FFBBE7214654
:1015800003A8FFF772FFB6E72246042103A8FFF77E
:101590003EFFB0E7BDF80A303380BDF80C30638100
:1015A00004B0BDE8F081034600B2994201DA08B206
:1015B0007047CA439A4200DD10B2704710B5044626
:1015C000B0F90000B1F94430B4F9042002FB03F390
:1015D000002B08DB43F34F2347F6FF71C01AFFF7D8
:1015E000E2FF208010BD03F2FF13F3E770B504465D
:1015F0001E4601F1010E1FFA8EFE136813F801C09A
:101600008B1C9BB2156815F80EE04CEA0E2CA0F866
:1016100000C001F1030E1FFA8EFE156815F803C015
:101620000B1D9BB215F80EE04CEA0E2CA0F802C080
:10163000D2F800C04A1D92B21CF803301CF80220F8
:1016400043EA022383803146FFF7B8FF3146204644
:10165000FFF7F0FA70BD70B505460C461646802BB4
:1016600024D00FD8402B00F0D180602B00F0C68032
:10167000202B40F0D2800B88049A927F13440B8079
:101680000220C2E0C02B3CD0E02B00F08880A02BD1
:1016900040F0C3800988049B93F821300B44049ADE
:1016A0009288934258DD22800020AEE00988049B96
:1016B0005B7F0B44049A9288934202DD22800020D3
:1016C000A3E0308800EB4000059B049A05EB800006
:1016D000FFF78CFF238806332380059B1B6B13F4D5
:1016E000802F04D133880133338002208DE030888D
:1016F00000EB4000049A214605EB8000FFF70DFC4B
:10170000F0E70988049BDB7F0B44049A928893429C
:1017100002DD2280002078E0308800EB4000059B4D
:10172000049A05EB8000FFF761FF23880C332380C8
:10173000059B1B6B13F4802F04D133880133338056
:10174000022062E0308800EB4000049A214605EB5D
:101750008000FFF7E2FBF0E7308800EB4000059BDC
:10176000049A05EB8000FFF741FF2388049A927FDB
:10177000134406332380059B1B6B13F4802F04D185
:1017800033880133338002203FE0308800EB400093
:10179000049A214605EB8000FFF7BFFBF0E70988BC
:1017A000049B93F822300B44049A9288934202DD02
:1017B0002280002029E0308800EB4000059B049A3D
:1017C00005EB8000FFF712FF2388049A927F1344F1
:1017D0000C332380059B1B6B13F4802F04D13388BB
:1017E00001333380022010E0308800EB4000049A7F
:1017F000214605EB8000FFF790FBF0E70B88049A89
:1018000092F8202013440B80022070BD0B88049AAC
:10181000127F13440B800220F7E7049B9B882380F0
:101820000120F2E72DE9F04184B007460D46144649
:1018300098460023ADF80E30ADF80C30ADF80A3004
:101840008DF8093000920B460DF109020DF10A01E5
:101850000DF10E00FFF7F5FA844623891B0A1E4698
:10186000BDF80E20BDF80A309A4221D2BCF1010F1A
:101870001ED023469DF809200DF10E010220FFF72E
:1018800088FA84460028EBD1CDF8048000943346D2
:1018900003AA0DF10E013846FFF7DDFE844601284C
:1018A000DED021460DF10E00FFF724FD8446D7E778
:1018B000BDF80C302B80BDF80E302382604604B09A
:1018C000BDE8F08170B50C46902B00F0E280054633
:1018D00016461DD8882B2BD00CD8202B00F0D98091
:1018E000842B40F0DD800B88049A127F13440B8018
:1018F00002201CE08C2B40F0D3800988049BDB7F06
:101900000B44049A928893423DDD228000200EE031
:10191000982B58D09C2B00F08980942B40F0C080ED
:101920000B88049A92F8202013440B80022070BD8B
:101930000988049B5B7F0B44049A9288934202DDE2
:1019400022800020F3E7308800EB4000059B049ADA
:1019500005EB8000FFF74AFE238806332380059BB2
:101960001B6B13F4802F04D13388013333800220A2
:10197000DDE7308800EB4000049A214605EB80004B
:10198000FFF7CBFAF0E7308800EB4000059B049AA4
:1019900005EB8000FFF72AFE23880C332380059B8C
:1019A0001B6B13F4802F04D1338801333380022062
:1019B000BDE7308800EB4000049A214605EB80002B
:1019C000FFF7ABFAF0E70988049B93F821300B444A
:1019D000049A9288934202DD22800020A7E7308893
:1019E00000EB4000049B9B7F1944059B049A89B23D
:1019F00005EB8000FFF7FAFD2388049A927F1344D9
:101A000006332380059B1B6B13F4802F04D133888E
:101A10000133338002208AE7308800EB4000049ACB
:101A2000214605EB8000FFF778FAF0E70988049B70
:101A300093F822300B44049A9288934202DD22806C
:101A4000002074E7308800EB4000049B9B7F194422
:101A5000059B049A89B205EB8000FFF7C7FD238838
:101A6000049A927F13440C332380059B1B6B13F461
:101A7000802F04D1338801333380022057E7308828
:101A800000EB4000049A214605EB8000FFF745FA81
:101A9000F0E72388049A927F13442380022046E7CC
:101AA000049B9B882380012041E72DE9F04184B00D
:101AB00007460E461446984600208DF80F00ADF8F4
:101AC0000A000D88138AADF80C302DE0802B57D119
:101AD000A388ADF80C30012020E0942B5BD007D90F
:101AE000C82B48D12246062103A8FFF790FC15E039
:101AF000902B05D12246A17F03A8FFF788FC0DE0BB
:101B00003ED8882B01D08C2B3AD1CDF8048000949C
:101B10000DF10A0203A93846FFF7D4FEBDF80A30DA
:101B2000AB424AD0012848D0A288BDF80C309A4276
:101B300043D92268D35C03F0FC038DF80F302246B2
:101B400003A90DF10F00FFF7D5F9BDF80C300133F3
:101B5000ADF80C309DF80F30842B16D0BDD8482B33
:101B600025D0B3D8402B1DD0442B09D1214603A842
:101B7000FFF75CFCD2E703D8982BC6D09C2BC4D0CF
:101B8000A388ADF80C300120C8E72246217F03A8C6
:101B9000FFF73DFCC2E7224694F8201003A8FFF7A8
:101BA00036FCBBE7214603A8FFF75FFCB6E72246F9
:101BB000042103A8FFF72BFCB0E7BDF80A303380FF
:101BC000BDF80C30238204B0BDE8F0818446A0B19A
:101BD0000078884205D28CF80010197A41F0010192
:101BE00019729CF8001091420AD98CF800201A7AD8
:101BF00042F002021A72002070474FF0FF30704727
:101C00000020704770B505460C4616461346012263
:101C100000212046FFF7DAFF034648B92378012B5D
:101C200008D03346072200212846FFF7CFFF03469E
:101C3000184670BD3346032201462846FFF7C6FF0B
:101C40000346F5E738B50C46134615460C2201212C
:101C5000FFF7BCFF00B138BD2B4603220021204610
:101C6000FFF7B4FFF7E738B504460B460D460122EF
:101C700000210230FFF7AAFF00B138BD2B46022237
:101C8000002120460130FFF7A1FF0028F5D12B46A7
:101C90000122002120460530FFF798FF0028ECD1F3
:101CA0002B460D2206212046FFF790FF0028E4D1A5
:101CB0002B460122002120460330FFF787FF002832
:101CC000DBD12B460422002120461044FFF77EFF83
:101CD000D3E708B50B460B2201210530FFF776FF4D
:101CE00008BD38B1826B42B1C26B4AB1036C53B1CB
:101CF000002070474FF0FF3070474FF0FF307047C3
:101D00004FF0FF3070474FF0FF30704730B5054659
:101D1000002301E00133DBB292F81AC09C450FD9D1
:101D2000506A03EB430C00EB0C0410F80CE08E45FA
:101D3000F0D130F80C20A3782A80AB70012000E0AD
:101D4000002030BD00B5864694460023184616E0B4
:101D50006FF0070011E0202A06D1DCF8042042F0E1
:101D60000102CCF8042008E06FF0070005E0DCF881
:101D7000002042F00102CCF800200133DBB28B429C
:101D800016D21EF80320022A0BD0E4D8002AEED087
:101D9000012ADDD1DCF8002042F00202CCF800205C
:101DA000EBE7DCF8002042F00402CCF80020E4E786
:101DB00000BD2DE9F041A0B007460E4615461C4671
:101DC0001846FFF78EFF002838D18046002E39D004
:101DD000637A13B947F080031F46E27A63682A44A6
:101DE00069463846A76BB847A07294F84730012B74
:101DF00008D0236C61680220984794F90A303BB9F7
:101E0000184615E0236C61684FF4E1709847F4E7D9
:101E10006FF0010398460DE094F80BC084440CF178
:101E200080030DEB030C1CF8803C3354013080B26E
:101E3000A842F1D3404620B0BDE8F0814FF0FF3317
:101E40009846F7E74FF0FF339846F3E700B583B0C5
:101E5000034601220DF107011B20FFF7AAFFA8B9D5
:101E60009DF80730C3F382038DF80730022B0BD0A7
:101E700005D85BB1012B09D16FF0040006E0032BFC
:101E800004D16FF0060001E06FF0050003B000BD63
:101E900030B583B004460D460023ADF80430084643
:101EA000FFF71FFFC0B9D4B12B46022201A9402081
:101EB000FFF77FFF70B99DF80430DA09A270C3F311
:101EC0000212627003F00F0323709DF8053003F0D7
:101ED0000303E37003B030BD4FF0FF30FAE74FF07B
:101EE000FF30F7E730B583B004460D460023ADF868
:101EF00004300846FFF7F5FEF0B904B32B46022282
:101F000001A94220FFF755FFA0B99DF80430DA0976
:101F1000A270C3F380126271C3F30112627003F006
:101F20000F0323709DF80530C3F3C002E27003F085
:101F30000703237103B030BD4FF0FF30FAE74FF0D5
:101F4000FF30F7E710B582B004460B4601220DF1D1
:101F500007016B20FFF72DFF20B99DF80730C3F371
:101F60004013237002B010BD30B583B004460D4657
:101F70000023ADF804300B46022201A94B20FFF7E5
:101F800018FF88B99DF804305B08E3719DF80530AF
:101F9000DA096270C3F38011A170C3F38101E170AB
:101FA00003F0030323710AB103B030BD2B460122B5
:101FB00004F108014D20FFF7FCFEF5E730B585B0D0
:101FC00004460D4600234381C381038243614FF0E1
:101FD00000020276838101A8FFF7C6FF90B92B6B40
:101FE00013F4802F10D00923237763770B23A37773
:101FF0000F23E377112384F8203084F8213017234E
:1020000084F8223005B030BD9DF808300BB90122AC
:10201000A277012B13D0022B14D0032B15D006234B
:10202000237763770C23E377A37F9A1DD2B284F8DA
:10203000202084F821200C3384F82230E2E70222A9
:10204000A277E8E70622A277E7E70823A377E6E787
:1020500010B582B004460B4601220DF10701442061
:10206000FFF7A7FE30B99DF807301A09A27103F0F7
:102070000F03637102B010BD38B505460C46084623
:10208000FFF72FFE88B99DB121462846FFF75AFF7A
:1020900000B138BD21462846FFF766FF0028F8D179
:1020A00021462846FFF7D4FFF3E74FF0FF30F0E773
:1020B0004FF0FF30EDE72DE9F047064689469046A0
:1020C0001C461846FFF70DFE002845D18246B9F19F
:1020D000000F45D0637A0BB906F07F0694F84730BD
:1020E000012B2AD0E56B6368424649463046A84733
:1020F000A072236C6168022098477C2E1FD094F94F
:102100000A308BBB5046BDE8F0870135ADB245457E
:10211000F3D256FA85F06368012209EB0501C0B2DB
:10212000E76BB847A072236C61684FF4E170984781
:1021300094F90A30002BE8D0DFE70025E7E799F8AB
:10214000003013F0010F03D0012384F84730D6E7A5
:10215000002384F84730D2E74FF0FF339A46D1E7A7
:102160004FF0FF339A46CDE76FF001039A46C9E777
:1021700070B582B015461A461E460023ADF80430ED
:10218000C0B10446C1F343038DF80430C1F34711D5
:102190008DF805101346022201A95B20FFF78BFF83
:1021A00008B102B070BD33462A4621465E20FFF7D3
:1021B00082FFF6E74FF0FF30F3E730B583B0044617
:1021C0000D4600238DF807300B4601220DF1070163
:1021D0005920FFF7EEFD08B103B030BD9DF8073080
:1021E00023F0010304F0010003438DF807302B4670
:1021F00001220DF107015920FFF75DFFECE770B5F3
:1022000082B004460D46164600238DF8073013466B
:1022100001220DF107017D20FFF7CBFD48BB14F033
:10222000010F05D09DF8073043F004038DF8073007
:1022300014F0020F05D09DF8073043F002038DF82B
:10224000073014F0040F05D09DF8073043F0010368
:102250008DF8073015F0010F05D09DF8073043F0D9
:1022600008038DF8073004F0070405F001010C4362
:1022700001D102B070BD334601220DF107017D206E
:10228000FFF719FFF5E730B583B004460A460D465F
:102290000023ADF80430811C0130FFF7B3FC08B116
:1022A00003B030BD2A46E11C2046FFF7CBFC0028D6
:1022B000F6D19DF8043003F07F03A27843EAC213FD
:1022C0005BB223F070036278120102F070021343D4
:1022D00023F00F03227802F00F0213438DF804302D
:1022E0009DF80520E37803F0030322F00302134373
:1022F0008DF805302B46022201A94020FFF7DBFEB6
:102300000028CDD12846FFF7A1FDC9E730B583B03D
:1023100004460D460023ADF80430FFF7A4FC08B1D5
:1023200003B030BD9DF8042002F07F02A37842EA9A
:10233000C31252B222F0400263799B0103F04003C2
:102340001A4322F0300263781B0103F030031A4372
:1023500022F00F02237803F00F0313438DF80430AB
:102360009DF8053023F008035BB2E278D20002F05A
:102370000802134323F00703227902F007021343F4
:102380008DF805302B46022201A94220FFF793FE6B
:102390000028C5D12846FFF759FDC1E730B583B005
:1023A00004460B460D4601220DF107016B20FFF795
:1023B00000FD08B103B030BD9DF80730227852010E
:1023C00002F0200223F0200313438DF807302B4640
:1023D00001220DF107016B20FFF76DFEEAE770B5F2
:1023E00082B004460B460E4601220DF1070144203F
:1023F000FFF7DFFC054610B1284602B070BD9DF81E
:102400000730A27903F00F0343EA0213DBB28DF821
:102410000730627923F00F0302F00F0213438DF8A7
:102420000730334601220DF107014420FFF743FE38
:102430000546336C71684FF47A709847DCE730B525
:1024400083B005460C4600238DF807300846FFF799
:1024500048FC08B103B030BD234601220DF107014D
:102460007C20FFF7A6FC0028F4D19DF8073005F08A
:10247000010023F0010318438DF8070023460122D1
:102480000DF107017C20FFF716FE30B99DF80730EB
:1024900003F0010384F84730DCE76FF00C00D9E764
:1024A000F8B50446B0F84A60C289B6FBF2F302FB05
:1024B00013639FB2DDB201460020FFF7C0FF034661
:1024C00008B11846F8BD2146FFF777FE03460028FD
:1024D000F7D17DB1FFB2F71BBFB200251AE06069EA
:1024E0002346E28929462844FFF742FE0346E28953
:1024F0001544ADB2B54227D2002BF0D024E060697C
:102500002346E28929462844FFF732FE0346E28942
:102510001544ADB2BD4201D2002BF0D0002BD0D17A
:10252000E5890222E2810AE060692346E2893946B0
:102530003844FFF71DFE0346E2893A4497B2B7429A
:1025400001D2002BF0D0E581002BBAD12146012029
:10255000FFF733FE03460028B3D121460120FFF7E1
:102560006EFF0346ADE770B582B004460D4600230A
:10257000ADF804304FF000028DF806200846FFF752
:10258000B0FB00286BD1002C6CD02678731EDBB218
:10259000022B6AD82B46032201A95320FFF709FC1E
:1025A000002838D1012E01D0032E20D19DF804300F
:1025B00023F002035BB2A278520002F0020213433E
:1025C00023F00403E278920002F00402134323F0A4
:1025D00008032279D20002F00802134323F010030B
:1025E0006279120102F0100213438DF80430023EAA
:1025F000F6B2012E11D99DF80620637803F001038D
:1026000022F0010213438DF806302B46032201A964
:102610005320FFF750FD02B070BD9DF8053023F048
:1026200002035BB2A279520002F00202134323F0CC
:102630000403E279920002F00402134323F008033A
:10264000227AD20002F00802134323F01003627AC8
:10265000120102F0100213438DF80530CBE74FF062
:10266000FF30D8E74FF0FF30D5E76FF00B00D2E72F
:1026700030B583B004460D460023ADF8043008465B
:10268000FFF72FFB80B994B12B46022201A91C2031
:10269000FFF78FFB30B99DF804309DF8052043EA21
:1026A0000223238003B030BD4FF0FF30FAE74FF034
:1026B000FF30F7E770B582B004460D461046164667
:1026C00000220023CDE90023FFF70BFB70B984B192
:1026D0006A4629462046FFF735FB08B102B070BDB7
:1026E0003246DDE90001FFF78AFDF7E74FF0FF30E2
:1026F000F4E74FF0FF30F1E770B582B005460C46C5
:102700000023ADF804300846FFF7EBFA002837D174
:10271000002D38D021462846FFF750FC30BB637AA5
:1027200033B326206368AA882968A66BB047A072D5
:1027300094F84730012B1DD0236C61680220984724
:1027400094F90A3013BB2346022201A94820FFF75F
:1027500030FB58B99DF8052002F01003AB719DF8CD
:10276000043043EA022303F460432B8102B070BDBE
:10277000A620D7E7236C61684FF4E1709847DFE744
:102780004FF0FF30F2E74FF0FF30EFE76FF001005E
:10279000ECE7F8B506460F4614461D461846FFF707
:1027A000A0FAB0B9C6B1D7B1E4B163890BB9EB7A7D
:1027B0006381A37933B92B46224639463046FEF76A
:1027C000D6FDF8BD2B46224639463046FEF75CFE64
:1027D000F7E74FF0FF30F4E74FF0FF30F1E74FF04D
:1027E000FF30EEE74FF0FF30EBE7F8B506460F4657
:1027F00014461D461846FFF774FAB0B9C6B1D7B1F2
:10280000E4B1238A0BB9EB7A2382A37933B92B463F
:10281000224639463046FFF705F8F8BD2B462246DA
:1028200039463046FFF741F9F7E74FF0FF30F4E75C
:102830004FF0FF30F1E74FF0FF30EEE74FF0FF30A1
:10284000EBE730B583B004460D460023ADF8043005
:102850000846FFF746FA08B103B030BD8DF80440D2
:10286000200A8DF805002B46022201A94620FFF719
:1028700022FCF1E730B583B004460D460023ADF8E5
:1028800004300846FFF72DFAA0B9B4B12B46022256
:1028900001A92420FFF78DFA50B99DF8053003F007
:1028A0003F038DF805309DF8042042EA032323807E
:1028B00003B030BD4FF0FF30FAE74FF0FF30F7E7DD
:1028C00038B505460C460846FFF70BFA38B94DB146
:1028D0002346012229460320FFF76BFA38BD4FF04B
:1028E000FF30FBE74FF0FF30F8E770B582B00646E7
:1028F0000D460023ADF804308DF803300B4602225C
:1029000001A94B20FFF755FA0446002868D19DF82D
:102910000430F27903F0010343EA42038DF80430F6
:102920009DF80530727803F07F0343EAC213DBB2EF
:102930008DF80530B278920102F0400223F0400396
:1029400013438DF80530F278920002F00C0223F068
:102950000C0313438DF80530327923F0030302F0A2
:10296000030213438DF8053017E0EB762B46012266
:1029700006F108014D20FFF79EFB04462B6C6968A9
:102980004FF47A7098472BE02B6C696842F2107014
:1029900098470134E4B2142C20D829460DF10300E5
:1029A000FFF78EFF0028EFD19DF8033013F0040FDE
:1029B000EAD12B46022201A94B20FFF77CFB0446FB
:1029C0002B6C69684FF47A7098474CB97378002B78
:1029D000CBD00123EB76F3782B7701E06FF00E0478
:1029E000204602B070BD38B504460D46FFF771F9B8
:1029F00000B138BD29462046FFF7D0FC0028F8D1A9
:102A000029462046FFF771FF0028F2D129462046CB
:102A1000FFF7E5FCEDE7F0B583B007460C46154639
:102A20000301D9B20E4600238DF807301346012268
:102A30000DF107015820FFF7BCF940BB032C2FD83C
:102A4000022C26D009D894B1012C19D19DF8073059
:102A50003A461A438DF8072012E0032C10D13B466A
:102A600033439DF8072013438DF8073008E03B46B9
:102A70003343DB435BB29DF8072013408DF80730EA
:102A80002B4601220DF107015820FFF714FB03B07C
:102A9000F0BD9DF8073032461A438DF80720EFE766
:102AA0006FF00B00F3E738B505460C460846FFF714
:102AB00018F960B975B1236C616844F620609847D5
:102AC0002346012229462120FFF773F938BD4FF034
:102AD000FF30FBE74FF0FF30F8E710B582B0044657
:102AE00000238DF80730FFF7FCF838BBB4F84A3004
:102AF0003BB3E38913F0010F01D0013BE381E3898C
:102B0000012B05D92046FFF7CBFC20B102B010BD48
:102B10000223E381F6E721460DF10700FFF7C3FF2B
:102B20009DF8073003F00F038DF807306374002819
:102B3000ECD1012BEAD06FF00800E7E74FF0FF304F
:102B4000E4E74FF0FF30E1E730B583B00446B62349
:102B50008DF8073000238DF80630FFF7C2F80546E0
:102B600010B1284603B030BD234601220DF1070104
:102B70007E20FFF7A0FA0546236C61684FF4FA60E7
:102B80009847012384F847303DB9637A63B1002D3B
:102B9000E7D12046FFF7A1FF0546002DE1D1002235
:102BA0000023C4E90C23DCE7234601220DF10601D2
:102BB0000020FFF7FEF80546E9E7000010B582B0F7
:102BC000044600238DF807301E4B93E80300009065
:102BD000ADF804102046FFF784F8034628B9012217
:102BE00084F84720627A1AB153B1184602B010BD7A
:102BF000234601220DF10701FFF7DBF80346F3E757
:102C0000234601220DF107010020FFF7D2F8034609
:102C10000028EAD122789DF807309A420DD110237E
:102C200023730123E37602AB13E90300A062A185BD
:102C30002046FFF789FF0346D7E723706FF00203B2
:102C4000D3E700BF707F00082DE9F04383B08DF813
:102C50000700002946D015468946002A45D0127E35
:102C6000C3B29A4244D92B4601220DF107012F200D
:102C7000FFF721FA98BBEB890F2B2AD813F0010F2D
:102C800001D0013BEB8100264FF03008374610247D
:102C90000CE02B46224609EB06014046FFF789F877
:102CA0003C44E7B2C7F11004E4B2C0B9BCB1EA8950
:102CB0009442EED32B4609EB06014046FFF779F824
:102CC000AB7B1E44F6B298445FFA88F83B44DFB20F
:102CD000E8E72B46102249463020FFF76AF803B098
:102CE000BDE8F0834FF0FF30F9E74FF0FF30F6E733
:102CF0006FF00900F3E730B587B005460C460023B6
:102D000002930393049305938DF804308DF80530F6
:102D10008DF80630B1F8483013F0200F12D00B4672
:102D200001220DF107011E20FFF743F830B99DF88D
:102D3000073013F0400F03D0803B2B8007B030BD2D
:102D40002B80FBE70A46292101A8FEF7DFFFC8B167
:102D5000224602A99DF80500FFF776FF0028EDD175
:102D60009DF8063018336B4413F8101C01F07F02F5
:102D700003F8102C11F0400F02D0803A2A80DDE7D2
:102D80002A80DBE76FF00700D8E730B587B004464C
:102D90000D46002302930393049305938DF80430AA
:102DA0008DF805308DF806300A46092101A8FEF796
:102DB000ADFF00B32A4602A99DF80500FFF744FFC6
:102DC000B8B99DF8063018336B4413F8102C02F094
:102DD0000102227013F8102CC2F34002627013F843
:102DE000102CC2F38002A27013F8103CC3F3C2038C
:102DF000E37007B030BD6FF00700FAE72DE9F04748
:102E000005460E4617461046FEF76BFF00283DD1DB
:102E1000002D3ED097F8478004460FE03946002049
:102E2000FFF70DFB19E039460AF10400FFF763FFD5
:102E3000E8B9B8F1010F22D00134E4B2B44216D29D
:102E400004EB84034FEA830905EB830A15F823306A
:102E5000032B02D9B8F1010FE0D00028E9D115F811
:102E60000930092B05D0292BDDD06FF00700BDE814
:102E7000F08739460AF10400FFF787FFD8E70028FA
:102E8000DAD139460120FFF7DAFAD5E74FF0FF3003
:102E9000EDE74FF0FF30EAE7B0F8483013F0020FEB
:102EA00014D010B586B00446FEF71BFF88B929235D
:102EB0008DF804302246012101A8FFF79FFF18B9C1
:102EC000BDF90830A4F8443006B010BD6FF007001B
:102ED00070474FF0FF30F7E730B50546002301E0BB
:102EE0000133DBB292F819C09C450FD9106A03EB8D
:102EF000430C00EB0C0410F80CE08E45F0D130F8D8
:102F00000C20A3782A80AB70012000E0002030BDA7
:102F100030B587B005460C46002302930393049313
:102F200005938DF804308DF805308DF806300A468B
:102F3000092101A8FFF7D0FF002853D0224602A99B
:102F40009DF80500FFF780FE002849D19DF806C0D6
:102F50004FEA5C0C02AB33F81C102A88C2F30A0259
:102F600001F478410A4323F81C200CF1010033F8E6
:102F700010106A88C2F30A0201F478410A4323F868
:102F800010200CF1020033F81010AA88C2F30A02D4
:102F900001F478410A4323F810200CF1030E4FEAA4
:102FA0004E0E5FFA8EFE9DF80620AEEB020E5FFA23
:102FB0008EFE00200CE000EB020C02AB13F80C308C
:102FC0000CF118010DEB010C0CF8103C0130C0B2F3
:102FD0007045F0D32346102202A93020FFF76BF88A
:102FE00007B030BD6FF00700FAE72DE9F041054664
:102FF0000F4616461046FEF774FE002847D1002DF6
:1030000048D096F8478004461DE031460020FFF77F
:1030100016FA1DE06FF00700B8F1010F30D0BDE8DF
:10302000F081092B04D131460230FFF771FF06E031
:103030006FF00700F0E731460230FFF724F900286F
:10304000EAD10134E4B2BC42E6D2B8F1010FDCD0DF
:103050000028E1D1342304FB03F3E818EB5C022BD6
:1030600009D0DED8002BE6D0012BD3D13146023077
:10307000FFF74CF9E3E731460230FFF7B4FCDEE737
:103080000028CCD131460120FFF7D9F9C7E74FF02E
:10309000FF30C4E74FF0FF30C1E730B587B00546D9
:1030A0000C46002302930393049305938DF8043098
:1030B0008DF805308DF806300A46092101A8FFF782
:1030C0000BFF00283DD0224602A99DF80500FFF71E
:1030D000BBFDA0BB9DF8063003F1010C03F1180203
:1030E0006A4412F8102C991C06AC54FA8CFC1CF89B
:1030F00010CC42EA0C22C2F30A022C462A8003F1C9
:10310000030C06AA52FA81F212F8102C191D06AD12
:1031100055FA8CFC1CF810CC42EA0C22C2F30A02CD
:103120006280053355FA81F212F8102C55FA83F3B8
:1031300013F8103C42EA0323C3F30A03A38007B049
:1031400030BD6FF00700FAE72DE9F04706468846E4
:1031500017461046FEF7C5FD002851D1002E52D06B
:1031600097F8479005461FE039460020FFF767F9BA
:1031700029E06FF00700B9F1010F3AD0BDE8F08700
:10318000092B05D139460AF10200FFF786FF07E057
:103190006FF00700EFE739460AF10200FEF778FE0C
:1031A0000028E8D10135EDB24545E4D2342405FBD1
:1031B00004F406EB040A335D032B01D8022B02D181
:1031C000B9F1010FD0D00028D5D1335D022B0AD040
:1031D000D6D8002BDFD0012BCBD139460AF1020023
:1031E000FEF780FEDCE739460AF10200FEF744FFF5
:1031F000D6E70028C2D139460120FFF720F9BDE704
:103200004FF0FF30BAE74FF0FF30B7E770B586B048
:103210000546002302930393049305938DF804302D
:103220008DF805308DF80630B1F8483013F0100FE6
:1032300011D10C4691F847301E46012B0ED0224684
:10324000242101A8FFF748FE70B96FF00700012E96
:103250001AD006B070BD00202870FAE70020FFF7F2
:10326000EEF80028F5D1EAE7224602A99DF805000C
:10327000FFF7EAFC0028EAD19DF8063018336B44CA
:1032800013F8103C2B70E2E70028E2D12146012020
:10329000FFF7D5F8DDE770B586B0002302930393FE
:1032A000049305938DF804308DF805308DF80630C1
:1032B000B1F8483013F0100F41D10C464008FF28F8
:1032C00012D8C3B21E4694F847301D46012B0ED0CB
:1032D0002246242101A8FFF7FFFD78B96FF007000F
:1032E000012D25D006B070BDFF231E46EBE7214619
:1032F0000020FFF7A4F80028F4D1E9E7224602A94C
:103300009DF80500FFF7A0FC0028E9D19DF8061004
:1033100001F118036B4403F8106C01F130002346EF
:1033200002220DF1080C6144C0B2FEF7C4FED7E7DB
:103330000028D7D121460120FFF781F8D2E70020ED
:10334000D0E72DE9F04182B00E4614460023ADF8D7
:1033500004308DF8033000F003031D46030A1F46B6
:1033600098461046FEF7BDFC10B102B0BDE8F081F2
:103370002346022201A94820FEF71BFD0028F4D1B4
:103380003DB1012E17D09DF8043023EA05038DF8D6
:103390000430012E15D09DF80520FB435BB213408D
:1033A0008DF805300028E0D12346022201A94820EB
:1033B000FEF781FED9E79DF804302B438DF80430E9
:1033C000E7E79DF80530424613438DF80530B4F821
:1033D000483013F0010FE5D021460DF10300FFF74F
:1033E00015FF0028C1D19DF80330002BDAD121460A
:1033F0000220FFF750FFD5E738B1826B42B1C26BB4
:103400004AB1036C53B1002070474FF0FF30704752
:103410004FF0FF3070474FF0FF3070474FF0FF30F4
:103420007047000010B50446FFF7E6FF90B924236B
:1034300023704FF40053A4F84A300323A4F8483013
:10344000637A43B90123E37263693BB12046FFF716
:10345000B5FB30B110BD0023E372F5E70A4B6361A1
:10346000F4E70A4B23620A4B636208232376112296
:1034700062760722A276074AE26584F86030204629
:10348000FFF70AFDE6E700BF9882000864820008A3
:103490004C8200080000002008B50349034803F0EF
:1034A00059FD034B187008BDC401002098A2000804
:1034B000C801002000B583B0009313460A460146B8
:1034C000034803F06DF800B1012003B000BD00BF58
:1034D0004001002000B583B0009313460A46014620
:1034E000034803F07FF900B1012003B000BD00BF25
:1034F0004001002008B5034803F0E3FC043818BF7E
:10350000012008BD4001002008B50146014803F034
:103510001DFC08BD4001002000B583B001238DF8DB
:10352000073000F0A1F808B98DF807009DF80700F2
:1035300003B000BD38B5FFF7EFFF012803D0022329
:103540001C46204638BD0546074803F091FC04465A
:103550000028F6D14FF40061034803F009FC00286D
:10356000EFD02C46EDE700BF4001002008B5074B27
:1035700001221A70FFF7BEFF20B9044A137803F046
:10358000FE031370014B187808BD00BF1000002027
:1035900010B50446074B01221A70FFF7CBFF10B19C
:1035A000044B187810BD2046FFF7E0FF014B187060
:1035B000F6E700BF1000002008B5FFF7D7FF08BDF1
:1035C00008B5084611461A464FF0FF33FFF772FF61
:1035D00030B9FFF78FFF03460028FAD1184608BD1F
:1035E0000123FBE708B5084611461A464FF0FF33A2
:1035F000FFF770FF30B9FFF77DFF03460028FAD1CF
:10360000184608BD0123FBE730B589B0154B187883
:1036100010F001041FD11546022916D00AD8F1B1C5
:10362000012905D16846FFF76FFF069B2B6013E069
:10363000042411E0032906D16846FFF765FF079BC4
:103640005B0A2B6008E0042406E06846FFF75CFF95
:10365000079B2B8000E00324204609B030BD0C46B8
:10366000FAE700BF1000002008B54FF480614FF06A
:10367000904001F0B3FD08B9012008BD0020FCE72F
:10368000104B1B780BB90120704710B504460E4A49
:1036900010684FF47A72B2FBF3F3B0FBF3F002F070
:1036A00097FA68B90F2C01D901200AE00246214699
:1036B0004FF0FF3002F078FA044B1C60002000E06D
:1036C000012010BD1100002018000020140000206F
:1036D00010B5032002F056FA0F20FFF7D1FF18B102
:1036E00001231C46204610BD0446FDF78BFAF9E77E
:1036F000034B1B78034A11680B441360704700BFEB
:1037000011000020CC010020014B1868704700BF59
:10371000CC01002038B50446FFF7F6FF0546B4F1AA
:10372000FF3F02D0044B1B781C44FFF7EDFF401B0A
:10373000A042FAD338BD00BF1100002030B583B0DD
:103740000546204B9B6D13F0805F0BD002F084F98F
:10375000B0F5007F17D0802D1FD82DD0702D2DD023
:1037600000211BE0174CA36D43F08053A365A36DAC
:1037700003F080530193019B02F06EF9A36D23F0D7
:103780008053A365E4E7802D03D9A02D03D902213E
:1037900004E0002102E0012100E003210A4A13684D
:1037A00023F007030B431360136803F007038B42F6
:1037B00006D1002003B030BD0221EFE70121EDE783
:1037C0000120F7E70010024000200240254A9368DC
:1037D000D26802F0030213F00C0309D00C2B05D0C1
:1037E000042B3BD0082B3BD000200FE0012AF7D15F
:1037F0001C4A126812F0080F0CD11A4AD2F8942011
:10380000C2F30322184951F8220013B10C2B06D041
:1038100000207047134A1268C2F30312F2E7114BFB
:10382000DB6803F00303022B16D0032B00D10F48F3
:103830000C49CA68C2F302120132CB68C3F30623F3
:1038400000FB03F3B3FBF2F3C868C0F3416001303F
:103850004000B3FBF0F070470548E9E704487047C3
:103860000248704700100240ACA2000800127A0023
:103870000024F400002800F0F382F0B583B0044681
:10388000964B9D6805F00C05DB6803F003031E46AC
:10389000036813F0100F5AD0E5B10C2D18D0A369AE
:1038A000002B00F0BB808D4A136843F001031360C6
:1038B000FFF72AFF0746894B1B6813F0020F40F001
:1038C0009A80FFF721FFC01B0228F4D90320D2E21F
:1038D000012EE4D1814B1B6813F0020F03D0A369C2
:1038E000002B00F0BF82206A7C4B1B6813F0080F8E
:1038F0005BD07A4B1B6803F0F00398425CD8774B9F
:103900001A6842F008021A601A6822F0F002216A6E
:103910000A431A605A6822F47F42E16942EA0122AE
:103920005A60002D60D0FFF751FF6C4B9B68C3F3CA
:1039300003136B4AD35C03F01F03D840694B186034
:10394000694B1868FFF79CFE002840F094822368BA
:1039500013F0010F00F08180082D75D00C2D71D06F
:103960006368B3F5803F00F09780B3F5A02F00F0B7
:1039700099805A4B1A6822F480321A601A6822F42D
:1039800080221A606368002B00F09980FFF7BCFE6C
:103990000746524B1B6813F4003F5ED1FFF7B4FE9D
:1039A000C01B6428F5D9032065E24C4BD3F8943052
:1039B0001B0903F0F003A0E7FFF7C0FE002840F06A
:1039C0005382464B1A6842F008021A601A6822F0C5
:1039D000F002216A0A431A605A6822F47F42E169C0
:1039E00042EA01225A609EE7206AFFF7A7FE0028FC
:1039F00099D001203FE2394B1A6842F008021A6060
:103A00001A6822F0F002216A0A431A605A6822F406
:103A10007F42E16942EA01225A6098E72F4A13681F
:103A200023F001031360FFF76FFE07462B4B1B6863
:103A300013F0020F8BD0FFF767FEC01B0228F5D9E9
:103A4000032018E2032E8BD1244B1B6813F4003F94
:103A500003D06368002B00F00982236813F0020F83
:103A600057D0042D44D00C2D40D0E368002B76D0E5
:103A70001A4A136843F480731360FFF745FE064645
:103A8000164B1B6813F4806F60D1FFF73DFE801B5F
:103A90000228F5D90320EEE1104A136843F480337D
:103AA00013606FE703F18043A3F53C331A6842F4D7
:103AB00080221A601A6842F480321A6062E7FFF7C7
:103AC00023FE0746054B1B6813F4003FC5D0FFF7E4
:103AD0001BFEC01B6428F5D90320CCE10010024076
:103AE000E4A200081800002014000020022EBCD11F
:103AF000A44B1B6813F4806F03D0E368002B00F025
:103B0000B781A04A536823F0F853216943EA01635F
:103B10005360236813F0080F4CD063699BB3994A34
:103B2000D2F8943043F00103C2F89430FFF7ECFD73
:103B30000646944BD3F8943013F0020F3AD1FFF7B6
:103B4000E3FD801B0228F4D9032094E18D4A5368D9
:103B500023F0F853216943EA01635360D9E7894AA6
:103B6000136823F480731360FFF7CEFD0646854B80
:103B70001B6813F4806FCCD0FFF7C6FD801B0228B2
:103B8000F5D9032077E17F4AD2F8943023F001037E
:103B9000C2F89430FFF7B8FD06467A4BD3F894305C
:103BA00013F0020F06D0FFF7AFFD801B0228F4D9F7
:103BB000032060E1236813F0040F7CD0714B9B6DF0
:103BC00013F0805F37D16F4B9A6D42F080529A6547
:103BD0009B6D03F080530193019B01231F466A4BA9
:103BE0001B6813F4807F29D0A368012B3AD0052BE2
:103BF00040D0644BD3F8902022F00102C3F890200B
:103C0000D3F8902022F00402C3F89020A368002B80
:103C10003ED0FFF779FD06465A4BD3F8903013F0AB
:103C2000020F47D1FFF770FD801B41F288339842A5
:103C3000F2D903201FE100231F46D0E7524A136840
:103C400043F480731360FFF75FFD06464E4B1B681D
:103C500013F4807FC8D1FFF757FD801B0228F5D9E8
:103C6000032008E1474AD2F8903043F00103C2F83C
:103C70009030CBE7434BD3F8902042F00402C3F8D6
:103C80009020D3F8902042F00102C3F89020BDE7C5
:103C9000FFF73AFD06463B4BD3F8903013F0020F86
:103CA00008D0FFF731FD801B41F288339842F2D9EA
:103CB0000320E0E0EFB9A36A002B00F0DB80022BC9
:103CC0001DD00C2D00F0DD802E4A136823F0807388
:103CD0001360FFF719FD04462A4B1B6813F0007FA1
:103CE00000F0B780FFF710FD001B0228F4D9032075
:103CF000C1E0244A936D23F080539365DBE7214BA9
:103D0000DB6803F00301E26A91420FD00C2D00F052
:103D1000B4801C4B1B6813F0806F40F0B080194BCF
:103D20001B6813F0805F31D00120A4E003F0700223
:103D3000216B0139B2EB011FE8D103F4FE42616B44
:103D4000B2EB012FE2D103F40031A26B073A18BFA6
:103D500001229142DAD103F4C001E26B5208013A28
:103D6000B1EB425FD2D103F0C063226C5208013A3A
:103D7000B3EB426FCAD1034B1B6813F0007F4ED0E8
:103D8000002078E000100240007000403E4A1368B6
:103D900023F080731360FFF7B7FC05463A4B1B68AE
:103DA00013F0007F06D0FFF7AFFC401B0228F5D9C7
:103DB000032060E0344AD36834491940E36A206B39
:103DC000013843EA0013606B43EA0023E06B4008CC
:103DD000013843EA4053206C4008013843EA40630D
:103DE000A06B000943EA40431943D160136843F0D4
:103DF00080731360D36843F08073D360FFF784FC53
:103E00000446214B1B6813F0007F06D1FFF77CFCB2
:103E1000001B0228F5D903202DE000202BE01A4BCF
:103E20001A6842F080721A60DA6842F08072DA60D2
:103E3000FFF76AFC0446144B1B6813F0007F06D1A1
:103E4000FFF762FC031B022BF5D9032013E00020CF
:103E500011E00D4AD1680E4B0B40D36000200AE000
:103E600001207047012006E0012004E0012002E06B
:103E7000012000E0184603B0F0BD0120FBE701205F
:103E8000F9E70120F7E700BF001002408C809DF9A0
:103E9000FCFFEEFE002800F0AF8070B50D46044632
:103EA000594B1B6803F007038B420BD2564A136829
:103EB00023F007030B431360136803F007038B42DF
:103EC00040F09C80236813F0020F0CD0A2684F4B87
:103ED0009B6803F0F0039A4205D94C498B6823F0A4
:103EE000F0031A438A60236813F0010F39D0636826
:103EF000032B09D0022B26D063BB444A126812F070
:103F0000020F06D1012076E0404A126812F0007FCD
:103F100076D03E498A6822F0030213438B60FFF794
:103F2000F3FB0646394B9B6803F00C036268B3EB66
:103F3000820F16D0FFF7E8FB801B41F288339842CE
:103F4000F0D9032057E0314A126812F4003FE0D163
:103F5000012050E02D4A126812F4806FD9D101205F
:103F600049E0236813F0020F0CD0A268274B9B682E
:103F700003F0F0039A4205D224498B6823F0F00342
:103F80001A438A60204B1B6803F00703AB420AD92F
:103F90001D4A136823F007032B431360136803F0D3
:103FA0000703AB422ED1236813F0040F06D0174A43
:103FB000936823F4E063E1680B439360236813F094
:103FC000080F07D0114A936823F46053216943EA2C
:103FD000C1039360FFF7FAFB0C4B9B68C3F3031319
:103FE0000B4AD35C03F01F03D8400A4B18600A4BFE
:103FF0001868FFF745FB70BD012070470120FAE704
:104000000120F8E70120F6E70020024000100240FE
:10401000E4A200081800002014000020014B1868DA
:10402000704700BF1800002008B5FFF7F7FF054BE9
:104030009B68C3F30223044AD35C03F01F03D840F8
:1040400008BD00BF00100240DCA2000808B5FFF761
:10405000E5FF054B9B68C3F3C223044AD35C03F01E
:104060001F03D84008BD00BF00100240DCA20008BA
:10407000B0F5006F2BD0B0F5805F32D00023B3F5E0
:10408000000F38D0B3F1007F35D0002B54D103F1AD
:10409000804303F50433186810F0006053D01869AA
:1040A00010F480304FD01A46D868C0F302100130A7
:1040B000B1FBF0F11B69C3F30623126912F4003F50
:1040C00038D0112203FB01F0B0FBF2F070472E4B09
:1040D000D3F8883003F44003B3F5400FCFD12B4819
:1040E0007047294BD3F8883003F04073B3F1407F19
:1040F000C5D126487047244B186810F0007022D0B4
:10410000D86810F480301ED01A46D868C0F3021068
:104110000130B1FBF0F1DB68C3F30623D26812F47F
:10412000003F05D0112203FB01F0B0FBF2F0704715
:104130000722F8E70722C5E7B3F5800F04D0B3F1F3
:10414000807F01D0002070470F4B186810F000509E
:10415000F9D0586910F48030F5D01A46D868C0F309
:1041600002100130B1FBF0F15B69C3F30623526921
:1041700012F4003F05D0112203FB01F0B0FBF2F076
:1041800070470722F8E700BF0010024068FF1F00D9
:10419000F8B504460F465F4BDB6813F0030F1BD0E6
:1041A0005C4BDB6803F003030268934203D00123F6
:1041B0001D462846F8BD002A00F0A580554BDB6857
:1041C000C3F3021301334268934202D001231D4618
:1041D000EFE700231D461AE00368022B59D0032B9A
:1041E0005FD0012B40F092804A4A126812F0020F11
:1041F00064D04848C26822F073026168013943EA1A
:1042000001131343C36000231D46002DD1D1414A41
:10421000136823F080631360FFF776FA06463D4B80
:104220001B6813F0006F06D0FFF76EFA831B022B9A
:10423000F5D903231D46002DBBD1002F41D13549AF
:104240000B6923F41F3323F44073A068E26812095A
:10425000520442EA002213430B612E4A136843F0D2
:1042600080631360FFF750FA06462A4B1B6813F071
:10427000006F06D1FFF748FA801B0228F5D9032307
:104280001D46002D95D1234A1369A1690B43136183
:104290008FE7204A126812F4806FAAD101231D46CD
:1042A00087E71C4A126812F4003FA2D1194A12682B
:1042B00012F4802F9DD101231D467AE701231D466C
:1042C000A3E7012F0FD01348026922F0C06222F445
:1042D000FE42A16863695B08013B5B0643EA012378
:1042E0001A430261B9E70B48026922F4C00222F4C2
:1042F000FE42A16823695B08013B5B0543EA012399
:104300001A430261A9E701231D4652E701231D4616
:104310004FE700BF00100240F8B504460F46554B6A
:10432000DB6813F0030F1BD0524BDB6803F0030371
:104330000268934203D001231D462846F8BD002A97
:1043400000F092804B4BDB68C3F3021301334268E9
:10435000934202D001231D46EFE700231D4619E0DA
:104360000368022B58D0032B5ED0012B7FD1414A2A
:10437000126812F0020F64D03E48C26822F0730245
:104380006168013943EA01131343C36000231D46EA
:10439000002DD2D1374A136823F080531360FFF702
:1043A000B3F90646334B1B6813F0005F06D0FFF7E6
:1043B000ABF9831B022BF5D903231D46002DBCD17D
:1043C000002F41D12B494B6923F41F3323F4407351
:1043D000A068E2681209520442EA002213434B61CA
:1043E000244A136843F080531360FFF78DF90646A3
:1043F000204B1B6813F0005F06D1FFF785F9801B87
:104400000228F5D903231D46002D96D1194A536978
:1044100061690B43536190E7164A126812F4806F8A
:10442000AAD101231D4688E7124A126812F4003F00
:10443000A2D1104A126812F4802F9DD101231D468B
:104440007BE701231D46A3E70A48426922F0C062C8
:1044500022F4FE42A16823695B08013B5B0643EA44
:1044600001231A434261BBE701231D4665E701238F
:104470001D4662E7001002402DE9F04182B004467B
:10448000036813F4006F38D0436EB3F5000F18D0F3
:104490000DD84BB3B3F5800F05D100212030FFF7C5
:1044A0003BFF064625E001231F461E4628E0B3F5E4
:1044B000400F02D100231E460AE001231F461E467C
:1044C0001EE0644AD36843F48033D36000231E4661
:1044D000604AD2F8883023F44003616E0B43C2F87F
:1044E000883000231F460BE019460430FFF750FECA
:1044F0000646002EECD0374602E000231F461E463B
:10450000236813F4805F32D0A36EB3F1007F21D013
:104510000ED82BB3B3F1807F06D1002104F1200027
:10452000FFF7FAFE064606E001231F461E461EE080
:10453000B3F1407F0AD1CEB9464AD2F8883023F091
:104540004073A16E0B43C2F8883010E001231F4670
:104550001E460CE03F4AD36843F48033D360EAE759
:104560001946201DFFF714FE0646E4E73746236888
:1045700013F4003F77D0374B9B6D13F0805F52D11F
:10458000344B9A6D42F080529A659B6D03F08053D4
:104590000193019B012398462F4A136843F48073CB
:1045A0001360FFF7B1F805462B4B1B6813F4807FAF
:1045B00006D1FFF7A9F8401B0228F5D903231E46B0
:1045C000002E4BD106F1804303F50433D3F890302D
:1045D00013F4407319D0D4F884209A4212D01D4AA3
:1045E000D2F8903023F44073D2F8901041F4803127
:1045F000C2F89010D2F8901021F48031C2F89010D7
:10460000C2F8903013F0010F10D1002E40F0298134
:10461000104AD2F8903023F44073D4F884100B433E
:10462000C2F890301BE000239846B5E7FFF76CF81E
:104630000546084BD3F8903013F0020FE5D1FFF791
:1046400063F8401B41F288339842F2D903231E4697
:10465000DBE700BF001002400070004037464346D1
:10466000002B40F00081236813F0010F08D09D4A11
:10467000D2F8883023F00303A16B0B43C2F88830D3
:10468000236813F0020F08D0964AD2F8883023F03E
:104690000C03E16B0B43C2F88830236813F0040F5E
:1046A00008D0904AD2F8883023F03003216C0B43B5
:1046B000C2F88830236813F0080F08D0894AD2F86E
:1046C000883023F0C003616C0B43C2F88830236844
:1046D00013F0100F08D0834AD2F8883023F44073C7
:1046E000A16C0B43C2F88830236813F0200F08D068
:1046F0007C4AD2F8883023F44063E16C0B43C2F863
:104700008830236813F4007F08D0764AD2F88830C6
:1047100023F44023E16D0B43C2F88830236813F47F
:10472000806F08D06F4AD2F8883023F44013216E8E
:104730000B43C2F88830236813F0400F08D0694A51
:10474000D2F8883023F44053216D0B43C2F88830EF
:10475000236813F0800F08D0624AD2F8883023F41F
:104760004043616D0B43C2F88830236813F4807FA7
:1047700008D05C4AD2F8883023F44033A16D0B4353
:10478000C2F88830236813F4005F0FD0554AD2F87E
:10479000883023F04063E16E0B43C2F88830E36E4B
:1047A000B3F1006F65D0B3F1806F67D0236813F465
:1047B000002F0FD04B4AD2F8883023F04063216F8E
:1047C0000B43C2F88830236FB3F1006F5ED0B3F1B2
:1047D000806F60D0236813F4802F0FD0414AD2F845
:1047E000883023F04063616F0B43C2F88830636FF9
:1047F000B3F1006F57D0B3F1806F59D0236813F431
:10480000804F0FD0374AD2F8883023F04053A16F41
:104810000B43C2F88830A36FB3F1805F50D0B3F17F
:10482000005F55D0236813F4004F08D02D4AD2F80A
:10483000883023F08043E16F0B43C2F8883023684F
:1048400013F4803F09D0274AD2F8883023F0004380
:10485000D4F880100B43C2F88830384602B0BDE867
:10486000F0813746FBE61F4A936D23F08053936532
:10487000F9E6D36843F48013D36097E70121201D44
:10488000FFF786FC002891D007468FE7D36843F4F2
:104890008013D3609EE70121201DFFF779FC0028DB
:1048A00098D0074696E7D36843F48013D360A5E712
:1048B0000121201DFFF76CFC00289FD007469DE7D3
:1048C0000221201DFFF764FC0028ABD00746A9E7B2
:1048D000022104F12000FFF71FFD0028A2D00746A7
:1048E000A0E700BF0010024008B5B0F5003F1AD0A5
:1048F000A54BDB6803F00303022B45D0032B4AD002
:10490000012B4FD1A04B196811F002014BD01B684D
:1049100013F0080F32D09C4B1B68C3F303139B4A60
:1049200052F823103FE0984BD3F8903003F44073D3
:10493000B3F5007F10D0B3F5407F17D0B3F5807F7B
:1049400040F03083904BD3F8900010F0020000F05C
:104950002A834FF4004026E38B4BD3F8940010F0E9
:10496000020000F020834FF4FA401CE3864B1868E5
:1049700010F4003000F01783854814E3824BD3F81D
:104980009430C3F30323CAE77F4B196811F48061A5
:1049900009D0804907E07C4B196811F4003102D03E
:1049A0007D4900E00021B0F5807F00F0848257D877
:1049B000102800F0B98134D8042800F0718119D88A
:1049C000012800F02981022812D16F4BD3F88830DA
:1049D00003F00C03082B00F05B8100F24881002BF0
:1049E00000F05381042B40F04081FEF7EFFEDAE245
:1049F0000020D8E2082812D1634BD3F8883003F0A6
:104A0000C003802B00F0888100F27581002B00F03C
:104A10008081402B40F06D81FEF7D8FEC3E200207C
:104A2000C1E2402800F01082802800F0298220286E
:104A300014D1554BD3F8883003F44063B3F5006FBD
:104A400000F0B28100F29E81002B00F0AA81B3F544
:104A5000806F40F09581FEF7B9FEA4E20020A2E24B
:104A6000B0F5805F73D010D9B0F5004F00F08782A9
:104A700033D9B0F5803F4BD1434BD3F88830002B6E
:104A8000C0F2DB81FFF7E2FA8DE2B0F5806F00F053
:104A90004682B0F5006F55D0B0F5007F1BD13A4B80
:104AA000D3F8883003F44023B3F5002F00F03082B0
:104AB00000F21D82002B00F02882B3F5802F40F019
:104AC0001482314BD3F8940010F0020000F06B8296
:104AD0004FF4FA4067E2002065E2B0F5005F1FD0B6
:104AE000B0F5804F12D1284BD3F8883003F04053F3
:104AF000B3F1005F00F08281B3F1405F00F05C81B0
:104B0000B3F1805F00F05B8100204CE200204AE2BC
:104B1000C0F04A82B0F5802F02D0B0F5002F0FD13F
:104B2000194BD3F8883003F04063B3F1006F35D0F0
:104B3000B3F1406F10D0B3F1806F4ED0002032E25D
:104B4000002030E24FF40060FFF792FA2BE24FF4BE
:104B50008050FFF78DFA26E20B4B186810F0020028
:104B600000F021821B6813F0080F07D0064B1B686A
:104B7000C3F30313054A52F8230014E2024BD3F89F
:104B80009430C3F30323F5E700100240ACA2000801
:104B900090D003000024F40000127A00A84B18689B
:104BA00010F0007000F0FF81D86810F4801000F061
:104BB000FA811A46DB68C3F3062303FB01F0D368CE
:104BC000C3F302130133B0FBF3F0D368C3F34153D3
:104BD00001335B00B0FBF3F0E5E1994B186810F08E
:104BE000006000F0E081186910F4801000F0DB81B3
:104BF0001A461B69C3F3062303FB01F0D368C3F312
:104C000002130133B0FBF3F01369C3F341530133D3
:104C10005B00B0FBF3F0C6E1894BD3F8883003F0BA
:104C20000303022B19D007D8A3B1012B02D1FEF741
:104C3000CDFDB8E10020B6E1032B09D1804BD3F8BC
:104C4000900010F0020000F0AE814FF40040AAE1A5
:104C50000020A8E1FFF7FAF9A5E1794B186810F4F4
:104C6000806000F0A08177489DE100209BE10C2B43
:104C700009D1734BD3F8900010F0020000F093813B
:104C80004FF400408FE100208DE1FFF7CDF98AE17C
:104C90006B4B186810F4806000F08581694882E1F0
:104CA000674BD3F8883003F03003202B19D007D896
:104CB000A3B1102B02D1FEF789FD74E1002072E14F
:104CC000302B09D15E4BD3F8900010F0020000F0B9
:104CD0006A814FF4004066E1002064E1FFF7A4F927
:104CE00061E1574B186810F4806000F05C81554812
:104CF00059E1002057E1C02B09D1514BD3F8900066
:104D000010F0020000F04F814FF400404BE1002012
:104D100049E1FFF789F946E1494B186810F48060D2
:104D200000F0418147483EE1454BD3F8883003F419
:104D30004073B3F5007F1BD008D8B3B1B3F5807FC3
:104D400002D1FEF743FD2EE100202CE1B3F5407FB8
:104D500009D13B4BD3F8900010F0020000F0238102
:104D60004FF400401FE100201DE1FFF75DF91AE15B
:104D7000334B186810F4806000F01581314812E15F
:104D8000002010E1B3F5406F09D12D4BD3F890000E
:104D900010F0020000F007814FF4004003E1002012
:104DA00001E1FFF741F9FEE0254B186810F480603F
:104DB00000F0F9802348F6E0FEF708FDF3E0204B11
:104DC000186810F0006000F0EE80186910F0807034
:104DD00000F0E9801A461B69C3F3062303FB01F0C8
:104DE000D368C3F302130133B0FBF3F01369C3F3C9
:104DF000416301335B00B0FBF3F0D4E0104B186863
:104E000010F0005000F0CF80586910F0807000F072
:104E1000CA8018465B69C3F3062301FB03F3C2682B
:104E2000C2F302120132B3FBF2F34069C0F34160F6
:104E300001304000B3FBF0F0B5E0FEF7C7FCB2E094
:104E4000001002400024F4005B4BD3F8883003F4D8
:104E50004053B3F5805F08D0B3F5005F08D0002B56
:104E600040F0A480FFF7E0F89DE0FEF7AFFC9AE089
:104E7000514B186810F4806000F095804F4892E024
:104E80004D4BD3F8883003F44043B3F5804F08D03E
:104E9000B3F5004F08D0002B40F08A80FFF7C4F82C
:104EA00081E0FEF793FC7EE0434B186810F48060CD
:104EB00079D0424877E0404BD3F8883003F4403350
:104EC000B3F5803F07D0B3F5003F07D0002B71D179
:104ED000FFF7AAF867E0FEF779FC64E0364B186844
:104EE00010F480605FD035485DE000205BE0B3F5F2
:104EF000402F08D1304BD3F8900010F0020052D070
:104F00004FF400404FE000204DE0FFF78DF84AE0FD
:104F1000294B186810F4806045D0284843E0264BA0
:104F2000D3F8883003F44013B3F5001F20D00ED817
:104F3000DBB1B3F5801F08D11F4BD3F8940010F0FC
:104F4000020030D04FF4FA402DE000202BE0B3F502
:104F5000401F08D1184BD3F8900010F0020022D067
:104F60004FF400401FE000201DE0FFF75DF81AE05D
:104F7000114B186810F4806015D0104813E00E4BE8
:104F8000D3F8883013F0804302D023B918460AE0E2
:104F9000FFF74AF807E0084B186810F4806002D069
:104FA000064800E0002008BD0020FCE70020FAE7EA
:104FB0000020F8E70020F6E7001002400024F4008B
:104FC00070B582B0002374E085684FEA430E032475
:104FD00004FA0EF425EA0405CC6804FA0EF42C4316
:104FE0008460446824EA0C044D68C5F3001E0EFA80
:104FF00003FE4EEA0404446070E0C46A24EA0C0430
:10500000C5F3C00E0EFA03FE4EEA0404C4626AE061
:10501000DD08083550F8254003F0070C4FEA8C0CEA
:105020004FF00F0E0EFA0CFE24EA0E0E0C6904FA75
:105030000CF444EA0E0440F825406FE0062400E03A
:10504000002404FA0EF42C430CF1020C5F4D45F8D9
:105050002C405F4CA4686FEA020C24EA02054E68FB
:1050600016F4801F01D042EA0405594CA560E4689B
:105070000CEA04054E6816F4001F01D042EA04054C
:10508000534CE56064680CEA04054E6816F4003F72
:1050900001D042EA04054E4C656024680CEA040520
:1050A0004E6816F4803F01D042EA0405484A156074
:1050B00001330A6832FA03F400F086804FF0010CE5
:1050C0000CFA03FC1CEA0202F2D04C6804F0030E56
:1050D0000EF1FF3EBEF1010F7FF676AF4D6805F091
:1050E0000304032C89D04C6804F0030CBCF1030FBB
:1050F0000DD0C4685D004FF0030C0CFA05FC24EAE7
:105100000C048E6806FA05FC4CEA0404C4604C6882
:1051100004F0030CBCF1020F3FF47AAF05685C00A9
:105120004FF0030C0CFA04FC25EA0C0E4D6805F058
:10513000030C0CFA04FC4CEA0E0404604C6814F4F2
:10514000403FB5D0234C256E45F001052566246E01
:1051500004F001040194019C4FEA930C0CF1020548
:105160001A4C54F8255003F0030E4FEA8E0E0F240C
:1051700004FA0EF425EA0405B0F1904F3FF460AF55
:10518000154CA04216D004F58064A04214D004F55A
:105190008064A04212D004F58064A04210D004F5CF
:1051A0008064A0420ED004F58064A0423FF446AF74
:1051B000072446E7012444E7022442E7032440E7AA
:1051C00004243EE705243CE702B070BD0000014026
:1051D0000004014000100240000400480369194225
:1051E00001D001207047002070470AB181617047EB
:1051F0008162704708B5054B5B69034200D108BD69
:10520000024B5861FBF7C4F8F9E700BF0004014006
:1052100003689A6912F0020F01D000229A620368B3
:105220009A6912F0010F03D19A6942F001029A6162
:105230007047DDF800C0C1F3090141EA024119439A
:1052400041EA0C0121F00041026853684FEA5C5CBE
:105250000CF4806C4CF07F7C4CF4583C4CF47F7C1C
:105260004CF0030C23EA0C030B43536070472DE909
:10527000F041044603689E6916F010067CD00D4686
:1052800090461022DA61002637462368986910F0AC
:10529000200F30D17FBBB5F1FF3FF6D0FEF734FAD7
:1052A0004346C01AA84201D8002DEED121684B68B0
:1052B00003F4804394F84220D2B2886910F4004F7E
:1052C00002D00BB9202A0ED123689B6913F0200F5E
:1052D000DBD1FEF719FA4346C01A1928F4D946F073
:1052E00020060127D1E74B6843F480434B60FEF76B
:1052F0000BFA8046E8E70FB92022DA6146F004068F
:1053000001252268936913F4807F05D046F00106D9
:105310004FF48071D161012513F4806F06D046F0FF
:10532000080622684FF48061D161012513F4007FE3
:1053300024D046F0020623684FF40072DA6101259A
:105340002046FFF765FF2268536823F0FF7323F4BC
:105350008B3323F4FF7323F001035360636C3343F7
:105360006364202384F84130002384F8423084F8B9
:1053700040302846BDE8F0810025C2E7002DF8D076
:10538000DEE770B504460D46164623689B6913F0A8
:10539000020F22D1324629462046FFF768FFF0B9B6
:1053A000B5F1FF3FF1D0FEF7AFF9801BA84201D85D
:1053B000002DEAD123689B6913F0020FE5D1636CDD
:1053C00043F020036364202384F84130002384F8F1
:1053D000423084F84030012000E0002070BD012000
:1053E000FCE72DE9F04104460F4616461D46DDF860
:1053F000188023689B6937EA03030CBF012300234D
:10540000B34227D1424629462046FFF730FF20BB52
:10541000B5F1FF3FEDD0FEF777F9A0EB0800A84209
:1054200001D8002DE5D123689B6937EA03030CBF3F
:1054300001230023B342DCD1636C43F02003636497
:10544000202384F84130002384F8423084F840302F
:10545000012000E00020BDE8F0810120FBE7000012
:1054600070B582B0044616461D46184B00934FF0A7
:105470008073EAB2FFF7DDFE079A06992046FFF730
:1054800080FFE0B9012D0DD12368F2B29A62079B2B
:105490000093069B002280212046FFF7A2FF90B9CF
:1054A00002B070BD330A22689362079A06992046BB
:1054B000FFF767FF28B92368F2B29A62E7E7012095
:1054C000EEE70120ECE70120EAE700BF00200080C2
:1054D00070B582B0044616461D46174B0093002354
:1054E000EAB2FFF7A6FE079A06992046FFF749FFA2
:1054F000E0B9012D0DD12368F2B29A62079B0093A7
:10550000069B002240212046FFF76BFF90B902B0B6
:1055100070BD330A22689362079A06992046FFF706
:1055200030FF28B92368F2B29A62E7E70120EEE77C
:105530000120ECE70120EAE70020008070B5044676
:105540000D46164604E023689B6913F0200F12D025
:1055500023689B6913F0200F1BD132462946204651
:10556000FFF785FEB8B9FEF7CFF8801BA842EAD84E
:10557000002DEDD1E7E7636C43F020036364202343
:1055800084F84130002384F8423084F84030012010
:1055900000E0002070BD0120FCE700285FD010B5BE
:1055A000044690F84130002B48D0242384F8413041
:1055B0002268136823F0010313606368226823F0F4
:1055C000706313612268936823F400439360E36877
:1055D000012B38D0A368226843F404439360E36846
:1055E000022B36D02268536823F40063536022688C
:1055F000536843F0007343F4004353602268D36858
:1056000023F40043D360236962691343A1692268CC
:1056100043EA0123D360E369216A22680B431360E4
:105620002268136843F001031360002060642023A4
:1056300084F84130206384F8420010BD80F8403087
:10564000FBF7DAF9B1E7A368226843F400439360FB
:10565000C5E72268536843F400635360C7E701203D
:1056600070472DE9F04383B00E469846BDF82C30C4
:1056700090F84110202940F0B7800446174699461B
:105680000A9ABAB1B3B190F84030012B00F0B08063
:105690004FF0010380F84030FEF736F805460090E1
:1056A000192301224FF400412046FFF79AFE30B142
:1056B00001209AE04FF400736364012095E02123F8
:1056C00084F84130402384F8423060640A9A626270
:1056D000A4F82A90606301950C9B009343463A46D8
:1056E00031462046FFF7BCFE68B9638D9BB2FF2BA5
:1056F0000ED9FF22228500904FF08073314620465C
:10570000FFF797FD21E0002384F8403001206CE092
:10571000628D92B22285002300934FF00073D2B2C3
:1057200031462046FFF785FD0FE0628D92B222855B
:10573000002300934FF00073D2B231462046FFF7AA
:1057400078FD638D9BB2002B32D02A460C992046FF
:10575000FFF717FE00284DD1626A236812789A621B
:10576000636A01336362638D9BB2013B9BB26385C5
:10577000238D013B9BB22385628D92B2002AE0D03B
:10578000002BDED100950C9B024680212046FFF7BE
:1057900028FE88BB638D9BB2FF2BC6D9FF222285D2
:1057A00000904FF0807331462046FFF742FDC8E776
:1057B0002A460C992046FFF7C1FEF8B9236820223B
:1057C000DA6121684B6823F0FF7323F48B3323F4F1
:1057D000FF7323F001034B6084F84120002384F819
:1057E000423084F8403000E0022003B0BDE8F0838E
:1057F0000220FAE70120F8E70120F6E70120F4E7AC
:105800002DE9F04383B00E469846BDF82C3090F851
:105810004110202940F0B9800446174699460A9A5B
:10582000BAB1B3B190F84030012B00F0B2804FF024
:10583000010380F84030FDF767FF0546009019230B
:1058400001224FF400412046FFF7CBFD30B101208B
:105850009CE04FF400736364012097E0222384F8F6
:105860004130402384F8423060640A9A6262A4F8AE
:105870002A90606301950C9B009343463A4631465B
:105880002046FFF725FE70B9638D9BB2FF2B0FD921
:1058900001222285434B00934FF08073314620460E
:1058A000FFF7C7FC21E0002384F8403001206DE0C1
:1058B000628D92B222853B4B00934FF00073D2B2BF
:1058C00031462046FFF7B5FC0FE0628D92B222858B
:1058D000002300934FF00073D2B231462046FFF709
:1058E000A8FC638D9BB2002B33D000950C9B00224B
:1058F00004212046FFF775FD00284CD123685A6A21
:10590000636A1A70636A01336362228D013A92B24C
:105910002285638D9BB2013B9BB26385638D9BB2F5
:10592000002BDED0002ADCD100950C9B8021204684
:10593000FFF757FD88BB638D9BB2FF2BC5D90122B2
:10594000228500904FF0807331462046FFF771FCAE
:10595000C7E72A460C992046FFF7F0FDF8B92368FF
:105960002022DA6121684B6823F0FF7323F48B3324
:1059700023F4FF7323F001034B6084F841200023DC
:1059800084F8423084F8403000E0022003B0BDE8E3
:10599000F0830220FAE70120F8E70120F6E7012072
:1059A000F4E700BF00240080034690F84120202A3D
:1059B00023D190F84020012A21D0012280F84020F4
:1059C000242280F841200068026822F0010202606F
:1059D0001868026822F480520260186802680A435C
:1059E000026019680A6842F001020A60202283F806
:1059F0004120002083F840007047022070470220B9
:105A00007047034690F84120202A21D190F8402089
:105A1000012A1FD0012280F84020242280F8412052
:105A20000068026822F0010202601868026822F42D
:105A3000706242EA0122026019680A6842F00102BB
:105A40000A60202283F84120002083F8400070473C
:105A50000220704702207047024B186800F4C060B3
:105A6000704700BF00700040B0F5007F0FD01F4BA3
:105A70001B6803F4C063B3F5806F34D01B4A13680E
:105A800023F4C06343F48063136000207047174B16
:105A90001B6803F4C063B3F5007F20D0134A13687A
:105AA00023F4C06343F400731360114B1B6832226C
:105AB00002FB03F30F4AA2FB03239B0C013300E01C
:105AC000013B0A4A526912F4806F01D0002BF7D1D2
:105AD000064B5B6913F4806F03D1002070470020F0
